:020000040800F2
:100000000050002021020008270200082B020008EF
:100010009D020008A1020008E9020008000000009B
:100020000000000000000000000000003103000894
:100030003503000800000000390300083D030008F4
:100040004D0300084D0300084D0300084D03000850
:100050004D0300084D0300084D0300084D03000840
:100060004D0300084D0300084D0300084D03000830
:100070004D0300084D0300084D0300084D03000820
:100080004D0300084D0300084D0300084D03000810
:100090004D0300084D0300084D0300084D03000800
:1000A0004D0300084D0300084D0300084D030008F0
:1000B0004D0300084D0300084D0300084D030008E0
:1000C0004D0300084D0300084D0300084D030008D0
:1000D0004D0300083D240008FD240008BD2500084C
:1000E0004D0300084D0300084D0300080000000008
:1000F0000000000000000000000000000000000000
:1001000000000000000000005FF808F100B583B0B7
:1001100000F0AAF9304B314A1360314A1360314B79
:10012000314A32498B4204D21168196004330432D7
:10013000F7E72A4B1A682E4B9A4200D0FEE7284B6D
:100140001A682C4B9A42F9D1234B2B4A13602B4A45
:1001500013602B4B02E000221A600433294A9342B9
:10016000F9D3254B1B6813B9244B1B6803B1FEE779
:1001700000F086F9694601A800F022F9224C234BD1
:10018000E41AA4100025AC4214DC214C214BE41AE3
:10019000A4100025AC4213DC0099019802F07CFC0D
:1001A00005461D4C1D4BE41AA410002C0EDC2846FD
:1001B00000F0E2F8154B53F8253098470135E2E797
:1001C000144B53F8253098470135E3E7013C134BB6
:1001D00053F824309847E8E7BABADECA0000002096
:1001E000CC000020000000203C490008D000002086
:1001F0007856341232547698D0000020441B0020E8
:10020000D0000020481B0020780300087803000875
:1002100078030008780300087803000878030008D2
:1002200008B5FFF773FF00BEFEE71EF0040F0CBF1A
:10023000EFF30880EFF309807146414A10472DE93A
:10024000F04182B004468846124B5E6B9F6B9D6AFC
:100250001B6B13F0020F03D00E4BDB6A002B0CDB81
:100260000D4800F0B5F8CDF800803B4632462946EF
:10027000204600F009F900BEFEE74BF6AB6100F046
:100280007DF90028ECD0034B4FF00042DA6202B057
:10029000BDE8F08100ED00E0F041000800BEFEE79F
:1002A0001EF0040F0CBFEFF30880EFF309807146D6
:1002B000244A10472DE9F04182B004468846084B95
:1002C0005E6B9F6B9D6A074800F082F8CDF8008056
:1002D0003B4632462946204600F0D6F800BEFEE7EF
:1002E00000ED00E0004200081EF0040F0CBFEFF329
:1002F0000880EFF309807146134A10472DE9F04159
:1003000082B004468846084B5E6B9F6B9D6A074827
:1003100000F05EF8CDF800803B4632462946204684
:1003200000F0B2F800BEFEE700ED00E00C4200086D
:1003300000BEFEE700BEFEE700BEFEE7704700001D
:100340003F020008B5020008FD02000800BEFEE7FB
:100350003C49000800000020D00000203C49000873
:100360000000000000000000D0000020481B00201A
:08037000000000000000000085
:10037800FEE7000008B503460C4A12685AB10B4A5A
:100388001068033323F003030344094A934206D851
:10039800064A136008BD054A06491160EFE703F0F5
:1003A80045FA0C2303604FF0FF30F3E7D400002038
:1003B800004C0020481B002001230360014B0B6008
:1003C800704700BF040000200FB400B583B004AB31
:1003D80053F8042B01938021064803F083FA002880
:1003E80003DD0146034800F037F803B05DF804EB7D
:1003F80004B07047DC0000202DE9F04385B00446C6
:100408000F4643560BB10E461EE0042528462146EA
:10041800ABBE0446384605B0BDE8F08314F9011BAD
:1004280004AA1A4402F8101C0133AB42F6D304AAFA
:100438001344002203F8102C4FF00408E946404604
:100448004946ABBE8046761B002EE3D03546102EBB
:1004580028BF10250023E8E708B5FFF7CDFF08BD42
:1004680008B500F0FDF8024A024B9A6008BD00BFCB
:100478000000000800ED00E008B500F019F908BD1B
:10048800F8B504460D4617461E462748FFF79CFF59
:1004980021682648FFF798FF61682548FFF794FF11
:1004A800A1682448FFF790FFE1682348FFF78CFF15
:1004B80021692248FFF788FF61692148FFF784FF17
:1004C800A1692048FFF780FFE1691F48FFF77CFF1B
:1004D8001E48FFF779FF29461D48FFF775FF1D4C99
:1004E800E16A1D48FFF770FF216B1C48FFF76CFF9E
:1004F800E16B1B48FFF768FF15F0800F0AD115F470
:10050800004F0CD11748FFF75FFF06991648FFF711
:100518005BFFF8BD39461548FFF756FFEFE7314650
:100528001348FFF751FFEDE7D4400008E440000806
:10053800F440000804410008144100082441000860
:10054800344100084441000854410008644100084F
:100558007041000800ED00E080410008904100086B
:10056800A0410008D0410008D8410008B041000867
:10057800C041000883691A888A4201D00020704768
:100588000268033A012A03D80233836101207047C5
:100598000020704782B00023019300932C4A13680F
:1005A80043F4803313602A4B1B6803F40033009331
:1005B800019B01330193009B1BB9019BB3F5A06F0D
:1005C800F1D1234B1B6813F4003F06D0012300939D
:1005D800009B012B04D002B0704700230093F7E77B
:1005E8001C4B1A6842F010021A601A6822F00302C3
:1005F8001A601A6842F002021A60A3F580535A681A
:100608005A605A685A605A6842F480625A605A6856
:1006180022F47C125A605A6842F4E8125A601A6846
:1006280042F080721A600A4B1B6813F0007FFAD000
:10063800074B5A6822F003025A605A6842F00202D5
:100648005A60034B5B6803F00C03082BF9D1C2E72F
:10065800001002400020024008B5FFF79BFF08BDCC
:1006680008B5104B1A6842F001021A6059680E4A20
:100678000A405A601A6822F0847222F480321A60A2
:100688001A6822F480221A605A6822F4FE025A601C
:100698004FF41F029A60FFF7DFFF044B4FF0006230
:1006A8009A6008BD001002400000FFF800ED00E06D
:1006B8001F4B5B6803F00C03042B15D0082B17D0D5
:1006C8001BB11C4B1C4A1A6002E01A4B1A4A1A60EA
:1006D800174B5B68C3F30313184AD35CDAB21549A6
:1006E8000B68D3400B607047124B134A1A60EFE750
:1006F8000F4A53685268C3F38343023312F4803FAE
:100708000AD00B4A526812F4003F0BD00C4A02FB85
:1007180003F3084A1360DBE7094A02FB03F3054ABF
:100728001360D5E7044A02FB03F3024A1360CFE7DC
:10073800001002401C00002000127A000C0000206B
:1007480000093D0010B50446054BA52119705870E5
:10075800044800F0F7FD2146034800F0F3FD10BD02
:100768005C0500207C4600089446000810B588B057
:10077800084C0A230693012305937F23049304F16D
:1007880010030FCB8DE80F0094E80F0001F046FB33
:1007980008B010BD44470008F0B583B006460D46C2
:1007A800174600F0B3FD0020044607E0335D02A8B9
:1007B80040F8043D012100F0AFFD0134AC42F5D30F
:1007C800B84202D0012003B0F0BD0020FBE70000D2
:1007D80070B588B0054604780134E4B2043C065983
:1007E8001B4800F0AFFD324621462846FFF7D4FFEC
:1007F80040BB184800F0A6FD1020FFF7A3FF164CD9
:100808000A23069310230593144B049304F1100351
:100818000FCB8DE80F0094E80F0001F0FFFA104BA2
:1008280000221A7008E00D4AD15C0E4800F08AFDDB
:100838000B4A137801331370094B1B780F2BF2D92D
:1008480008B070BD084800F07DFDFFF78FFFF7E79F
:10085800C8430008F8430008444700082000002067
:10086800F40D00208C46000820440008F0B58BB039
:100878000546274A1368C3F30B03ADF826301368FF
:100888000023ADF8243004780134E4B2043C06595E
:10089800204800F057FD324621462846FFF77CFFE6
:1008A80030B11D4800F04EFDFFF760FF0BB0F0BD02
:1008B8001A4800F047FD0420FFF744FF184C0A27A8
:1008C8000697022605960DF12603049304F11005F8
:1008D80095E80F008DE80F0094E80F0001F09EFAEC
:1008E8000697059609AB049395E80F008DE80F006D
:1008F80094E80F0001F092FABDF82610094800F0BC
:1009080021FDBDF82410084800F01CFDCEE700BF0B
:10091800002004E0C843000820440008F843000809
:1009280044470008A0430008B443000870B588B0E5
:10093800054604780134E4B2043C0659134800F033
:1009480001FD324621462846FFF726FF30B1104800
:1009580000F0F8FCFFF70AFF08B070BD0D4800F082
:10096800F1FC0120FFF7EEFE0B4C0A23069310233F
:1009780005930A4B049304F110030FCB8DE80F0085
:1009880094E80F0001F04AFAE6E700BFC843000800
:1009980020440008F84300084447000820000020CD
:1009A80070B58AB0054604780134E4B2043C0659AF
:1009B800154800F0C7FC324621462846FFF7ECFEF2
:1009C80030B1124800F0BEFCFFF7D0FE0AB070BD8F
:1009D8000F4800F0B7FC0120FFF7B4FE00F026FE38
:1009E8000AAB03F8010D0B4C0A220692012205926C
:1009F800049304F110030FCB8DE80F0094E80F0067
:100A080001F00CFAE2E700BF444400082044000863
:100A1800F84300084447000800F16043B3F5A04FCD
:100A280008D300F17840B0F5003F01D301207047AA
:100A380000207047002070470023934211D230B441
:100A480010F8135000EB430494F9014004F00F042C
:100A580044EA0514CC5401339BB29342F0D330BC22
:100A68007047704770B58AB0054600238DF8273067
:100A780001238DF8263004781C44E4B2043C06595E
:100A88002C4800F05FFC324621462846FFF784FEDA
:100A9800002847D1284800F055FC0120FFF752FEF6
:100AA800042208A9A81CFFF7C7FF089D9DF823107A
:100AB8009DF822209DF821309DF8200000901F48C5
:100AC80000F040FC2846FFF7A7FFB0B91C4C0A23EA
:100AD8000693012305930DF12703049304F11003F2
:100AE8000FCB8DE80F0094E80F0001F097F92C6800
:100AF800144800F027FCA04719E0134800F022FC36
:100B08000F4C0A230693012305930DF12603049342
:100B180004F110030FCB8DE80F0094E80F0001F0EB
:100B28007DF904E0094800F00DFCFFF71FFE0AB04C
:100B380070BD00BFC4440008F8430008F84400082A
:100B480044470008244500084C4500082044000894
:100B580070B58CB0054604780134E4B2083C042230
:100B680009A92044FFF768FF099E1C4800F0EAFB2A
:100B78001B4800F0E7FB324621462846FFF70CFEEB
:100B880030B1184800F0DEFBFFF7F0FD0CB070BD87
:100B9800154800F0D7FB04220AA9A81CFFF74CFF50
:100BA8000A9CAD7A00F066FC2946204600F0BCFCA1
:100BB8000CAD05F8010D0120FFF7C4FD0B4C0A230D
:100BC800069301230593049504F110030FCB8DE8D8
:100BD8000F0094E80F0001F021F9D7E7004300085F
:100BE8003443000820440008F8430008444700083C
:100BF80070B582B0054604780134E4B2083C04229A
:100C08000DEB02012044FFF717FF019E0E4800F08C
:100C180099FB0E4800F096FB324621462846FFF71E
:100C2800BBFD30B10A4800F08DFBFFF79FFD02B015
:100C380070BD084800F086FB0020FFF783FD00F038
:100C480019FC00F0AFFCF2E7004300086843000815
:100C580020440008F843000870B58CB00546002110
:100C68003D4800F0BDFF00238DF82F3001238DF89B
:100C78002E302C781C44E4B2083CA87A0B300422AD
:100C880009A92844FFF7D8FE099E344800F05AFB0A
:100C9800324621462846FFF77FFD002850D13048CC
:100CA80000F050FB04220AA9A81CFFF7C5FE0A9C05
:100CB8009DF82B109DF82A209DF829309DF82800D2
:100CC8000090284800F03EFB2046FFF7A5FE10BB29
:100CD800254E4022314605F10B00FFF7ADFE00F02E
:100CE800C9FB40222146304600F0DEFB0120FFF719
:100CF80029FD1E4C0A230693012305930DF12F03AA
:100D0800049304F110030FCB8DE80F0094E80F0053
:100D180001F084F819E0164800F014FB134C0A237C
:100D28000693012305930DF12E03049304F1100398
:100D38000FCB8DE80F0094E80F0001F06FF804E086
:100D48000C4800F0FFFAFFF711FD0121024800F0FE
:100D580047FF0CB070BD00BF2C170020704500087D
:100D6800F8430008D44500085C0100204447000807
:100D78004C4500082044000870B582B00546047848
:100D88000134E4B2083C04220DEB02012044FFF7D1
:100D980053FE019E0E4800F0D5FA0E4800F0D2FA34
:100DA800324621462846FFF7F7FC30B10A4800F0E2
:100DB800C9FAFFF7DBFC02B070BD084800F0C2FAC0
:100DC8000020FFF7BFFC00F015FC00F03DFDF2E746
:100DD800004300089042000820440008F843000837
:100DE80070B582B0054604780134E4B2083C0422A8
:100DF8000DEB02012044FFF71FFE019E0E4800F094
:100E0800A1FA0E4800F09EFA324621462846FFF71E
:100E1800C3FC30B10A4800F095FAFFF7A7FC02B00E
:100E280070BD084800F08EFA0020FFF78BFC00F038
:100E3800E1FB00F03BFDF2E7004300081C4200081C
:100E480020440008F843000870B582B005460478CD
:100E58000134E4B2083C04220DEB02012044FFF700
:100E6800EBFD019E124800F06DFA124800F06AFA94
:100E7800324621462846FFF78FFC30B10E4800F075
:100E880061FAFFF773FC02B070BD0C4800F05AFA23
:100E980004226946A81CFFF7CFFD009C00F0AAFBBE
:100EA800204600F035FD0020FFF74CFCEBE700BFC3
:100EB80000430008C842000820440008F84300081E
:100EC80070B582B0054604780134E4B2083C0422C7
:100ED8000DEB02012044FFF7AFFD019E124800F020
:100EE80031FA124800F02EFA324621462846FFF71A
:100EF80053FC30B10E4800F025FAFFF737FC02B07A
:100F080070BD0C4800F01EFA04226946A81CFFF7C1
:100F180093FD009C00F06EFB204600F07DFD002054
:100F2800FFF710FCEBE700BF00430008544200083D
:100F380020440008F843000870B582B005460478DC
:100F48000134E4B2083C04220DEB02012044FFF70F
:100F580073FD019E0D4800F0F5F90D4800F0F2F917
:100F6800324621462846FFF717FC30B1094800F001
:100F7800E9F9FFF7FBFB02B070BD074800F0E2F9A2
:100F88000020FFF7DFFB00F099FBF4E700430008BF
:100F98004846000820440008F843000870B582B0AD
:100FA800054604780134E4B2083C04220DEB020142
:100FB8002044FFF741FD019E0E4800F0C3F90E489A
:100FC80000F0C0F9324621462846FFF7E5FB30B16C
:100FD8000A4800F0B7F9FFF7C9FB02B070BD08482E
:100FE80000F0B0F90020FFF7ADFB00F003FB00F0C4
:100FF8002BFCF2E700430008904200082044000858
:10100800F8430008002393422FD2F0B414E0A4F16F
:101018000A07FFB2052F1BD844F040044C5517E0CF
:10102800A4F10A06F6B2052E02D844F040044C5545
:1010380001339BB2934216D2C618C45C5D002409E2
:1010480001F81340092CE2D844F0300401F81340A9
:101058003478013504F00F044C55092CE0D844F0DD
:1010680030044C55E4E7F0BC7047704770B58AB05F
:10107800054604780134E4B2043C06590023089379
:10108800ADF824301C4800F05DF932462146284668
:10109800FFF782FB30B1194800F054F9FFF766FBFF
:1010A8000AB070BD164800F04DF90120FFF74AFB61
:1010B80010218DF82710134800F044F912489DF8C4
:1010C80027308370032208A9FFF79CFF062108A890
:1010D80001F0EAFB0D4C0A230693012305930DF159
:1010E8002703049304F110030FCB8DE80F0094E855
:1010F8000F0000F093FED3E7744400082044000872
:10110800F8430008A44400085C0500204447000890
:1011180070B58EB0054604780134E4B2083C042268
:101128000BA92044FFF788FC0B9E1E4800F00AF923
:101138001D4800F007F9324621462846FFF72CFBE8
:1011480030B11A4800F0FEF8FFF710FB0EB070BD82
:10115800174800F0F7F800F069FA8DF8370000F04A
:10116800A7FA0C9008AD012229460DF13700FFF7C8
:1011780049FF04220DF122010CA8FFF743FF0A20C2
:10118800FFF7E0FA0B4C0A2306930593049504F144
:1011980010030FCB8DE80F0094E80F0000F03EFE1F
:1011A800D4E700BF004300080C46000820440008AC
:1011B800F84300084447000800B5ADF2544D4E48C6
:1011C8004E4B03600024C4710D2383800323837175
:1011D80000F0C2FC40F24C422146684602F037FB60
:1011E800474800F0AFF802E04648FFF73FFF00210C
:1011F8008DF84F14434C4FF47A72204602F027FBC7
:10120800684601F0D1FB01220DF24F416846FFF715
:1012180013FC9DF84F34214601F8013B9DF84F24FB
:101228000DF10200FFF708FC6378513B0F2B5FD8E4
:1012380001A252F823F000BFF11100088112000842
:1012480089120008D91200089112000899120008A2
:10125800A9120008C9120008B1120008E11200081A
:10126800A1120008D1120008E9120008F1120008C2
:10127800B9120008C11200082248FFF7A9FAB6E718
:101288002048FFF7F3FAB2E71E48FFF7EBFBAEE79B
:101298001C48FFF75DFCAAE71A48FFF7A9FCA6E778
:1012A8001848FFF7D9FCA2E71648FFF73FFB9EE76F
:1012B8001448FFF761FD9AE71248FFF791FD96E79A
:1012C8001048FFF7C1FD92E70E48FFF7F9FD8EE7DA
:1012D8000C48FFF765FB8AE70A48FFF719FF86E71E
:1012E8000848FFF729FE82E70648FFF757FE7EE722
:1012F800054800F027F87AE72C1700200010014075
:10130800B04600085C050020E8460008014B0122B1
:101318009A6070470030024000238B420CD210B410
:1013280050F82340064A146001338B42F8D318461C
:10133800034B186810BC70471846014B1868704773
:10134800003002400FB470B58AB00EAB53F8042BCE
:1013580009930F4DC821284602F0C4FA86B22846E0
:1013680002F08CFA0B4C01230693C0B20590049549
:1013780004F110030FCB8DE80F0094E80F0000F084
:101388004DFD30460AB0BDE8704004B0704700BF5C
:10139800F80D00202447000810B584B000238DF80C
:1013A8000F304FF07E5302930E4B019300F0A2FDD5
:1013B8008DF80F009DF80F30DBB2022B04D0019A94
:1013C800094B1A6004B010BD00F074FE0290019839
:1013D800029C02F063F8214602F0B8F802F006FA1F
:1013E8000190ECE700127A003000002000000000B5
:1013F80030B583B0044600230193FFF7CDFF2046A4
:1014080001F0EAFC0022184B01F060FD12A3D3E9B9
:10141800002301F0A3FB0022144B01F09FFB0446BC
:101428000D46134B186801F0D7FC02460B462046C0
:10143800294601F04BFD0AA3D3E9002301F070FE11
:1014480001F056FF02E0019B01330193019B8342A7
:10145800F9D303B030BD00BF0000000000A0674012
:1014680000000000E0CA684100408F4000000C40C6
:1014780030000020094B0A4A1A6002F188321A60CB
:10148800084B1B6813F0800FFAD1064B1B6813F04A
:10149800800F01D1012070470220704704200240CC
:1014A800230167451020024030B41D4B1B6813F020
:1014B800010FFAD11B4C236843F001032360002479
:1014C80009E030F8143021F81430154B1B6813F07C
:1014D800010FFAD10134B4EB520FF2D3104B1B6851
:1014E80013F0200FFAD00E4C236843F0200323603A
:1014F8000434236823F00103236000230224B3EBA0
:10150800920F09D251F8235050F82340A54202D136
:1015180001330124F3E70224204630BC704700BFA2
:101528000C2002401020024010B41B4A136843F0FC
:101538000203136000220EE000EB8223174C2360A5
:10154800043C236843F040032360154B1B6813F0E9
:10155800010FFAD101329142EED8114B1B6813F0FA
:10156800200FFAD00E4A136843F0200313600432A8
:10157800136823F00203136000230222B3EB012F48
:1015880007D21A58B2F1FF3F02D101330122F5E721
:101598000222104610BC704710200240142002405E
:1015A8000C200240114B1A6842F004021A601A68B3
:1015B80042F040021A600E4B1B6813F0010FFAD17B
:1015C8000A4A136823F00403136000230220B3F5CA
:1015D800804F08D203F100621268B2F1FF3F03D1D5
:1015E80001330120F3E770470220704710200240C2
:1015F8000C20024008B5FFF73DFF094B094A1A6065
:1016080002F188321A60084B1B6813F4007FFAD085
:10161800054B1B6813F4007F00D1012008BD00BFF3
:10162800082002402301674510200240024B186839
:1016380000F00200704700BF1C20024008B51A4B9A
:101648001B6813F0010FFAD1FFF7D4FF174B1A6884
:1016580042F020021A601A6842F040021A60124BE7
:101668001B6813F0010FFAD10F4B1B6813F0200F02
:10167800FAD00D4A136843F020031360043213684C
:1016880023F02003136000230F2B0BD803F1005223
:10169800A2F500621278FF2A03D10233DBB20120DF
:1016A800F2E7022008BD00BF0C20024010200240D3
:1016B800014B1868704700BF2020024003490A68A0
:1016C80002F4E062024B13430B6070470CED00E03C
:1016D8000400FA05012916D0B9B900231CE0195CE9
:1016E800184AD15401339BB20F2BF8D90023022298
:1016F8000F2B25D8134AD15C1A5C91421DD10133B6
:101708009BB20122F4E70023EEE7022218E0195CFD
:101718000D4AD15401339BB2B3F5806FF7D3002340
:101728000222B3F5806F0BD2074AD15C1A5C914252
:1017380005D101339BB20122F3E7022200E0022225
:1017480010467047341700204417002070B4012B4E
:101758001CD0EBB9002326E00468DD00EC400460EF
:10176800D5181C4E745501339BB28B42F4D3002319
:1017780002248B422BD210F82350D418154E345D16
:10178800A54221D101339BB20124F2E70023ECE703
:1017980002241CE00468DD00EC400460D5180E4EFD
:1017A800745501339BB28B42F4D3002302248B423D
:1017B8000DD210F82350D418074E345DA54205D138
:1017C80001339BB20124F2E7022400E00224204600
:1017D80070BC7047341700204417002010B5044629
:1017E800012914D039BB4FF4806201461448FFF731
:1017F8005BFE00230220B3F5806F1DD2195D104AED
:10180800D25C914219D101339BB20120F3E7102237
:1018180001460C48FFF748FE002302200F2B0BD887
:10182800195D084AD25C914203D101339BB2012071
:10183800F4E7022000E0022010BD0220FCE700BF10
:10184800441700203417002010B582B0FF230193FD
:10185800134B1B6813F0010FFAD1124C01212046DB
:10186800FFF738FFFFF7EAFE0F4A136843F010034B
:10187800136001230022022101A8FFF767FF01215D
:101888002046FFF7ABFF064B1B6813F0010FFAD198
:10189800054A136823F01003136002B010BD00BF9F
:1018A8000C20024000F8FF1F1020024010B582B043
:1018B800A5230193134B1B6813F0010FFAD1124CA7
:1018C80001212046FFF706FFFFF7B8FE0F4A13680D
:1018D80043F01003136001230022022101A8FFF73F
:1018E80035FF01212046FFF779FF064B1B6813F0EF
:1018F800010FFAD1054A136823F01003136002B0F0
:1019080010BD00BF0C20024000F8FF1F102002404D
:1019180010B582B004463B4A1368DBB21268120A5B
:1019280002F47F42134338490A68120402F47F0222
:1019380013430A68120202F07F42134323EA0003AA
:101948000193324B1B6813F0010FFAD10121304883
:10195800FFF7C0FEFFF772FE2E4A136843F010032C
:101968001360631E7F2B16D9A4F18103B3F5FF4FD3
:1019780027D3A4F50043013BB3F5FF0F2CD3A4F5FF
:101988000004013CB4F1FF4F31D3224A136823F01D
:101998001003136013E001230822194601A8FFF77A
:1019A800D5FE01211A48FFF719FF184B1B6813F0E1
:1019B800010FFAD1174A136823F01003136002B01D
:1019C80010BD019B1B0A02A840F8043D01230A220E
:1019D8001946FFF7BBFEE4E7BDF8063002A840F859
:1019E800043D01230C221946FFF7B0FED9E79DF804
:1019F800073002A840F8043D01230E221946FFF7DC
:101A0800A5FECEE708F8FF1F0CF8FF1F0C200240C8
:101A180000F8FF1F1020024010B582B00446494A62
:101A28001368DBB21268120A02F47F421343464974
:101A38000A68120402F47F0213430A68120202F0D1
:101A48007F42134303430193404B1B6813F0010F7C
:101A5800FAD101213E48FFF73DFEFFF7EFFD3D4A71
:101A6800136843F010031360631E7F2B19D9A4F188
:101A78008103B3F5FF4F2AD3A4F50043013BB3F527
:101A8800FF0F2FD3A4F50003013BB3F1FF4F34D36D
:101A9800B4F1FF3F3CD02F4A136823F010031360C2
:101AA80013E001230822194601A8FFF74FFE012180
:101AB8002748FFF793FE254B1B6813F0010FFAD157
:101AC800244A136823F01003136002B010BD019B71
:101AD8001B0A02A840F8043D01230A221946FFF711
:101AE80035FEE4E7BDF8063002A840F8043D0123BE
:101AF8000C221946FFF72AFED9E79DF8073002A8FD
:101B080040F8043D01230E221946FFF71FFECEE7D9
:101B180001230822194601A8FFF718FE01230A220B
:101B2800194601A8FFF712FE01230C22194601A845
:101B3800FFF70CFE01230E22194601A8FFF706FE47
:101B4800B5E700BF08F8FF1F0CF8FF1F0C20024084
:101B580000F8FF1F1020024030B482B00246002374
:101B6800184614680193B2F904108BB2072B06D9F2
:101B7800083B9BB2072B19D94FF0010013E02368EB
:101B8800019389000F2303FA01F5019B23EA05035A
:101B98000193D3799279134303FA01F1019B194315
:101BA8000191019B236002B030BC70471BB2938047
:101BB800616801919B000F2101FA03F5019921EA5F
:101BC80005010191D1799579294301FA03F3019926
:101BD8000B430193019B6360938808339380E2E78A
:101BE80010B403464FF000001A68012904D059B117
:101BF8004FF0010010BC7047D168B3F904400123CD
:101C0800A3400B43D360F5E7D168B3F9044001233F
:101C1800A34021EA0303D360ECE710B40468B0F9E9
:101C2800042093B20F2B03D94FF0010010BC70476A
:101C38004FF00000A368D34003F001030B70F5E7F1
:101C480070B586B004460D4600228DF81720012392
:101C58008DF816304FF07E51049136490391ADF856
:101C68000A308DF80930ADF8062000F043F98DF8F8
:101C780017009DF81730DBB2022B45D02E4B9D4242
:101C880050D0012000F092F9C0B28DF81600039BE5
:101C98009DF81620D2B2B3FBF2F30393039B250100
:101CA800B3FBF5F39BB2ADF80A30039801F0F6FBED
:101CB8000646204601F0F2FB4FF0834101F046FC56
:101CC8000146304601F0F6FC04460398B0FBF5F0F7
:101CD80001F0E4FB0146204601F02EFB4FF0834162
:101CE80001F034FC01F082FDC0B28DF80900BDF8A6
:101CF8000A209DF8093043EA02139BB2ADF806307A
:101D0800BDF8060006B070BD00F0D4F90490039841
:101D1800049E01F0C3FB314601F018FC01F066FD9A
:101D28000390ABE7022000F041F9C0B28DF816002D
:101D3800ADE700BF00127A000038014084B038B522
:101D480004AC84E80F000D9D0E9C9DF8280000F05F
:101D58007DF8099800F0E8F8089800F0E5F806A87A
:101D6800FFF7FAFE012106A8FFF73AFF04A8FFF7DC
:101D7800F3FE0B990C98FFF763FF01466FF440538D
:101D88009D4203D0B5F5005F00D01D466FF4806317
:101D98009C4206D0B4F5806F03D0B4F5C06F00D074
:101DA8001C4623462A460B9800F026FABDE8384020
:101DB80004B0704718B108B500F0D0FA08BD01208A
:101DC800704784B008B50DF1080C8CE80F000A992B
:101DD8009DF82C2051B122B90120BDE8084004B07B
:101DE8007047099800F06AFA0020F6E70120F4E746
:101DF80084B008B50DF1080C8CE80F000A999DF81D
:101E08002C2049B122B90120BDE8084004B0704730
:101E1800099800F07BFAF7E70120F5E784B008B5E8
:101E28000DF1080C8CE80F000A999DF82C2059B187
:101E380022B90120BDE8084004B070470C9B0998FE
:101E480000F0FEF90020F5E70120F3E71F2811D97B
:101E5800A0F12003DBB21F2B15D93F2B1CD840382B
:101E6800C0B2012303FA00F00C4A1368034313605D
:101E780000207047012303FA00F0094A136803435E
:101E8800136000207047012202FA03F305490A682B
:101E98001A430A60002070470120704708E100E0FB
:101EA80000E100E004E100E00C4B1B68012811D0C0
:101EB800B0F5803F0ED0B0F1807F0BD010F1020F4B
:101EC80006D010F1011F03D06FF08072904202D14A
:101ED800034000E00343014A1360704700100240CA
:101EE800034A136823F0030318431060704700BFC8
:101EF800041002400B4B1B6813F00C0F0DD0094B5C
:101F08001B6813F0040F0AD1064B1B6813F0080F67
:101F180001D101207047022070470020704701203E
:101F2800704700BF0410024010F0805F0ED100F02F
:101F38004043B3F1404F10D010F0005F05D020F0BF
:101F48000050094A136818431060704720F0805009
:101F5800064A136818431060704720F04040044A4E
:101F6800136818431060704714100240181002409C
:101F78001C10024010F1810F10D06FF4806398425A
:101F88000CD06FF40053984208D06FF44043984245
:101F980004D0054A1368184310607047024A136852
:101FA80018401060704700BF0410024082B0002340
:101FB80001933F4B1B6803F0F0030193019B802BB7
:101FC80019D9019B802B1ED0019B902B1DD0019B02
:101FD800A02B1CD0019BB02B1BD0019BC02B1AD06F
:101FE800019BD02B19D0019BE02B18D0019BF02B23
:101FF80018D0002300E00123012816D0022835D08C
:10200800184602B070470223F6E70423F4E70823D2
:10201800F2E71023F0E74023EEE78023ECE74FF4E4
:102028008073E9E74FF40073E6E7214A126802F487
:10203800E0620192019AB2F5806F0ED0019AB2F572
:10204800A06F0DD0019AB2F5C06F0CD0019AB2F50D
:10205800E06FD5D11B019BB2D2E75B009BB2CFE703
:102068009B009BB2CCE7DB009BB2C9E7104A126821
:1020780002F460520192019AB2F5005F0ED0019A03
:10208800B2F5205F0DD0019AB2F5405F0CD0019AED
:10209800B2F5605FB4D11B019BB2B1E75B009BB2A4
:1020A800AEE79B009BB2ABE7DB009BB2A8E700BFA3
:1020B8000410024010B582B000230193424B1B6804
:1020C80003F480330193019BB3F5803F43D0022092
:1020D8003D4B1B6803F470130193019BB3F5701F0C
:1020E80047D0019BB3F5802F4ED0019BB3F5002F4D
:1020F8004CD0019BB3F5402F4BD0019BB3F5801F0B
:1021080049D0019BB3F5A01F47D0019BB3F5C01F71
:1021180045D0019BB3F5E01F44D0019BB3F5001FE8
:1021280042D0019BB3F5101F40D0019BB3F5201F8F
:102138003ED0019BB3F5301F3CD0019BB3F5401F47
:102148003AD0019BB3F5501F38D0019BB3F5701FEF
:1021580036D0002410E01C4B1B6803F400330193B5
:10216800019BB3F5003F02D0019B0120B0E702209C
:10217800AEE702230193002401F094F901462046BA
:1021880001F098FA02B010BD104CF5E74FF0814409
:10219800F2E70F4CF0E70F4CEEE70F4CECE74FF08F
:1021A8008244E9E70D4CE7E70D4CE5E70D4CE3E722
:1021B8000D4CE1E70D4CDFE70D4CDDE70D4CDBE79F
:1021C8004FF08344D8E700BF0410024000004040AD
:1021D8000000A0400000C0400000E04000001041A6
:1021E8000000204100003041000040410000504103
:1021F800000060410000704110B4C46844F4005409
:10220800C46081606FF440518A4210D001690A436A
:1022180002616FF4806293420DD0C2681343C360B9
:10222800C36843F00C03C360002010BC7047016909
:102238000A400261EDE7C2681340C360F0E700009E
:1022480070B505461E46134B984209D0A3F5744352
:1022580098420BD003F58063984202D10E4C00E0FF
:102268000E4C21602271002363710AE00C4CF8E7E0
:102278002268D35C6B603046FFF7BAF863790133A4
:102288006371637922799342F2D300232360237127
:10229800637170BD003801405C0000204C000020D4
:1022A80054000020012A05D0C36823EA0103C36053
:1022B80000207047C3680B43C360F9E710B50F4CA3
:1022C800A04209D0A4F57444A0420BD004F5806460
:1022D800A04202D10A4B00E00A4B9C79032C03D0A0
:1022E800012010BD084BF8E719601A7102229A7193
:1022F80001228021FFF7D6FF0020F2E700380140D5
:102308005C0000204C0000205400002010B50F4B4A
:10231800984209D0A3F5744398420BD003F5806323
:10232800984202D10A4C00E00A4CA379032B03D04F
:10233800012010BD084CF8E72160227101222021FC
:10234800FFF7B0FF0223A3710020F2E70038014035
:1023580044000020340000203C000020094B994232
:1023680008D0094B994209D0084B994204D1084B2F
:10237800186001E0074B186000207047064B186092
:10238800FAE700BF00380140004400400048004020
:10239800C80E0020C00E0020C40E002008B50D4A4B
:1023A800904209D0A2F57442904210D002F58062A2
:1023B800904202D1084B00E0084B00221A605A7183
:1023C8001A71032199712021FFF76CFF08BD044B96
:1023D800F3E700BF0038014044000020340000202B
:1023E8003C00002008B50F4A904209D0A2F574427B
:1023F800904214D002F58062904202D10A4B00E06C
:102408000A4B00221A605A711A71032199710368E4
:1024180023F0400303608021FFF744FF08BD044B0D
:10242800EFE700BF003801405C0000204C000020AE
:102438005400002000B583B0274B1B680193274B3D
:102448001B6803F080030093019B1BB1244B9B790D
:10245800022B08D0009B1BB1224B9B79022B24D066
:1024680003B05DF804FB204B1B6813F4806F19D090
:10247800194B1B7803F07F0333B1194A106851795F
:102488004354537901335371154B5A791B799A4246
:10249800E0D11248FFF782FF144B1B68002BD9D0FC
:1024A8009847D7E70C4B1B78E6E70E4B5A791B7910
:1024B8009A4208D00B4B1968895C074A11605A790F
:1024C80001325A71CCE70548FFF78CFF084B1B68AF
:1024D800002BC5D09847C3E70438014000380140B5
:1024E800340000204C0000200C380140C00E0020B1
:1024F800CC0E002000B583B0274B1B680193274BF7
:102508001B6803F080030093019B1BB1244B9B794C
:10251800022B08D0009B1BB1224B9B79022B24D0A5
:1025280003B05DF804FB204B1B6813F4806F19D0CF
:10253800194B1B7803F07F0333B1194A106851799E
:102548004354537901335371154B5A791B799A4285
:10255800E0D11248FFF722FF144B1B68002BD9D09B
:102568009847D7E70C4B1B78E6E70E4B5A791B794F
:102578009A4208D00B4B1968895C074A11605A794E
:1025880001325A71CCE70548FFF72CFF084B1B684E
:10259800002BC5D09847C3E70444004000440040DE
:1025A8003C000020540000200C440040C40E0020D1
:1025B800D00E002000B583B0274B1B680193274B32
:1025C8001B6803F080030093019B1BB1244B9B798C
:1025D800022B08D0009B1BB1224B9B79022B24D0E5
:1025E80003B05DF804FB204B1B6813F4806F19D00F
:1025F800194B1B7803F07F0333B1194A10685179DE
:102608004354537901335371154B5A791B799A42C4
:10261800E0D11248FFF7C2FE144B1B68002BD9D03B
:102628009847D7E70C4B1B78E6E70E4B5A791B798E
:102638009A4208D00B4B1968895C074A11605A798D
:1026480001325A71CCE70548FFF7CCFE084B1B68EE
:10265800002BC5D09847C3E7044800400048004015
:10266800440000205C0000200C480040C80E0020F8
:10267800D40E002010B586B03C4BDB6983B93C4BC7
:102688001B78DBB2012B1AD03A4B1B78DBB24F2BED
:1026980063D0394B1B78DBB2364A137006B010BDD5
:1026A800324C01230593344B049304F110030FCBF0
:1026B8008DE80F0094E80F00FFF783FBDFE72F4B4F
:1026C8001B78002B2FD02E4B1B889BB2B3F5006FC5
:1026D8001FD2294B1B78DBB23C2B31D0264B1B7801
:1026E800DBB2202B15D0244B1B78DBB20A2B10D081
:1026F800214B1B78DBB23C2B0BD0214A13889BB2B1
:102708001D490978C9B21F48C154138801339BB2C7
:102718001380184B1B78DBB2432B15D0164B1B7854
:10272800DBB2144A1370144B1A78D2B21B78DBB29E
:102738003E2B18BF3A2AB1D1104B01221A70ADE7CF
:102748000E4B00221A70C9E70B4B1B78DBB24C2BDF
:10275800E4D10D4B00221A70E5E7074B1B78DBB27A
:102768004B2B96D1084B00221A7097E7D8160020F9
:102778001A1700201B1700201C1700201D17002007
:1027880018170020D80E00206400002030B587B04C
:10279800054601F073F8114CC0B20590049504F198
:1027A80010030FCB8DE80F0094E80F00FFF709FB2B
:1027B8000DE00A4C01230593094B049304F110031F
:1027C8000FCB8DE80F0094E80F00FFF711FB054BC6
:1027D8001B78002BEDD107B030BD00BFF8160020E4
:1027E8001C1700206400002084B0F0B58DB012AC36
:1027F80084E80F001E4A09AB07CA03C31A706FF4B6
:10280800806306936FF4405305934FF4E1330493C8
:1028180016AB0FCB8DE80F0094E80F00FFF78EFA88
:10282800074648B142F21070FEF7E2FD38460DB097
:10283800BDE8F04004B070470E4E344612AD0FCDDF
:102848000FC495E80F0084E80F0009AD284601F091
:1028580015F801230693C0B20590049594E80F007B
:102868008DE80F0096E80F00FFF7D8FADAE700BF07
:10287800FC470008F8160020084B01221A70084B84
:10288800D96909B90120704710B504460548FFF712
:1028980091FA2046FFF77AFF002010BD640000205F
:1028A800F81600207D260008F0B5C3B007460E468E
:1028B800334B3EAC0FCB07C4238033AC314D0FCD27
:1028C8000FC40FCD0FC495E8070084E807002E4B0E
:1028D8002FAC0FCB84E80F0047222C4909A800F041
:1028E800ABFF4F2200210DF16B0000F0B0FF6C46EA
:1028F800274D0FCD0FC40FCD0FC42B6823600023C5
:1029080008E003F14602F95C42A8024402F8E41C1C
:1029180001339BB2B342F4D3694609A800F09FFF84
:102928001C4BD96911B9012043B0F0BD1A48FFF713
:1029380041FA3EA8FFF7A0FF4FF47A70FEF758FD62
:1029480033A8FFF799FF4FF47A70FEF751FD2FA8CF
:10295800FFF792FF4FF47A70FEF74AFD0F4C012300
:10296800237009A8FFF788FF002020700C490B8806
:10297800013B0C4AD0540B88023BD054D4E700BF2B
:102988008848000898480008D448000864470008A8
:10299800E4480008F81600207D2600081A170020D1
:1029A80018170020D80E002070B5B4B006462E4B7C
:1029B80030AC0FCB07C4238025AC2C4D0FCD0FC4F2
:1029C8000FCD0FC495E8070084E80700284B21AC19
:1029D8000FCB84E80F007E22264901A800F02CFFC7
:1029E8004FF400620021244800F031FF0023234AFD
:1029F8001380234A1370234BD96911B9012034B0CD
:102A080070BD2148FFF7D6F930A8FFF735FF4FF41E
:102A18007A70FEF7EDFC25A8FFF72EFF4FF47A70C9
:102A2800FEF7E6FC21A8FFF727FF4FF47A70FEF7C0
:102A3800DFFC164C0123237001A8FFF71DFF0023BC
:102A480023700E480288013A0B498B540288023AD7
:102A58008B54094AD15CF15401339BB2D25C002AF1
:102A6800F7D10020CBE700BF884800089848000845
:102A7800D448000808480008D80E0020181700207D
:102A88001D170020F81600207D2600081A170020C0
:102A980010B58CB0FFF70EFB4FF48030FFF704FA47
:102AA8000120FFF71DFA6FF48060FFF763FA2248F0
:102AB800FFF73AFA2148FFF737FA2148FFF734FAC7
:102AC8002048FFF731FA204C6FF4806306936FF4C7
:102AD800405305934FF4E133049304F110030FCBF3
:102AE8008DE80F0094E80F00FFF728F9174C04F160
:102AF80010030FCB8DE80F0094E80F00FFF774FE6A
:102B0800134B099308238DF82B300C23ADF828308C
:102B180000248DF82A4009A8FFF71EF8012109A80A
:102B2800FFF75EF80DF12F0109A8FFF776F8FEF719
:102B380043FB20460CB010BD080000101000001028
:102B480040000020100000202447000844470008E7
:102B5800000C014081F0004102E000BF83F0004317
:102B680030B54FEA41044FEA430594EA050F08BF20
:102B780090EA020F1FBF54EA000C55EA020C7FEAE4
:102B8800645C7FEA655C00F0E2804FEA5454D4EB61
:102B98005555B8BF6D420CDD2C4480EA020281EA2B
:102BA800030382EA000083EA010180EA020281EA63
:102BB8000303362D88BF30BD11F0004F4FEA0131B5
:102BC8004FF4801C4CEA113102D0404261EB4101C4
:102BD80013F0004F4FEA03334CEA133302D052424A
:102BE80063EB430394EA050F00F0A780A4F1010406
:102BF800D5F1200E0DDB02FA0EFC22FA05F2801840
:102C080041F1000103FA0EF2801843FA05F3594125
:102C18000EE0A5F120050EF1200E012A03FA0EFCA4
:102C280028BF4CF0020C43FA05F3C01851EBE371CE
:102C380001F0004507D54FF0000EDCF1000C7EEBEB
:102C480000006EEB0101B1F5801F1BD3B1F5001F29
:102C58000CD349085FEA30004FEA3C0C04F1010448
:102C68004FEA445212F5800F80F09A80BCF1004F71
:102C780008BF5FEA500C50F1000041EB045141EAF3
:102C8800050130BD5FEA4C0C404141EB010111F4F4
:102C9800801FA4F10104E9D191F0000F04BF01469F
:102CA8000020B1FA81F308BF2033A3F10B03B3F17D
:102CB80020020CDA0C3208DD02F1140CC2F10C020D
:102CC80001FA0CF021FA02F10CE002F11402D8BF6B
:102CD800C2F1200C01FA02F120FA0CFCDCBF41EA37
:102CE8000C019040E41AA2BF01EB0451294330BD06
:102CF8006FEA04041F3C1CDA0C340EDC04F11404E3
:102D0800C4F1200220FA04F001FA02F340EA0300B9
:102D180021FA04F345EA030130BDC4F10C04C4F1FF
:102D2800200220FA02F001FA04F340EA03002946DF
:102D380030BD21FA04F0294630BD94F0000F83F429
:102D4800801306BF81F480110134013D4EE77FEA0C
:102D5800645C18BF7FEA655C29D094EA050F08BF58
:102D680090EA020F05D054EA000C04BF1946104639
:102D780030BD91EA030F1EBF0021002030BD5FEA7D
:102D8800545C05D14000494128BF41F0004130BDA5
:102D980014F580043CBF01F5801130BD01F00045F9
:102DA80045F0FE4141F470014FF0000030BD7FEA6C
:102DB800645C1ABF194610467FEA655C1CBF0B4667
:102DC800024650EA013406BF52EA033591EA030F7E
:102DD80041F4002130BD00BF90F0000F04BF002176
:102DE800704730B54FF4806404F132044FF00005A9
:102DF8004FF0000150E700BF90F0000F04BF002122
:102E0800704730B54FF4806404F1320410F0004587
:102E180048BF40424FF000013EE700BF42004FEA82
:102E2800E2014FEA31014FEA02701FBF12F07F43FF
:102E380093F07F4F81F06051704732F07F4208BFB6
:102E4800704793F07F4F04BF41F40021704730B5BD
:102E58004FF4607401F0004521F000411CE700BF09
:102E680050EA010208BF704730B54FF000050AE08C
:102E780050EA010208BF704730B511F0004502D58D
:102E8800404261EB41014FF4806404F132045FEA8F
:102E9800915C3FF4D8AE4FF003025FEADC0C18BF38
:102EA80003325FEADC0C18BF033202EBDC02C2F12A
:102EB800200300FA03FC20FA02F001FA03FE40EABC
:102EC8000E0021FA02F11444BDE600BF70B54FF0C0
:102ED800FF0C4CF4E06C1CEA11541DBF1CEA13559E
:102EE80094EA0C0F95EA0C0F00F0DEF82C4481EA06
:102EF800030621EA4C5123EA4C5350EA013518BF26
:102F080052EA033541F4801143F4801338D0A0FB12
:102F180002CE4FF00005E1FB02E506F00042E0FBBF
:102F280003E54FF00006E1FB03569CF0000F18BFC5
:102F38004EF0010EA4F1FF04B6F5007F64F540746D
:102F480004D25FEA4E0E6D4146EB060642EAC62100
:102F580041EA55514FEAC52040EA5E504FEACE2E6D
:102F6800B4F1FD0C88BFBCF5E06F1ED8BEF1004F70
:102F780008BF5FEA500E50F1000041EB045170BDEC
:102F880006F0004646EA010140EA020081EA030130
:102F9800B4EB5C04C2BFD4EB0C0541EA045170BD2C
:102FA80041F480114FF0000E013C00F3AB8014F1A6
:102FB800360FDEBF002001F0004170BDC4F10004EF
:102FC800203C35DA0C341BDC04F11404C4F1200570
:102FD80000FA05F320FA04F001FA05F240EA0200CB
:102FE80001F0004221F0004110EBD37021FA04F601
:102FF80042EB06015EEA430E08BF20EAD37070BDBB
:10300800C4F10C04C4F1200500FA04F320FA05F019
:1030180001FA04F240EA020001F0004110EBD3701B
:1030280041F100015EEA430E08BF20EAD37070BD8B
:10303800C4F1200500FA05F24EEA020E20FA04F364
:1030480001FA05F243EA020321FA04F001F0004113
:1030580021FA04F220EA020000EBD3705EEA430E84
:1030680008BF20EAD37070BD94F0000F0FD101F0B3
:103078000046400041EB010111F4801F08BF013CEC
:10308800F7D041EA060195F0000F18BF704703F02A
:103098000046520043EB030313F4801F08BF013DB1
:1030A800F7D043EA0603704794EA0C0F0CEA13556D
:1030B80018BF95EA0C0F0CD050EA410618BF52EA27
:1030C8004306D1D181EA030101F000414FF000002D
:1030D80070BD50EA410606BF1046194652EA43063B
:1030E80019D094EA0C0F02D150EA013613D195EAAF
:1030F8000C0F05D152EA03361CBF104619460AD1F7
:1031080081EA030101F0004141F0FE4141F4700100
:103118004FF0000070BD41F0FE4141F4780170BDF0
:1031280070B54FF0FF0C4CF4E06C1CEA11541DBF55
:103138001CEA135594EA0C0F95EA0C0F00F0A7F857
:10314800A4EB050481EA030E52EA03354FEA013184
:1031580000F088804FEA03334FF0805545EA131397
:1031680043EA12634FEA022245EA111545EA10655F
:103178004FEA00260EF000419D4208BF964244F1F6
:10318800FD0404F5407402D25B084FEA3202B61A15
:1031980065EB03055B084FEA32024FF480104FF4E9
:1031A800002CB6EB020E75EB030E22BFB61A75465D
:1031B80040EA0C005B084FEA3202B6EB020E75EBF0
:1031C800030E22BFB61A754640EA5C005B084FEA58
:1031D8003202B6EB020E75EB030E22BFB61A754625
:1031E80040EA9C005B084FEA3202B6EB020E75EB30
:1031F800030E22BFB61A754640EADC0055EA060EF1
:1032080018D04FEA051545EA16754FEA06164FEA33
:10321800C30343EA52734FEAC2025FEA1C1CC0D1DF
:1032280011F4801F0BD141EA00014FF000004FF06C
:10323800004CB6E711F4801F04BF01430020B4F12D
:10324800FD0C88BFBCF5E06F3FF6AFAEB5EB030CE5
:1032580004BFB6EB020C5FEA500C50F1000041EBE2
:10326800045170BD0EF0004E4EEA113114EB5C04AF
:10327800C2BFD4EB0C0541EA045170BD41F4801182
:103288004FF0000E013C90E645EA060E8DE60CEA8A
:10329800135594EA0C0F08BF95EA0C0F3FF43BAFA7
:1032A80094EA0C0F0AD150EA01347FF434AF95EA5E
:1032B8000C0F7FF425AF104619462CE795EA0C0F42
:1032C80006D152EA03353FF4FDAE1046194622E70F
:1032D80050EA410618BF52EA43067FF4C5AE50EAE9
:1032E80041047FF40DAF52EA43057FF4EBAE12E7D9
:1032F8004A0011D212F5001211D20DD56FF478736D
:10330800B3EB62520ED44FEAC12343F0004343EAC1
:10331800505323FA02F070474FF00000704750EA0C
:10332800013002D14FF0FF3070474FF00000704776
:1033380080F0004002E000BF81F0004142001FBF62
:103348005FEA410392EA030F7FEA226C7FEA236C6B
:103358006AD04FEA1262D2EB1363C1BFD218414060
:1033680048404140B8BF5B42192B88BF704710F0F6
:10337800004F40F4000020F07F4018BF404211F099
:10338800004F41F4000121F07F4118BF494292EA01
:10339800030F3FD0A2F1010241FA03FC10EB0C002D
:1033A800C3F1200301FA03F100F0004302D54942BA
:1033B80060EB4000B0F5000F13D3B0F1807F06D367
:1033C80040084FEA310102F10102FE2A51D2B1F15F
:1033D800004F40EBC25008BF20F0010040EA030054
:1033E8007047490040EB000010F4000FA2F1010201
:1033F800EDD1B0FA80FCACF1080CB2EB0C0200FA8B
:103408000CF0AABF00EBC25052421843BCBFD040D8
:103418001843704792F0000F81F4000106BF80F452
:1034280000000132013BB5E74FEA41037FEA226C15
:1034380018BF7FEA236C21D092EA030F04D092F0E0
:10344800000F08BF0846704790EA010F1CBF002014
:10345800704712F07F4F04D1400028BF40F0004071
:10346800704712F100723CBF00F50000704700F091
:10347800004343F0FE4040F4000070477FEA2262B8
:1034880016BF08467FEA23630146420206BF5FEA89
:10349800412390EA010F40F4800070474FF0000389
:1034A80004E000BF10F0004348BF40425FEA000C50
:1034B80008BF704743F0964301464FF000001CE0F8
:1034C80050EA010208BF70474FF000030AE000BF4E
:1034D80050EA010208BF704711F0004302D540428C
:1034E80061EB41015FEA010C02BF844601460020FE
:1034F80043F0B64308BFA3F18053A3F50003BCFA19
:103508008CF2083AA3EBC25310DB01FA02FC6344C5
:1035180000FA02FCC2F12002BCF1004F20FA02F2CC
:1035280043EB020008BF20F00100704702F12002BF
:1035380001FA02FCC2F1200250EA4C0021FA02F220
:1035480043EB020008BF20EADC7070474FF0FF0C25
:103558001CEAD0521EBF1CEAD15392EA0C0F93EA20
:103568000C0F6FD01A4480EA010C400218BF5FEAC2
:1035780041211ED04FF0006343EA501043EA511135
:10358800A0FB01310CF00040B1F5000F3EBF49002F
:1035980041EAD3715B0040EA010062F17F02FD2A33
:1035A8001DD8B3F1004F40EBC25008BF20F0010016
:1035B800704790F0000F0CF0004C08BF49024CEA2D
:1035C800502040EA51207F3AC2BFD2F1FF0340EABF
:1035D800C250704740F400004FF00003013A5DDC30
:1035E80012F1190FDCBF00F000407047C2F1000271
:1035F800410021FA02F1C2F1200200FA02FC5FEA5E
:10360800310040F1000053EA4C0308BF20EADC70A7
:10361800704792F0000F00F0004C02BF400010F419
:10362800000F013AF9D040EA0C0093F0000F01F0C6
:10363800004C02BF490011F4000F013BF9D041EAE8
:103648000C018FE70CEAD15392EA0C0F18BF93EAEA
:103658000C0F0AD030F0004C18BF31F0004CD8D114
:1036680080EA010000F00040704790F0000F17BF9B
:1036780090F0004F084691F0000F91F0004F14D0E1
:1036880092EA0C0F01D142020FD193EA0C0F03D139
:103698004B0218BF084608D180EA010000F000403C
:1036A80040F0FE4040F40000704740F0FE4040F417
:1036B800400070474FF0FF0C1CEAD0521EBF1CEAB6
:1036C800D15392EA0C0F93EA0C0F69D0A2EB0302D4
:1036D80080EA010C49024FEA402037D04FF080536E
:1036E80043EA111143EA10130CF000408B4238BF33
:1036F8005B0042F17D024FF4000C8B4224BF5B1A41
:1037080040EA0C00B3EB510F24BFA3EB510340EA8E
:103718005C00B3EB910F24BFA3EB910340EA9C003C
:10372800B3EBD10F24BFA3EBD10340EADC001B01AC
:1037380018BF5FEA1C1CE0D1FD2A3FF650AF8B4250
:1037480040EBC25008BF20F0010070470CF0004C5D
:103758004CEA50207F32C2BFD2F1FF0340EAC25088
:10376800704740F400004FF00003013A37E792F049
:10377800000F00F0004C02BF400010F4000F013AA7
:10378800F9D040EA0C0093F0000F01F0004C02BFA2
:10379800490011F4000F013BF9D041EA0C0195E70B
:1037A8000CEAD15392EA0C0F08D142027FF47DAFA4
:1037B80093EA0C0F7FF470AF084676E793EA0C0F94
:1037C80004D14B023FF44CAF08466EE730F0004C92
:1037D80018BF31F0004CCAD130F000427FF45CAF22
:1037E80031F000437FF43CAF5FE700BF42000ED2E8
:1037F800B2F1FE4F0BD34FF09E03B3EB126209D424
:103808004FEA002343F0004323FA02F070474FF0D9
:103818000000704712F1610F01D1420202D14FF04E
:10382800FF3070474FF00000704700BF014B186829
:10383800704700BF6800002010B5431E0A4491423B
:1038480000D110BD11F8014B03F8014FF7E703460B
:103858000244934200D1704703F8011BF9E703467D
:1038680010B51A785C1C3AB9013B11F8012B03F822
:10387800012F002AF9D110BD2346F2E7034613F8B9
:10388800012B002AFBD1181A0138704730B5141ED5
:1038980005469BB0184605DA8B234FF0FF302B60A6
:1038A8001BB030BD4FF40273ADF80C300CBF23468B
:1038B80004F1FF33029305934FF6FF7300910491CF
:1038C800ADF80E3002461E9B6946284600F072F895
:1038D800431CBCBF8B232B60002CE1D00022009B33
:1038E8001A70DDE707B5009313460A4601460348F8
:1038F8000068FFF7CBFF03B05DF804FB6800002009
:103908002DE9F0478E6882469E420C4690469946BD
:1039180037D88A8912F4906F31D002232568096953
:103928006F1A656905EB450595FBF3F509F1010388
:103938003B449D4238BF1D46530530D5294600F00B
:103948002BFB064650B90C234FF0FF30CAF8003065
:10395800A38943F04003A381BDE8F0873A46216973
:10396800FFF76AFFA38923F4906343F08003A381E0
:1039780026613E4426604E466561ED1BA5604E45B6
:1039880000D94E4632464146206800F09FFAA368A7
:1039980000209B1BA36023681E442660DCE72A46A0
:1039A80000F054FB06460028E2D12169504600F099
:1039B800A7FAC8E72DE9F04F9DB003938B8980469D
:1039C8001D060C4616460FD50B696BB9402100F051
:1039D800E3FA2060206128B90C23C8F800304FF0C2
:1039E800FF30C7E0402363610023099320238DF84B
:1039F800293030234FF0010B8DF82A3037463D46E9
:103A080015F8013B0BB1252B3ED1B7EB060A0BD0BD
:103A18005346324621464046FFF772FF013000F018
:103A2800A480099B534409933B78002B00F09D80A8
:103A380000234FF0FF32CDE90523049307938DF857
:103A480053301A932F46052217F8011B4F4800F0F0
:103A58002FFA049BD0B9D90644BF20228DF85320F1
:103A68001A0744BF2B228DF853202A782A2A15D00A
:103A78002F4600200A25079A394611F8013B303BAA
:103A8800092B4DD9B8B10FE02F46B8E73F4A3D465C
:103A9800801A0BFA00F018430490D3E7039A111D1B
:103AA80012680391002A01DB079204E0524243F0B6
:103AB8000203079204933B782E2B0CD17B782A2B98
:103AC80033D1039B02371A1D1B680392002BB8BF22
:103AD8004FF0FF3305932E4D03223978284600F026
:103AE800E7F938B14023401B03FA00F0049B013783
:103AF800034304933978062226487E1C8DF8281043
:103B080000F0D6F9002838D0234B13BB039B0733AA
:103B180023F0070308330393099B4B4409936DE78C
:103B280005FB023201200F46A6E700230A251946A5
:103B380001370593384610F8012B303A092A03D982
:103B4800002BC8D00591C6E705FB012101230746D4
:103B5800F0E703AB00932246104B04A94046AFF3AD
:103B68000080B0F1FF3F8146D6D1A3895B063FF5BF
:103B780036AF09981DB0BDE8F08F03AB009322461D
:103B8800064B04A9404600F081F8EAE70849000816
:103B98000E49000812490008000000000939000811
:103BA8002DE9F04791461F468A680B6906469342FD
:103BB800B8BF1346C9F8003091F843200C46DDF829
:103BC800208012B10133C9F800302368990642BF3A
:103BD800D9F800300233C9F80030256815F0060519
:103BE80007D104F1190AE368D9F800209B1AAB42FF
:103BF80029DC94F843302268003318BF0123920669
:103C08002ED404F1430239463046C047013021D052
:103C18002368E56803F00603042B18BF0025D9F8CC
:103C280000204FF0000908BFAD1AA368226908BF39
:103C380025EAE5759342C4BF9B1AED181A344D4521
:103C48001AD1002008E00123524639463046C047C1
:103C5800013003D14FF0FF30BDE8F0870135C2E7EE
:103C68003020E11881F843005A1C94F8451022448A
:103C7800023382F84310C4E701232246394630460E
:103C8800C0470130E6D009F10109D8E72DE9F04332
:103C980001F1430C0C46097E85B06E29174606468D
:103CA80098460C9A00F0B38022D8632936D00AD8F7
:103CB800002900F0B980582900F0838004F14205FA
:103CC80084F8421032E0642901D06929F6D12068CD
:103CD8001368050603F104012AD51B681160002B3F
:103CE80003DA2D225B4284F843206F480A2239E028
:103CF800732900F09D8008D86F2920D07029DDD164
:103D0800236843F02003236003E0752917D078293E
:103D1800D4D17823654884F8453055E0136804F118
:103D28004205191D1B68116084F8423001238CE09C
:103D38001B6810F0400F116018BF1BB2CFE7136863
:103D48002568181D1060280601D51B6802E0680662
:103D5800FBD51B886F2914BF0A220822524800216C
:103D680084F843106568002DA560C0F2958021682D
:103D780021F004012160002B3DD1002D40F08E8000
:103D88006546082A0BD12368DB0708D523696268D2
:103D98009A42DEBF302305F8013C05F1FF35ACEB54
:103DA80005032361CDF800803B4603AA214630462F
:103DB800FFF7F6FE01304DD14FF0FF3005B0BDE8FA
:103DC800F083394884F84510136821681D1D1B6865
:103DD80015600A060BD5CA0744BF41F020012160CF
:103DE8001BB9226822F0200222601022B7E74D0694
:103DF80048BF9BB2EFE76546B3FBF2F102FB113314
:103E0800C35C05F8013D0B460029F5D1B9E71368F5
:103E18002568181D6169106028061B6801D519609E
:103E280002E06A06FBD51980002365462361B9E7DD
:103E38001368191D11601D6862680021284600F08A
:103E480037F808B1401B606063682361002384F879
:103E58004330A7E723692A4639463046C047013030
:103E6800AAD023689B0713D4E068039B9842B8BF85
:103E78001846A3E701234A4639463046C047013071
:103E88009AD00135E368039A9B1AAB42F2DCEBE760
:103E9800002504F11909F5E7002BACD1037804F1EA
:103EA800420584F842306CE7194900082A4900089D
:103EB80010B5C9B202449042034601D1002303E081
:103EC8001C7801308C42F6D1184610BD884210B5D6
:103ED80001EB020307D8421E99420AD011F8014BA0
:103EE80002F8014FF8E78342F5D98118D21AD34274
:103EF80000D110BD13F8014D01F8014DF7E700009E
:103F080038B50546002943D051F8043C0C1F002B56
:103F1800B8BFE41800F0D0F81E4A1368104633B949
:103F2800636014602846BDE8384000F0C6B8A34274
:103F38000BD921686218934201BF1A685B6852184E
:103F4800226063600460EDE713465A680AB1A24232
:103F5800FAD919685818A0420BD12068014458189A
:103F680082421960DED110685268014419605A60B3
:103F7800D8E702D90C232B60D4E7206821188A429D
:103F880001BF116852680918216062605C60C9E766
:103F980038BD00BF2017002070B5CD1C25F00305E3
:103FA80008350C2D38BF0C25002D064601DBA9422B
:103FB80003D90C233360002070BD00F07DF8214A3E
:103FC8001468214691B9204C23681BB9304600F08B
:103FD80063F820602946304600F05EF8431C24D17F
:103FE8000C233046336000F068F8E4E70B685B1B8D
:103FF80018D40B2B0FD90B60CC18CD50304600F0DD
:104008005CF804F10B00231D20F00700C31AD3D07D
:104018005A42E250D0E74B688C4216BF6360136087
:104028000C46EBE70C464968CCE7C41C24F00304B3
:10403800A04205D0211A304600F02EF80130CFD02A
:104048002560DBE72017002024170020F8B5074675
:1040580014460E4621B9BDE8F8401146FFF79CBF4B
:1040680022B9FFF74DFF25462846F8BD00F026F88F
:10407800A0420FD221463846FFF78EFF054600289A
:10408800F2D031462246FFF7D7FB31463846FFF7D4
:1040980037FFE9E73546E7E738B50023054C05461D
:1040A80008462360FCF766F9431C02D1236803B174
:1040B8002B6038BD281700207047704751F8043C22
:1040C800181F002BBCBF0B58C0187047537461638E
:1040D8006B206672616D653A0A000000205230203C
:1040E8003D2020253038580A000000002052312099
:1040F8003D2020253038580A000000002052322088
:104108003D2020253038580A000000002052332076
:104118003D2020253038580A000000002052313256
:10412800203D20253038580A00000000204C52203D
:104138003D2020253038580A000000002050432038
:104148003D2020253038580A0000000020505352E6
:10415800203D20253038580A000000004653522FD1
:104168004641523A0A0000002043465352203D205F
:1041780020253038580A00002048465352203D2058
:1041880020253038580A00002044465352203D204C
:1041980020253038580A00002041465352203D203F
:1041A80020253038580A0000204D4D464152203D08
:1041B80020253038580A00002042464152203D2030
:1041C80020253038580A00004D6973630A00000042
:1041D800204C522F4558435F52455455524E3D206E
:1041E800253038580A0000005B48617264466175E2
:1041F8006C745D0A000000005B4275734661756C63
:10420800745D0A005B55736167654661756C745D22
:104218000A000000424C5F44454255475F4D5347F2
:104228003A20626F6F746C6F616465725F68616E6B
:10423800646C655F6469735F726561645F70726FF7
:10424800746563745F636D64200D0A00424C5F44BB
:10425800454255475F4D53473A20626F6F746C6F04
:10426800616465725F68616E646C655F6469735FE1
:1042780077726974655F70726F746563745F636D7C
:1042880064200D0A00000000424C5F444542554737
:104298005F4D53473A20626F6F746C6F616465724B
:1042A8005F68616E646C655F656E5F726561645FAF
:1042B80070726F746563745F636D64200D0A00002B
:1042C800424C5F44454255475F4D53473A20626F21
:1042D8006F746C6F616465725F68616E646C655F52
:1042E800656E5F77726974655F70726F7465637409
:1042F8005F636D64200D0A002D2D2D2D2D2D2D2D84
:104308002D2D2D2D2D2D2D2D2D2D2D2D2D2D2D2DD5
:104318002D2D2D2D2D2D2D2D2D2D2D2D2D2D2D2DC5
:104328002D2D2D2D2D2D2D2D0D0A0000424C5F44D5
:10433800454255475F4D53473A20626F6F746C6F23
:10434800616465725F68616E646C655F666C6173F9
:10435800685F65726173655F636D64200D0A0000B4
:10436800424C5F44454255475F4D53473A20626F80
:104378006F746C6F616465725F68616E646C655FB1
:10438800666C6173685F6D6173735F657261736595
:104398005F636D64200D0A00446576696365204992
:1043A800443A2020202523780D0A000052657669BA
:1043B80073696F6E2049443A202523780D0A00005E
:1043C800424C5F44454255475F4D53473A20626F20
:1043D8006F746C6F616465725F68616E646C655F51
:1043E80067657468656C705F636D64200D0A000012
:1043F800424C5F44454255475F4D53473A206368F6
:1044080065636B73756D20737563636573732021C2
:1044180021200D0A00000000424C5F4445425547E8
:104428005F4D53473A20636865636B73756D20660B
:1044380061696C202121200D0A000000424C5F4474
:10444800454255475F4D53473A20626F6F746C6F12
:10445800616465725F68616E646C655F67657472DC
:1044680064705F636D64200D0A000000424C5F4475
:10447800454255475F4D53473A20626F6F746C6FE2
:10448800616465725F68616E646C655F67657476A8
:1044980065725F636D64200D0A000000424C5F4442
:1044A800454255475F4D53473A20424C5F56455267
:1044B800203A2030782578200D0A0000424C5F44CD
:1044C800454255475F4D53473A20626F6F746C6F92
:1044D800616465725F68616E646C655F676F746F55
:1044E8005F616464726573735F636D64200D0A00B5
:1044F800424C5F44454255475F4D53473A20474F2A
:1045080020616464723A2030782530327825303260
:104518007825303278253032780D0A00424C5F44D5
:10452800454255475F4D53473A206A756D70696E2D
:104538006720746F20676F206164647265737321EC
:10454800200A0000424C5F44454255475F4D53479F
:104558003A474F206164647220696E76616C6964C1
:104568002021200A000000002D2D2D2D2D2D2D2D70
:104578002D2D2D2D2D2D2D2D2D2D2D2D2D2D2D2D63
:104588002D2D2D2D2D2D2D2D2D2D2D2D2D2D2D2D53
:104598002D2D2D2D2D2D2D2D0D0A424C5F444542DC
:1045A80055475F4D53473A20626F6F746C6F616473
:1045B80065725F68616E646C655F6D656D5F77726B
:1045C8006974655F636D64200D0A0000424C5F44A6
:1045D800454255475F4D53473A2064657374696E89
:1045E8006174696F6E20616464726573733A203018
:1045F80078253032782530327825303278253032B7
:10460800780D0A00424C5F44454255475F4D534779
:104618003A20626F6F746C6F616465725F68616E77
:10462800646C655F726561645F736563746F7273F0
:104638005F7374617475735F636D64200D0A0000A5
:10464800424C5F44454255475F4D53473A20626F9D
:104658006F746C6F616465725F68616E646C655FCE
:1046680073797374656D5F72657365745F636D6488
:10467800200D0A0053656E64696E6720424C5F41E5
:10468800434B3A20307825780D0A00007265706C2B
:1046980079206C656E6774683D20256420627974A2
:1046A80065730D0A00000000424C5F4445425547BF
:1046B8005F4D53473A20427574746F6E20697320BA
:1046C80070726573736564202E2E20676F696E673C
:1046D80020746F20424C206D6F64650D0A00000045
:1046E800424C5F44454255475F4D53473A20496E17
:1046F80076616C696420636F6D6D616E6420636FB1
:1047080064652072656365697665642066726F6D9D
:1047180020686F7374200D0A000000000008014033
:1047280009000308000801400A00000804000010FE
:10473800004000102500000000380140000801403A
:1047480002000308000801400300000804000010EC
:10475800000002C0260000000044004047455420E5
:1047680068747470733A2F2F6170692E7468696E5B
:1047780067737065616B2E636F6D2F7570646174FC
:10478800653F6170695F6B65793D314836314E34FC
:104798003643455A4136354D544A266669656C6438
:1047A800313D000000000000000000000000000093
:1047B80000000000000000000000000000000000F1
:1047C80000000000000000000000000000000000E1
:1047D80000000000000000000000000000000000D1
:1047E80000000000000000000000000000000000C1
:1047F8000000000041542B5253540D0A00000000E1
:104808004745542068747470733A2F2F6170692E6D
:104818007468696E67737065616B2E636F6D2F6363
:1048280068616E6E656C732F313038323539342FCC
:104838006669656C64732F312F6C6173742E74789C
:10484800743F6170695F6B65793D474C334D374AFA
:10485800414B34384252385252410D0A486F7374F2
:104868003A6170692E7468696E67737065616B2E42
:10487800636F6D0D0A0D0A0D0A0D0A0D0A0000007E
:1048880041542B4349504D55583D300D0A00000006
:1048980041542B43495053544152543D22544350A0
:1048A800222C226170692E7468696E677370656165
:1048B8006B2E636F6D222C38300D0A0041542B4348
:1048C800495053454E443D39300D0A0041542B435D
:1048D800495053454E443D39390D0A000D0A486F79
:1048E80073743A6170692E7468696E677370656174
:1048F8006B2E636F6D0D0A0D0A0D0A0D0A0D0A0065
:10490800232D302B2000686C4C00656667454647B0
:104918000030313233343536373839414243444533
:1049280046003031323334353637383961626364A2
:03493800656600B1
:10493C0078563412D800002000000000000000005F
:10494C0000000000010203040607080900A24A0443
:10495C0051525355565B57595F60585C545A5D5EC3
:10496C0000127A00000000000000030000000000AC
:10497C000000030000000000000003000000000025
:10498C000000030000000000000003000000000015
:10499C000000030001FFFFFF6C000020000000007E
:1049AC0000000000000000000000000000000000FB
:1049BC0000000000000000000000000000000000EB
:1049CC0000000000000000000000000000000000DB
:1049DC0000000000000000000000000000000000CB
:1049EC0000000000000000000000000000000000BB
:1049FC000000000000000000000000003254769817
:040000050800010DE1
:00000001FF
