:020000040800F2
:100000000050002021020008270200082B020008EF
:100010009D020008A1020008E9020008000000009B
:100020000000000000000000000000003103000894
:100030003503000800000000390300083D030008F4
:100040004D0300084D0300084D0300084D03000850
:100050004D0300084D0300084D0300084D03000840
:100060004D0300084D0300084D0300084D03000830
:100070004D0300084D0300084D0300084D03000820
:100080004D0300084D0300084D0300084D03000810
:100090004D0300084D0300084D0300084D03000800
:1000A0004D0300084D0300084D0300084D030008F0
:1000B0004D0300084D0300084D0300084D030008E0
:1000C0004D0300084D0300084D0300084D030008D0
:1000D0004D0300087523000835240008F5240008A6
:1000E0004D0300084D0300084D0300080000000008
:1000F0000000000000000000000000000000000000
:1001000000000000000000005FF808F100B583B0B7
:1001100000F0AAF9304B314A1360314A1360314B79
:10012000314A32498B4204D21168196004330432D7
:10013000F7E72A4B1A682E4B9A4200D0FEE7284B6D
:100140001A682C4B9A42F9D1234B2B4A13602B4A45
:1001500013602B4B02E000221A600433294A9342B9
:10016000F9D3254B1B6813B9244B1B6803B1FEE779
:1001700000F086F9694601A800F022F9224C234BD1
:10018000E41AA4100025AC4214DC214C214BE41AE3
:10019000A4100025AC4213DC0099019802F058FC31
:1001A00005461D4C1D4BE41AA410002C0EDC2846FD
:1001B00000F0E2F8154B53F8253098470135E2E797
:1001C000144B53F8253098470135E3E7013C134BB6
:1001D00053F824309847E8E7BABADECA0000002096
:1001E000D000002000000020D04B0008D4000020E8
:1001F0007856341232547698D400002050160020DD
:10020000D40000205416002078030008780300086A
:1002100078030008780300087803000878030008D2
:1002200008B5FFF773FF00BEFEE71EF0040F0CBF1A
:10023000EFF30880EFF309807146414A10472DE93A
:10024000F04182B004468846124B5E6B9F6B9D6AFC
:100250001B6B13F0020F03D00E4BDB6A002B0CDB81
:100260000D4800F0B5F8CDF800803B4632462946EF
:10027000204600F009F900BEFEE74BF6AB6100F046
:100280007DF90028ECD0034B4FF00042DA6202B057
:10029000BDE8F08100ED00E0F841000800BEFEE797
:1002A0001EF0040F0CBFEFF30880EFF309807146D6
:1002B000244A10472DE9F04182B004468846084B95
:1002C0005E6B9F6B9D6A074800F082F8CDF8008056
:1002D0003B4632462946204600F0D6F800BEFEE7EF
:1002E00000ED00E0084200081EF0040F0CBFEFF321
:1002F0000880EFF309807146134A10472DE9F04159
:1003000082B004468846084B5E6B9F6B9D6A074827
:1003100000F05EF8CDF800803B4632462946204684
:1003200000F0B2F800BEFEE700ED00E01442000865
:1003300000BEFEE700BEFEE700BEFEE7704700001D
:100340003F020008B5020008FD02000800BEFEE7FB
:10035000D04B000800000020D4000020D04B000843
:100360000000000000000000D4000020541600200F
:08037000000000000000000085
:10037800FEE7000008B503460C4A12685AB10B4A5A
:100388001068033323F003030344094A934206D851
:10039800064A136008BD054A06491160EFE703F0F5
:1003A80027FA0C2303604FF0FF30F3E7D800002052
:1003B800004C00205416002001230360014B0B6001
:1003C800704700BF040000200FB400B583B004AB31
:1003D80053F8042B01938021064803F087FA00287C
:1003E80003DD0146034800F037F803B05DF804EB7D
:1003F80004B07047E00000202DE9F04385B00446C2
:100408000F4643560BB10E461EE0042528462146EA
:10041800ABBE0446384605B0BDE8F08314F9011BAD
:1004280004AA1A4402F8101C0133AB42F6D304AAFA
:100438001344002203F8102C4FF00408E946404604
:100448004946ABBE8046761B002EE3D03546102EBB
:1004580028BF10250023E8E708B5FFF7CDFF08BD42
:1004680008B500F0FDF8024A024B9A6008BD00BFCB
:100478000000000800ED00E008B500F019F908BD1B
:10048800F8B504460D4617461E462748FFF79CFF59
:1004980021682648FFF798FF61682548FFF794FF11
:1004A800A1682448FFF790FFE1682348FFF78CFF15
:1004B80021692248FFF788FF61692148FFF784FF17
:1004C800A1692048FFF780FFE1691F48FFF77CFF1B
:1004D8001E48FFF779FF29461D48FFF775FF1D4C99
:1004E800E16A1D48FFF770FF216B1C48FFF76CFF9E
:1004F800E16B1B48FFF768FF15F0800F0AD115F470
:10050800004F0CD11748FFF75FFF06991648FFF711
:100518005BFFF8BD39461548FFF756FFEFE7314650
:100528001348FFF751FFEDE7DC400008EC400008F6
:10053800FC4000080C4100081C4100082C41000840
:100548003C4100084C4100085C4100086C4100082F
:100558007841000800ED00E0884100089841000853
:10056800A8410008D8410008E0410008B841000847
:10057800C841000883691A888A4201D00020704760
:100588000268033A012A03D80233836101207047C5
:100598000020704782B00023019300932C4A13680F
:1005A80043F4803313602A4B1B6803F40033009331
:1005B800019B01330193009B1BB9019BB3F5A06F0D
:1005C800F1D1234B1B6813F4003F06D0012300939D
:1005D800009B012B04D002B0704700230093F7E77B
:1005E8001C4B1A6842F010021A601A6822F00302C3
:1005F8001A601A6842F002021A60A3F580535A681A
:100608005A605A685A605A6842F480625A605A6856
:1006180022F47C125A605A6842F4E8125A601A6846
:1006280042F080721A600A4B1B6813F0007FFAD000
:10063800074B5A6822F003025A605A6842F00202D5
:100648005A60034B5B6803F00C03082BF9D1C2E72F
:10065800001002400020024008B5FFF79BFF08BDCC
:1006680008B5104B1A6842F001021A6059680E4A20
:100678000A405A601A6822F0847222F480321A60A2
:100688001A6822F480221A605A6822F4FE025A601C
:100698004FF41F029A60FFF7DFFF044B4FF0006230
:1006A8009A6008BD001002400000FFF800ED00E06D
:1006B8001F4B5B6803F00C03042B15D0082B17D0D5
:1006C8001BB11C4B1C4A1A6002E01A4B1A4A1A60EA
:1006D800174B5B68C3F30313184AD35CDAB21549A6
:1006E8000B68D3400B607047124B134A1A60EFE750
:1006F8000F4A53685268C3F38343023312F4803FAE
:100708000AD00B4A526812F4003F0BD00C4A02FB85
:1007180003F3084A1360DBE7094A02FB03F3054ABF
:100728001360D5E7044A02FB03F3024A1360CFE7DC
:10073800001002401C00002000127A000C0000206B
:1007480000093D00B0B500AF084800F0B9FD084CFD
:1007580025682946074800F0B3FD85F30888064B4D
:100768001C60064B1B689847B0BD00BFE8460008F0
:10077800008000082847000808ED00E00480000811
:1007880010B50446054BA52119705870044800F0AF
:1007980097FD2146034800F093FD10BD6005002039
:1007A800B4460008CC460008F0B583B006460D46AE
:1007B800174600F069FD0020044607E0335D02A8F3
:1007C80040F8043D012100F065FD0134AC42F5D349
:1007D800B84202D0012003B0F0BD0020FBE700F1D1
:1007E8006043B3F5A04F08D300F17840B0F5003F5F
:1007F80001D3012070470020704700207047002374
:10080800934211D230B410F8135000EB430494F91A
:10081800014004F00F0444EA0514CC5401339BB2A0
:100828009342F0D330BC70477047002393422FD2D5
:10083800F0B414E0A4F10A07FFB2052F1BD844F066
:1008480040044C5517E0A4F10A06F6B2052E02D86A
:1008580044F040044C5501339BB2934216D2C6185B
:10086800C45C5D00240901F81340092CE2D844F067
:10087800300401F813403478013504F00F044C5566
:10088800092CE0D844F030044C55E4E7F0BC70473C
:100898007047000010B5054C012221467F20FFF764
:1008A800C4FF0221204601F0BDFF10BD60050020F5
:1008B80070B582B0054604780134E4B2083C0422DD
:1008C8000DEB02012044FFF79AFF019E0E4800F04D
:1008D800F7FC0E4800F0F4FC324621462846FFF7A4
:1008E80063FF30B10A4800F0EBFCFFF7D3FF02B01A
:1008F80070BD084800F0E4FC0020FFF741FF00F05D
:1009080075FD00F00BFEF2E73C4300087043000859
:10091800D0430008A843000870B5054604780134A0
:10092800E4B2043C06590B4800F0CAFC32462146A2
:100938002846FFF739FF28B1074800F0C1FCFFF748
:10094800A9FF70BD054800F0BBFC0120FFF718FFA8
:10095800F7E700BF78450008D0430008A84300081F
:1009680070B582B0054604780134E4B2083C04222C
:100978000DEB02012044FFF742FF019E0E4800F0F4
:100988009FFC0E4800F09CFC324621462846FFF7A3
:100998000BFF30B10A4800F093FCFFF77BFF02B071
:1009A80070BD084800F08CFC0020FFF7E9FE00F05D
:1009B800DDFD00F005FFF2E73C430008984200081F
:1009C800D0430008A843000870B582B005460478F3
:1009D8000134E4B2083C04220DEB02012044FFF785
:1009E8000EFF019E0E4800F06BFC0E4800F068FCFC
:1009F800324621462846FFF7D7FE30B10A4800F0B4
:100A08005FFCFFF747FF02B070BD084800F058FCD4
:100A18000020FFF7B5FE00F0A9FD00F003FFF2E7A4
:100A28003C43000824420008D0430008A8430008BB
:100A380070B582B0054604780134E4B2083C04225B
:100A48000DEB02012044FFF7DAFE019E124800F088
:100A580037FC124800F034FC324621462846FFF79E
:100A6800A3FE30B10E4800F02BFCFFF713FF02B0D5
:100A780070BD0C4800F024FC04226946A81CFFF74E
:100A8800BEFE009C00F072FD204600F0FDFE002036
:100A9800FFF776FEEBE700BF3C430008D0420008B2
:100AA800D0430008A843000870B582B00546047812
:100AB8000134E4B2083C04220DEB02012044FFF7A4
:100AC8009EFE019E124800F0FBFB124800F0F8FB66
:100AD800324621462846FFF767FE30B10E4800F03F
:100AE800EFFBFFF7D7FE02B070BD0C4800F0E8FB43
:100AF80004226946A81CFFF782FE009C00F036FD20
:100B0800204600F045FF0020FFF73AFEEBE700BF64
:100B18003C4300085C420008D0430008A843000892
:100B280070B582B0054604780134E4B2083C04226A
:100B38000DEB02012044FFF762FE019E0D4800F014
:100B4800BFFB0D4800F0BCFB324621462846FFF7A4
:100B58002BFE30B1094800F0B3FBFFF79BFE02B053
:100B680070BD074800F0ACFB0020FFF709FE00F05D
:100B780061FDF4E73C43000880460008D0430008C4
:100B8800A843000870B582B0054604780134E4B281
:100B9800083C04220DEB02012044FFF730FE019EC1
:100BA8000E4800F08DFB0E4800F08AFB32462146C5
:100BB8002846FFF7F9FD30B10A4800F081FBFFF73E
:100BC80069FE02B070BD084800F07AFB0020FFF70C
:100BD800D7FD00F0CBFC00F0F3FDF2E73C43000842
:100BE80098420008D0430008A843000870B582B0B6
:100BF800054600230093ADF8043004780134E4B2CC
:100C0800043C0659124800F05BFB32462146284650
:100C1800FFF7CAFD30B10F4800F052FBFFF73AFE6C
:100C280002B070BD0C4800F04BFB0120FFF7A8FD97
:100C380010210A4800F044FB09481023837003225E
:100C48006946FFF7F2FD0621684601F0EBFDE7E78C
:100C58007C440008D0430008A8430008AC440008BE
:100C68006005002070B58AB005462422002101A83D
:100C780002F0CFFD2C780134E4B2043C2E591E4812
:100C880000F01EFB324621462846FFF78DFD60BB6B
:100C980004461A4800F014FB1020FFF771FD06E027
:100CA800A31C174A115D174AD1540134E4B20F2C22
:100CB800F6D9122201A91348FFF7B7FD242101A88C
:100CC80001F0B0FD104B00221A7008E00C4AD15C0C
:100CD8000E4800F0F5FA0C4A1378013313700A4BEA
:100CE8001B780F2BF2D90AB070BD094800F0E8FA5A
:100CF800FFF7D0FDF7E700BF1C440008A843000831
:100D08002000002060050020F80E0020C4460008DE
:100D1800D0430008F0B585B006461E4B1D68C5F3E4
:100D28000B051B6800230193029303930478013495
:100D3800E4B2043C0759184800F0C2FA3A46214682
:100D48003046FFF731FD30B1144800F0B9FAFFF72B
:100D5800A1FD05B0F0BD124800F0B2FA0420FFF77B
:100D68000FFD104885702B0AC3700024047144716C
:100D7800062201A9FFF759FD0C2101A801F052FD37
:100D88002946094800F09CFA2146084800F098FADC
:100D9800DFE700BF002004E01C440008D04300083F
:100DA800A843000860050020F44300080844000830
:100DB80070B586B0054600230493ADF81430047866
:100DC8000134E4B2043C0659264800F079FA324668
:100DD80021462846FFF7E8FC00283BD1224800F0CE
:100DE8006FFA0120FFF7CCFC042203A9A81CFFF727
:100DF80006FD039C9DF80F109DF80E209DF80D3000
:100E08009DF80C000090194800F05AFA2046FFF7A8
:100E1800E6FC80B9164800238370032204A9FFF773
:100E280004FD062104A801F0FDFC2468114800F027
:100E380047FAA04713E0104800F042FA0C48012393
:100E48008370032204A9FFF7F0FC062104A801F02F
:100E5800E9FC04E0094800F033FAFFF71BFD06B08F
:100E680070BD00BFCC440008A84300080045000836
:100E7800600500202C45000854450008D0430008B0
:100E880070B584B0054600230293ADF80C300478A1
:100E98000134E4B2083C042269462044FFF7AFFC61
:100EA800009E194800F00CFA184800F009FA32467A
:100EB80021462846FFF778FC30B1154800F000FAC3
:100EC800FFF7E8FC04B070BD124800F0F9F90422FD
:100ED8000DEB0201A81CFFF792FC019CAD7A00F013
:100EE80085FA2946204600F0DBFA04460120FFF780
:100EF80047FC09488470032202A9FFF796FC0621E3
:100F080002A801F08FFCDDE73C4300080843000815
:100F1800D0430008A84300086005002070B586B0DB
:100F2800054600210491ADF81410344800F014FE71
:100F38002C780134E4B2083CA87A0B30042202A9C8
:100F48002844FFF75CFC029E2D4800F0B9F93246B0
:100F580021462846FFF728FC002844D1294800F0FC
:100F6800AFF9042203A9A81CFFF749FC039C9DF8CC
:100F78000F109DF80E209DF80D309DF80C00009084
:100F8800214800F09DF92046FFF729FCE0B91F4EE3
:100F98004022314605F10B00FFF731FC00F026FA3C
:100FA80040222146304600F03BFA0120FFF7E8FBDB
:100FB800174800238370032204A9FFF736FC062193
:100FC80004A801F02FFC13E0124800F079F910484A
:100FD80001238370032204A9FFF727FC062104A834
:100FE80001F020FC04E00C4800F06AF9FFF752FC1D
:100FF8000121024800F0B0FD06B070BD3812002093
:10100800A8450008A84300080C4600086001002015
:101018006005002054450008D043000870B582B030
:10102800054600230093ADF8043004780134E4B297
:10103800043C0659114800F043F932462146284637
:10104800FFF7B2FB30B10E4800F03AF9FFF722FC87
:1010580002B070BD0B4800F033F90120FFF790FB98
:1010680000F0A0FA084B9870032269461846FFF76B
:10107800DCFB0621684601F0D5FBE9E74C44000893
:10108800D0430008A84300086005002070B58AB066
:101098000546002304930593069307930893099341
:1010A80004780134E4B2083C04220DEB0201204428
:1010B800FFF7A5FB019E1B4800F002F91A4800F053
:1010C800FFF8324621462846FFF76EFB30B1174835
:1010D80000F0F6F8FFF7DEFB0AB070BD144800F028
:1010E800EFF800F05FFA8DF80F0000F09DFA02901B
:1010F8000A20FFF745FB022204A90E48FFF795FBDB
:1011080001220DF112010DF10F00FFF78EFB0422F1
:1011180005A902A8FFF789FB182104A801F082FBA2
:10112800DAE700BF3C43000844460008D043000803
:10113800A84300086005002000B5ADF2544D4D48A5
:101148004D4B03600024C4710D23838003238371F6
:1011580000F0BEFC40F24C422146684602F059FBC2
:10116800464800F0ADF802E04548FFF73FFD002192
:101178008DF84F14424C4FF47A72204602F049FB26
:10118800684601F0E9FB01220DF24F416846FFF77E
:1011980036FB9DF84F24214601F8012B0DF1020082
:1011A800FFF72DFB6378513B0F2B5FD801A252F854
:1011B80023F000BF71110008FD1100080512000896
:1011C800551200080D120008151200082512000813
:1011D800451200082D1200085D1200081D120008B3
:1011E8004D120008651200086D120008351200083B
:1011F8003D1200082248FFF735FDB8E72048FFF701
:1012080089FDB4E71E48FFF7D3FDB0E71C48FFF798
:1012180037FEACE71A48FFF74BFBA8E71848FFF77B
:101228007DFEA4E71648FFF777FBA0E71448FFF711
:1012380097FB9CE71248FFF7C7FB98E71048FFF7B2
:10124800F7FB94E70E48FFF72FFC90E70C48FFF7F1
:10125800E5FE8CE70A48FFF719FF88E70848FFF71B
:101268005FFC84E70648FFF78DFC80E7054800F03F
:1012780027F87CE738120020001001404C4700088E
:101288006006002084470008014B01229A607047DD
:101298000030024000238B420CD210B450F8234097
:1012A800064A146001338B42F8D31846034B18687A
:1012B80010BC70471846014B186870470030024050
:1012C8000FB470B58AB00EAB53F8042B09930F4DC9
:1012D800C821284602F00AFB86B2284602F0D1FA55
:1012E8000B4C01230693C0B20590049504F110033A
:1012F8000FCB8DE80F0094E80F0000F051FD304649
:101308000AB0BDE8704004B0704700BFFC0E002072
:10131800C047000810B584B000238DF80F304FF097
:101328007E5302930E4B019300F080FD8DF80F0061
:101338009DF80F30DBB2022B04D0019A094B1A60DA
:1013480004B010BD00F052FE02900198029C02F019
:1013580087F8214602F0DCF802F02AFA0190ECE75F
:1013680000127A003000002030B583B00446002314
:101378000193FFF7CFFF204601F010FD0022184B24
:1013880001F086FD12A3D3E9002301F0C9FB002276
:10139800144B01F0C5FB04460D46134B186801F0C9
:1013A800FDFC02460B462046294601F071FD0AA3C2
:1013B800D3E9002301F096FE01F07CFF02E0019BD7
:1013C80001330193019B8342F9D303B030BD00BFC1
:1013D8000000000000A0674000000000E0CA68416B
:1013E80000408F4000000C4030000020094B0A4AA2
:1013F8001A6002F188321A60084B1B6813F0800FDC
:10140800FAD1064B1B6813F0800F01D101207047F9
:101418000220704704200240230167451020024043
:1014280030B41D4B1B6813F0010FFAD11B4C236815
:1014380043F001032360002409E030F8143021F858
:101448001430154B1B6813F0010FFAD10134B4EBBB
:10145800520FF2D3104B1B6813F0200FFAD00E4C2A
:10146800236843F0200323600434236823F0010336
:10147800236000230224B3EB920F09D251F82350C2
:1014880050F82340A54202D101330124F3E7022496
:10149800204630BC704700BF0C200240102002409C
:1014A80010B41B4A136843F00203136000220EE0D5
:1014B80000EB8223174C2360043C236843F040036D
:1014C8002360154B1B6813F0010FFAD101329142CA
:1014D800EED8114B1B6813F0200FFAD00E4A136890
:1014E80043F0200313600432136823F002031360EF
:1014F80000230222B3EB012F07D21A58B2F1FF3FA3
:1015080002D101330122F5E70222104610BC7047D0
:1015180010200240142002400C200240114B1A688F
:1015280042F004021A601A6842F040021A600E4B38
:101538001B6813F0010FFAD10A4A136823F0040359
:10154800136000230220B3F5804F08D203F1006234
:101558001268B2F1FF3F03D101330120F3E770476E
:1015680002207047102002400C20024008B5FFF707
:101578003DFF094B094A1A6002F188321A60084B8C
:101588001B6813F4007FFAD0054B1B6813F4007F27
:1015980000D1012008BD00BF082002402301674593
:1015A80010200240024B186800F00200704700BF8C
:1015B8001C20024008B51A4B1B6813F0010FFAD122
:1015C800FFF7D4FF174B1A6842F020021A601A6816
:1015D80042F040021A60124B1B6813F0010FFAD157
:1015E8000F4B1B6813F0200FFAD00D4A136843F015
:1015F800200313600432136823F0200313600023D0
:101608000F2B0BD803F10052A2F500621278FF2AC3
:1016180003D10233DBB20120F2E7022008BD00BF8C
:101628000C20024010200240014B1868704700BF90
:101638002020024003490A6802F4E062024B134387
:101648000B6070470CED00E00400FA05012916D084
:10165800B9B900231CE0195C184AD15401339BB274
:101668000F2BF8D9002302220F2B25D8134AD15C5F
:101678001A5C91421DD101339BB20122F4E7002389
:10168800EEE7022218E0195C0D4AD15401339BB2EF
:10169800B3F5806FF7D300230222B3F5806F0BD226
:1016A800074AD15C1A5C914205D101339BB20122F1
:1016B800F3E7022200E002221046704740120020A1
:1016C8005012002070B4012B1CD0EBB9002326E087
:1016D8000468DD00EC400460D5181C4E74550133D5
:1016E8009BB28B42F4D3002302248B422BD210F8F6
:1016F8002350D418154E345DA54221D101339BB235
:101708000124F2E70023ECE702241CE00468DD0072
:10171800EC400460D5180E4E745501339BB28B42D1
:10172800F4D3002302248B420DD210F82350D4188E
:10173800074E345DA54205D101339BB20124F2E77F
:10174800022400E00224204670BC704740120020AA
:101758005012002010B50446012914D039BB4FF4AB
:10176800806201461448FFF75BFE00230220B3F5B0
:10177800806F1DD2195D104AD25C914219D1013394
:101788009BB20120F3E7102201460C48FFF748FE00
:10179800002302200F2B0BD8195D084AD25C914216
:1017A80003D101339BB20120F4E7022000E00220BC
:1017B80010BD0220FCE700BF50120020401200209C
:1017C80010B582B0FF230193134B1B6813F0010F70
:1017D800FAD1124C01212046FFF738FFFFF7EAFE45
:1017E8000F4A136843F010031360012300220221FB
:1017F80001A8FFF767FF01212046FFF7ABFF064B63
:101808001B6813F0010FFAD1054A136823F010037F
:10181800136002B010BD00BF0C20024000F8FF1F8B
:101828001020024010B582B0A5230193134B1B680A
:1018380013F0010FFAD1124C01212046FFF706FFE1
:10184800FFF7B8FE0F4A136843F010031360012333
:101858000022022101A8FFF735FF01212046FFF7EA
:1018680079FF064B1B6813F0010FFAD1054A13687C
:1018780023F01003136002B010BD00BF0C2002401B
:1018880000F8FF1F1020024010B582B004463B4A02
:101898001368DBB21268120A02F47F421343384914
:1018A8000A68120402F47F0213430A68120202F063
:1018B8007F42134323EA00030193324B1B6813F062
:1018C800010FFAD101213048FFF7C0FEFFF772FE81
:1018D8002E4A136843F010031360631E7F2B16D93A
:1018E800A4F18103B3F5FF4F27D3A4F50043013BCF
:1018F800B3F5FF0F2CD3A4F50004013CB4F1FF4F5E
:1019080031D3224A136823F01003136013E0012334
:101918000822194601A8FFF7D5FE01211A48FFF74A
:1019280019FF184B1B6813F0010FFAD1174A1368F7
:1019380023F01003136002B010BD019B1B0A02A81C
:1019480040F8043D01230A221946FFF7BBFEE4E7ED
:10195800BDF8063002A840F8043D01230C221946C0
:10196800FFF7B0FED9E79DF8073002A840F8043D1C
:1019780001230E221946FFF7A5FECEE708F8FF1F40
:101988000CF8FF1F0C20024000F8FF1F1020024037
:1019980010B582B00446494A1368DBB21268120ACD
:1019A80002F47F42134346490A68120402F47F0294
:1019B80013430A68120202F07F4213430343019360
:1019C800404B1B6813F0010FFAD101213E48FFF785
:1019D8003DFEFFF7EFFD3D4A136843F01003136027
:1019E800631E7F2B19D9A4F18103B3F5FF4F2AD3C6
:1019F800A4F50043013BB3F5FF0F2FD3A4F5000373
:101A0800013BB3F1FF4F34D3B4F1FF3F3CD02F4A31
:101A1800136823F01003136013E00123082219460A
:101A280001A8FFF74FFE01212748FFF793FE254B3A
:101A38001B6813F0010FFAD1244A136823F010032E
:101A4800136002B010BD019B1B0A02A840F8043DB8
:101A580001230A221946FFF735FEE4E7BDF80630F0
:101A680002A840F8043D01230C221946FFF72AFE7C
:101A7800D9E79DF8073002A840F8043D01230E225B
:101A88001946FFF71FFECEE701230822194601A8D1
:101A9800FFF718FE01230A22194601A8FFF712FED4
:101AA80001230C22194601A8FFF70CFE01230E2280
:101AB800194601A8FFF706FEB5E700BF08F8FF1FA3
:101AC8000CF8FF1F0C20024000F8FF1F10200240F6
:101AD80030B482B002460023184614680193B2F964
:101AE80004108BB2072B06D9083B9BB2072B19D9D8
:101AF8004FF0010013E02368019389000F2303FAD4
:101B080001F5019B23EA05030193D37992791343E5
:101B180003FA01F1019B19430191019B236002B073
:101B280030BC70471BB29380616801919B000F2104
:101B380001FA03F5019921EA05010191D179957915
:101B4800294301FA03F301990B430193019B636055
:101B5800938808339380E2E710B403464FF00000FF
:101B68001A68012904D059B14FF0010010BC704720
:101B7800D168B3F904400123A3400B43D360F5E7D0
:101B8800D168B3F904400123A34021EA0303D360D9
:101B9800ECE710B483B000238DF804300468B0F982
:101BA800042093B20F2B07D901238DF804309DF838
:101BB800040003B010BC7047A368D34003F00103CE
:101BC8000B70F4E770B586B004460D4600228DF818
:101BD800172001238DF816304FF07E5104913649B5
:101BE8000391ADF80A308DF80930ADF8062000F001
:101BF8001DF98DF817009DF81730DBB2022B45D080
:101C08002E4B9D4250D0012000F06CF9C0B28DF8E7
:101C18001600039B9DF81620D2B2B3FBF2F3039390
:101C2800039B2501B3FBF5F39BB2ADF80A3003988B
:101C380001F016FC0646204601F012FC4FF08341E5
:101C480001F066FC0146304601F016FD0446039893
:101C5800B0FBF5F001F004FC0146204601F04EFB14
:101C68004FF0834101F054FC01F0A2FDC0B28DF8A1
:101C78000900BDF80A209DF8093043EA02139BB217
:101C8800ADF80630BDF8060006B070BD00F0AEF93C
:101C980004900398049E01F0E3FB314601F038FC00
:101CA80001F086FD0390ABE7022000F01BF9C0B2FB
:101CB8008DF81600ADE700BF00127A000038014029
:101CC80084B038B504AC84E80F000D9D0E9C9DF8D7
:101CD800280000F07DF8099800F0C2F8089800F094
:101CE800BFF806A8FFF7F4FE012106A8FFF734FFA6
:101CF80004A8FFF7EDFE0B990C98FFF763FF014668
:101D08006FF440539D4203D0B5F5005F00D01D46E7
:101D18006FF480639C4206D0B4F5806F03D0B4F5AD
:101D2800C06F00D01C4623462A460B9800F000FAE4
:101D3800BDE8384004B0704718B108B500F0AAFAF9
:101D480008BD0120704784B008B50DF1080C8CE877
:101D58000F000A999DF82C2051B122B90120BDE845
:101D6800084004B07047099800F044FA0020F6E7EC
:101D78000120F4E784B008B50DF1080C8CE80F00D9
:101D88000A999DF82C2049B122B90120BDE80840E4
:101D980004B07047099800F055FAF7E70120F5E715
:101DA80084B008B50DF1080C8CE80F000A999DF86D
:101DB8002C2059B122B90120BDE8084004B0704771
:101DC8000C9B099800F0D8F90020F5E70120F3E70B
:101DD8001F2811D9A0F12003DBB21F2B15D93F2BE7
:101DE8001CD84038C0B2012303FA00F00C4A13682B
:101DF8000343136000207047012303FA00F0094AE7
:101E080013680343136000207047012202FA03F3AA
:101E180005490A681A430A60002070470120704784
:101E280008E100E000E100E004E100E00B4B1B6882
:101E380013F00C0F0DD0094B1B6813F0040F0AD1D7
:101E4800064B1B6813F0080F01D1012070470220D0
:101E58007047002070470120704700BF04100240FF
:101E680010F0805F0ED100F04043B3F1404F10D026
:101E780010F0005F05D020F00050094A136818439D
:101E88001060704720F08050064A136818431060AD
:101E9800704720F04040044A1368184310607047A8
:101EA80014100240181002401C10024010F1810F5B
:101EB80010D06FF4806398420CD06FF400539842AE
:101EC80008D06FF44043984204D0054A1368184379
:101ED80010607047024A136818401060704700BFCE
:101EE8000410024082B0002301933F4B1B6803F0AB
:101EF800F0030193019B802B19D9019B802B1ED0E5
:101F0800019B902B1DD0019BA02B1CD0019BB02BBB
:101F18001BD0019BC02B1AD0019BD02B19D0019B41
:101F2800E02B18D0019BF02B18D0002300E00123F0
:101F3800012816D0022835D0184602B0704702236F
:101F4800F6E70423F4E70823F2E71023F0E7402339
:101F5800EEE78023ECE74FF48073E9E74FF4007372
:101F6800E6E7214A126802F4E0620192019AB2F5AA
:101F7800806F0ED0019AB2F5A06F0DD0019AB2F51C
:101F8800C06F0CD0019AB2F5E06FD5D11B019BB29E
:101F9800D2E75B009BB2CFE79B009BB2CCE7DB00AC
:101FA8009BB2C9E7104A126802F460520192019A82
:101FB800B2F5005F0ED0019AB2F5205F0DD0019AFC
:101FC800B2F5405F0CD0019AB2F5605FB4D11B0145
:101FD8009BB2B1E75B009BB2AEE79B009BB2ABE75D
:101FE800DB009BB2A8E700BF0410024010B582B026
:101FF80000230193424B1B6803F480330193019B38
:10200800B3F5803F43D002203D4B1B6803F47013A7
:102018000193019BB3F5701F47D0019BB3F5802F47
:102028004ED0019BB3F5002F4CD0019BB3F5402F48
:102038004BD0019BB3F5801F49D0019BB3F5A01F7E
:1020480047D0019BB3F5C01F45D0019BB3F5E01FF6
:1020580044D0019BB3F5001F42D0019BB3F5101F7C
:1020680040D0019BB3F5201F3ED0019BB3F5301F34
:102078003CD0019BB3F5401F3AD0019BB3F5501FEC
:1020880038D0019BB3F5701F36D0002410E01C4BEC
:102098001B6803F400330193019BB3F5003F02D0A2
:1020A800019B0120B0E70220AEE702230193002440
:1020B80001F0DAF90146204601F0DEFA02B010BD5F
:1020C800104CF5E74FF08144F2E70F4CF0E70F4C66
:1020D800EEE70F4CECE74FF08244E9E70D4CE7E7F9
:1020E8000D4CE5E70D4CE3E70D4CE1E70D4CDFE760
:1020F8000D4CDDE70D4CDBE74FF08344D8E700BF1C
:1021080004100240000040400000A0400000C04011
:102118000000E04000001041000020410000304174
:102128000000404100005041000060410000704143
:1021380010B4C46844F40054C46081606FF4405122
:102148008A4210D001690A4302616FF480629342A7
:102158000DD0C2681343C360C36843F00C03C36067
:10216800002010BC704701690A400261EDE7C268AF
:102178001340C360F0E7000070B505461E46134BD8
:10218800984209D0A3F5744398420BD003F58063B5
:10219800984202D10E4C00E00E4C216022710023BF
:1021A80063710AE00C4CF8E72268D35C6B60304638
:1021B800FFF7DAF86379013363716379227993421F
:1021C800F2D3002323602371637170BD003801408E
:1021D8005C0000204C00002054000020012A05D09B
:1021E800C36823EA0103C36000207047C3680B4338
:1021F800C360F9E710B50F4CA04209D0A4F57444A8
:10220800A0420BD004F58064A04202D10A4B00E042
:102218000A4B9C79032C03D0012010BD084BF8E72A
:1022280019601A7102229A7101228021FFF7D6FFE4
:102238000020F2E7003801405C0000204C0000203C
:102248005400002010B50F4B984209D0A3F57443F1
:1022580098420BD003F58063984202D10A4C00E003
:102268000A4CA379032B03D0012010BD084CF8E7D2
:102278002160227101222021FFF7B0FF0223A37100
:102288000020F2E70038014044000020340000201C
:102298003C000020094B994208D0094B994209D0CB
:1022A800084B994204D1084B186001E0074B1860AD
:1022B80000207047064B1860FAE700BF003801405D
:1022C8000044004000480040CC0F0020C40F00200C
:1022D800C80F002008B50D4A904209D0A2F57442F3
:1022E800904210D002F58062904202D1084B00E083
:1022F800084B00221A605A711A7103219971202122
:10230800FFF76CFF08BD044BF3E700BF003801403E
:1023180044000020340000203C00002008B50F4A8B
:10232800904209D0A2F57442904214D002F580621E
:10233800904202D10A4B00E00A4B00221A605A71FF
:102348001A7103219971036823F040030360802107
:10235800FFF744FF08BD044BEFE700BF003801401A
:102368005C0000204C0000205400002000B583B021
:10237800274B1B680193274B1B6803F080030093CE
:10238800019B1BB1244B9B79022B08D0009B1BB1EE
:10239800224B9B79022B24D003B05DF804FB204B21
:1023A8001B6813F4806F19D0194B1B7803F07F0357
:1023B80033B1194A10685179435453790133537131
:1023C800154B5A791B799A42E0D11248FFF782FFE0
:1023D800144B1B68002BD9D09847D7E70C4B1B78B8
:1023E800E6E70E4B5A791B799A4208D00B4B1968CD
:1023F800895C074A11605A7901325A71CCE705485D
:10240800FFF78CFF084B1B68002BC5D09847C3E724
:102418000438014000380140340000204C000020FE
:102428000C380140C40F0020D00F002000B583B045
:10243800274B1B680193274B1B6803F0800300930D
:10244800019B1BB1244B9B79022B08D0009B1BB12D
:10245800224B9B79022B24D003B05DF804FB204B60
:102468001B6813F4806F19D0194B1B7803F07F0396
:1024780033B1194A10685179435453790133537170
:10248800154B5A791B799A42E0D11248FFF722FF7F
:10249800144B1B68002BD9D09847D7E70C4B1B78F7
:1024A800E6E70E4B5A791B799A4208D00B4B19680C
:1024B800895C074A11605A7901325A71CCE705489C
:1024C800FFF72CFF084B1B68002BC5D09847C3E7C4
:1024D80004440040004400403C0000205400002018
:1024E8000C440040C80F0020D40F002000B583B072
:1024F800274B1B680193274B1B6803F0800300934D
:10250800019B1BB1244B9B79022B08D0009B1BB16C
:10251800224B9B79022B24D003B05DF804FB204B9F
:102528001B6813F4806F19D0194B1B7803F07F03D5
:1025380033B1194A106851794354537901335371AF
:10254800154B5A791B799A42E0D11248FFF7C2FE1F
:10255800144B1B68002BD9D09847D7E70C4B1B7836
:10256800E6E70E4B5A791B799A4208D00B4B19684B
:10257800895C074A11605A7901325A71CCE70548DB
:10258800FFF7CCFE084B1B68002BC5D09847C3E764
:102598000448004000480040440000205C0000203F
:1025A8000C480040CC0F0020D80F002010B586B092
:1025B8004A4BDB6983B94A4B1B78DBB2012B1AD033
:1025C800484B1B78DBB24F2B7ED0474B1B78DBB2D6
:1025D800444A137006B010BD404C01230593424B8A
:1025E800049304F110030FCB8DE80F0094E80F005B
:1025F800FFF7A9FBDFE73D4B1B78002B43D03C4B93
:102608001B68B3F5007F34D2374B1A78D2B21B78E7
:10261800DBB22B2B18BF3C2A02D1344B00221A7094
:10262800314B1B78DBB2202B23D02F4B1B78DBB22E
:102638000A2B1ED02C4B1B78DBB23C2B19D02A4B13
:102648001B78DBB22B2B14D0274B1B78DBB20D2B5E
:102658000FD0284B1B68284A1268934202D3274A96
:10266800012111700133234A1360244B1B78012B7D
:1026780016D01C4B1B78DBB2432B1CD01A4B1B7893
:10268800DBB2184A1370184B1A78D2B21B78DBB237
:102698003E2B18BF3A2A9DD1144B01221A7099E794
:1026A800134B1968104A1278D2B2154842541A6866
:1026B80001321A60DDE70C4B1B78DBB24C2BDDD105
:1026C800104B00221A70DEE7074B1B78DBB24B2B4E
:1026D8007FF47BAF0B4B00221A707BE7DC110020E4
:1026E8002412002026120020271200202812002081
:1026F8001C12002020120020640000202512002057
:10270800DC0F00206800002030B587B0054601F0D6
:10271800B8F8114CC0B20590049504F110030FCB22
:102728008DE80F0094E80F00FFF70DFB0DE00A4C51
:1027380001230593094B049304F110030FCB8DE893
:102748000F0094E80F00FFF715FB054B1B78002BD3
:10275800EDD107B030BD00BFFC11002027120020CA
:102768006800002084B0F0B58DB012AC84E80F008A
:102778001E4A09AB07CA03C31A706FF48063069335
:102788006FF4405305934FF4E133049316AB0FCB2A
:102798008DE80F0094E80F00FFF792FA074648B15A
:1027A80042F21070FEF7E0FD38460DB0BDE8F0408B
:1027B80004B070470E4E344612AD0FCD0FC495E8E5
:1027C8000F0084E80F0009AD284601F05AF80123EC
:1027D8000693C0B20590049594E80F008DE80F00A9
:1027E80096E80F00FFF7DCFADAE700BFC44A0008F2
:1027F800FC110020084B01221A70084BD96909B94D
:102808000120704710B504460548FFF795FA2046A1
:10281800FFF77AFF002010BD68000020FC1100209F
:10282800B5250008F0B5ADF51F7D07460E46404BAF
:102838009AAC0FCB07C423808FAC3E4D0FCD0FC48D
:102848000FCD0FC495E8070084E8070000248A9498
:102858008B948C948D948E94472237490AA800F063
:10286800CDFF40F2B91221460DF16F0000F0D1FF03
:1028780001ADDFF8E0C0BCE80F000FC5BCE80F00F1
:102888000FC5DCF800302B60ADF80240214606E0A9
:1028980001F14603785C0AAAD054013189B2B142E9
:1028A800F6D301A90AA800F0DDFF0AA800F0E9FFA5
:1028B80080B2ADF80200BDF80230023B9BB2ADF821
:1028C8000230BDF802201D498AA800F0ABFF1C4B5E
:1028D800D96919B901200DF51F7DF0BD1948FFF719
:1028E8002BFA9AA8FFF786FF4FF47A70FEF73CFDA3
:1028F8008FA8FFF77FFF4FF47A70FEF735FD8AA89F
:10290800FFF778FF4FF47A70FEF72EFD0E4C012387
:1029180023700AA8FFF76EFF002020700B490B6890
:10292800013B0B4AD0540B68023BD054D3E700BF9D
:10293800004A0008104A000800480008604B0008D8
:10294800FC110020B5250008241200201C120020CC
:10295800DC0F0020704B000870B5B4B006462F4B52
:1029680030AC0FCB07C4238025AC2D4D0FCD0FC441
:102978000FCD0FC495E8070084E80700294B21AC68
:102988000FCB84E80F007E22274901A800F036FF0C
:102998004FF400720021254800F03BFF0023244A31
:1029A8001360244A1370244B01221A70234BD969EF
:1029B80011B9012034B070BD2148FFF7BDF930A826
:1029C800FFF718FF4FF47A70FEF7CEFC25A8FFF743
:1029D80011FF4FF47A70FEF7C7FC21A8FFF70AFF32
:1029E8004FF47A70FEF7C0FC164C0123237001A83F
:1029F800FFF700FF002323700D480268013A0B49D6
:102A08008B540268023A8B54084AD15CF154013362
:102A18009BB2D25C002AF7D10020CBE7004A00081D
:102A2800104A0008D04A0008E04A0008DC0F0020DD
:102A38001C1200202812002025120020FC11002062
:102A4800B52500082412002000B58DB0FFF7CEFA96
:102A58004FF48060FFF72AFA2748FFF701FA274862
:102A6800FFF7FEF92648FFF7FBF92648FFF7F8F9C4
:102A7800254C04F110030FCB8DE80F0094E80F00EC
:102A8800FFF770FE214C6FF4806306936FF4405398
:102A980005934FF4E133049304F110030FCB8DE851
:102AA8000F0094E80F00FFF70BF9194B099308235F
:102AB8008DF82B300C23ADF8283000238DF82A3000
:102AC80009A8FFF705F8012109A8FFF745F8C8206C
:102AD800FEF74AFC0DF12F0109A8FFF75AF89DF8F7
:102AE8002F302BB1FDF72EFE0A48FDF76DFCFBE7F2
:102AF800FEF722FBF8E700BF0800001010000010E6
:102B08004000002010000020E0470008C0470008EF
:102B1800000C0140944B000881F0004102E000BF26
:102B280083F0004330B54FEA41044FEA430594EA85
:102B3800050F08BF90EA020F1FBF54EA000C55EAC0
:102B4800020C7FEA645C7FEA655C00F0E2804FEA91
:102B58005454D4EB5555B8BF6D420CDD2C4480EA73
:102B6800020281EA030382EA000083EA010180EAA3
:102B7800020281EA0303362D88BF30BD11F0004FF1
:102B88004FEA01314FF4801C4CEA113102D0404227
:102B980061EB410113F0004F4FEA03334CEA133362
:102BA80002D0524263EB430394EA050F00F0A7807A
:102BB800A4F10104D5F1200E0DDB02FA0EFC22FA75
:102BC80005F2801841F1000103FA0EF2801843FA69
:102BD80005F359410EE0A5F120050EF1200E012A5A
:102BE80003FA0EFC28BF4CF0020C43FA05F3C01898
:102BF80051EBE37101F0004507D54FF0000EDCF111
:102C0800000C7EEB00006EEB0101B1F5801F1BD3B9
:102C1800B1F5001F0CD349085FEA30004FEA3C0CBD
:102C280004F101044FEA445212F5800F80F09A80B3
:102C3800BCF1004F08BF5FEA500C50F1000041EBB7
:102C4800045141EA050130BD5FEA4C0C404141EBBB
:102C5800010111F4801FA4F10104E9D191F0000FE2
:102C680004BF01460020B1FA81F308BF2033A3F165
:102C78000B03B3F120020CDA0C3208DD02F1140C5C
:102C8800C2F10C0201FA0CF021FA02F10CE002F197
:102C98001402D8BFC2F1200C01FA02F120FA0CFC90
:102CA800DCBF41EA0C019040E41AA2BF01EB0451D9
:102CB800294330BD6FEA04041F3C1CDA0C340EDCD7
:102CC80004F11404C4F1200220FA04F001FA02F31A
:102CD80040EA030021FA04F345EA030130BDC4F1D8
:102CE8000C04C4F1200220FA02F001FA04F340EACD
:102CF8000300294630BD21FA04F0294630BD94F07E
:102D0800000F83F4801306BF81F480110134013D64
:102D18004EE77FEA645C18BF7FEA655C29D094EAD5
:102D2800050F08BF90EA020F05D054EA000C04BF53
:102D38001946104630BD91EA030F1EBF002100203E
:102D480030BD5FEA545C05D14000494128BF41F0DD
:102D5800004130BD14F580043CBF01F5801130BD41
:102D680001F0004545F0FE4141F470014FF00000CC
:102D780030BD7FEA645C1ABF194610467FEA655C7D
:102D88001CBF0B46024650EA013406BF52EA03351F
:102D980091EA030F41F4002130BD00BF90F0000F0D
:102DA80004BF0021704730B54FF4806404F1320449
:102DB8004FF000054FF0000150E700BF90F0000F02
:102DC80004BF0021704730B54FF4806404F1320429
:102DD80010F0004548BF40424FF000013EE700BFF9
:102DE80042004FEAE2014FEA31014FEA02701FBF89
:102DF80012F07F4393F07F4F81F06051704732F0BB
:102E08007F4208BF704793F07F4F04BF41F4002111
:102E1800704730B54FF4607401F0004521F000416F
:102E28001CE700BF50EA010208BF704730B54FF0F9
:102E380000050AE050EA010208BF704730B511F0FA
:102E4800004502D5404261EB41014FF4806404F132
:102E580032045FEA915C3FF4D8AE4FF003025FEAB8
:102E6800DC0C18BF03325FEADC0C18BF033202EB3C
:102E7800DC02C2F1200300FA03FC20FA02F001FA96
:102E880003FE40EA0E0021FA02F11444BDE600BF39
:102E980070B54FF0FF0C4CF4E06C1CEA11541DBFE8
:102EA8001CEA135594EA0C0F95EA0C0F00F0DEF8B3
:102EB8002C4481EA030621EA4C5123EA4C5350EA98
:102EC800013518BF52EA033541F4801143F48013E9
:102ED80038D0A0FB02CE4FF00005E1FB02E506F07A
:102EE8000042E0FB03E54FF00006E1FB03569CF0CF
:102EF800000F18BF4EF0010EA4F1FF04B6F5007FD5
:102F080064F5407404D25FEA4E0E6D4146EB060646
:102F180042EAC62141EA55514FEAC52040EA5E50CF
:102F28004FEACE2EB4F1FD0C88BFBCF5E06F1ED879
:102F3800BEF1004F08BF5FEA500E50F1000041EBB0
:102F4800045170BD06F0004646EA010140EA02005D
:102F580081EA0301B4EB5C04C2BFD4EB0C0541EA7F
:102F6800045170BD41F480114FF0000E013C00F394
:102F7800AB8014F1360FDEBF002001F0004170BDB8
:102F8800C4F10004203C35DA0C341BDC04F11404D1
:102F9800C4F1200500FA05F320FA04F001FA05F25D
:102FA80040EA020001F0004221F0004110EBD3702A
:102FB80021FA04F642EB06015EEA430E08BF20EA56
:102FC800D37070BDC4F10C04C4F1200500FA04F3F9
:102FD80020FA05F001FA04F240EA020001F000418B
:102FE80010EBD37041F100015EEA430E08BF20EAFE
:102FF800D37070BDC4F1200500FA05F24EEA020E46
:1030080020FA04F301FA05F243EA020321FA04F074
:1030180001F0004121FA04F220EA020000EBD3702B
:103028005EEA430E08BF20EAD37070BD94F0000F2B
:103038000FD101F00046400041EB010111F4801F5F
:1030480008BF013CF7D041EA060195F0000F18BF10
:10305800704703F00046520043EB030313F4801F4C
:1030680008BF013DF7D043EA0603704794EA0C0F06
:103078000CEA135518BF95EA0C0F0CD050EA41061C
:1030880018BF52EA4306D1D181EA030101F0004199
:103098004FF0000070BD50EA410606BF10461946C1
:1030A80052EA430619D094EA0C0F02D150EA0136CD
:1030B80013D195EA0C0F05D152EA03361CBF10460E
:1030C80019460AD181EA030101F0004141F0FE41AD
:1030D80041F470014FF0000070BD41F0FE4141F431
:1030E800780170BD70B54FF0FF0C4CF4E06C1CEA31
:1030F80011541DBF1CEA135594EA0C0F95EA0C0FE6
:1031080000F0A7F8A4EB050481EA030E52EA0335A0
:103118004FEA013100F088804FEA03334FF08055C1
:1031280045EA131343EA12634FEA022245EA1115EE
:1031380045EA10654FEA00260EF000419D4208BF9F
:10314800964244F1FD0404F5407402D25B084FEA4C
:103158003202B61A65EB03055B084FEA32024FF4F8
:1031680080104FF4002CB6EB020E75EB030E22BF55
:10317800B61A754640EA0C005B084FEA3202B6EB15
:10318800020E75EB030E22BFB61A754640EA5C00C4
:103198005B084FEA3202B6EB020E75EB030E22BF54
:1031A800B61A754640EA9C005B084FEA3202B6EB55
:1031B800020E75EB030E22BFB61A754640EADC0014
:1031C80055EA060E18D04FEA051545EA16754FEA76
:1031D80006164FEAC30343EA52734FEAC2025FEA94
:1031E8001C1CC0D111F4801F0BD141EA00014FF023
:1031F80000004FF0004CB6E711F4801F04BF0143F4
:103208000020B4F1FD0C88BFBCF5E06F3FF6AFAE0F
:10321800B5EB030C04BFB6EB020C5FEA500C50F19F
:10322800000041EB045170BD0EF0004E4EEA113122
:1032380014EB5C04C2BFD4EB0C0541EA045170BD29
:1032480041F480114FF0000E013C90E645EA060E6D
:103258008DE60CEA135594EA0C0F08BF95EA0C0F9B
:103268003FF43BAF94EA0C0F0AD150EA01347FF4E3
:1032780034AF95EA0C0F7FF425AF104619462CE7BA
:1032880095EA0C0F06D152EA03353FF4FDAE10461D
:10329800194622E750EA410618BF52EA43067FF46E
:1032A800C5AE50EA41047FF40DAF52EA43057FF4FE
:1032B800EBAE12E74A0011D212F5001211D20DD569
:1032C8006FF47873B3EB62520ED44FEAC12343F024
:1032D800004343EA505323FA02F070474FF00000CE
:1032E800704750EA013002D14FF0FF3070474FF07D
:1032F8000000704780F0004002E000BF81F000410C
:1033080042001FBF5FEA410392EA030F7FEA226C83
:103318007FEA236C6AD04FEA1262D2EB1363C1BF13
:10332800D218414048404140B8BF5B42192B88BF82
:10333800704710F0004F40F4000020F07F4018BFA5
:10334800404211F0004F41F4000121F07F4118BFC5
:10335800494292EA030F3FD0A2F1010241FA03FC6D
:1033680010EB0C00C3F1200301FA03F100F0004355
:1033780002D5494260EB4000B0F5000F13D3B0F11D
:10338800807F06D340084FEA310102F10102FE2A8C
:1033980051D2B1F1004F40EBC25008BF20F00100FC
:1033A80040EA03007047490040EB000010F4000FAA
:1033B800A2F10102EDD1B0FA80FCACF1080CB2EB3D
:1033C8000C0200FA0CF0AABF00EBC250524218439C
:1033D800BCBFD0401843704792F0000F81F4000141
:1033E80006BF80F400000132013BB5E74FEA410314
:1033F8007FEA226C18BF7FEA236C21D092EA030F80
:1034080004D092F0000F08BF0846704790EA010FF9
:103418001CBF0020704712F07F4F04D1400028BF26
:1034280040F00040704712F100723CBF00F5000008
:10343800704700F0004343F0FE4040F4000070473E
:103448007FEA226216BF08467FEA236301464202EA
:1034580006BF5FEA412390EA010F40F480007047FD
:103468004FF0000304E000BF10F0004348BF4042A3
:103478005FEA000C08BF704743F0964301464FF0DF
:1034880000001CE050EA010208BF70474FF000033B
:103498000AE000BF50EA010208BF704711F000437C
:1034A80002D5404261EB41015FEA010C02BF84464C
:1034B8000146002043F0B64308BFA3F18053A3F5AB
:1034C8000003BCFA8CF2083AA3EBC25310DB01FAF2
:1034D80002FC634400FA02FCC2F12002BCF1004F76
:1034E80020FA02F243EB020008BF20F00100704707
:1034F80002F1200201FA02FCC2F1200250EA4C005B
:1035080021FA02F243EB020008BF20EADC707047A0
:103518004FF0FF0C1CEAD0521EBF1CEAD15392EAAE
:103528000C0F93EA0C0F6FD01A4480EA010C40028A
:1035380018BF5FEA41211ED04FF0006343EA5010E4
:1035480043EA5111A0FB01310CF00040B1F5000F26
:103558003EBF490041EAD3715B0040EA010062F1D5
:103568007F02FD2A1DD8B3F1004F40EBC25008BFBF
:1035780020F00100704790F0000F0CF0004C08BFDD
:1035880049024CEA502040EA51207F3AC2BFD2F1AA
:10359800FF0340EAC250704740F400004FF00003B8
:1035A800013A5DDC12F1190FDCBF00F000407047F2
:1035B800C2F10002410021FA02F1C2F1200200FA30
:1035C80002FC5FEA310040F1000053EA4C0308BFF7
:1035D80020EADC70704792F0000F00F0004C02BF48
:1035E800400010F4000F013AF9D040EA0C0093F0C3
:1035F800000F01F0004C02BF490011F4000F013B1D
:10360800F9D041EA0C018FE70CEAD15392EA0C0F8A
:1036180018BF93EA0C0F0AD030F0004C18BF31F0F5
:10362800004CD8D180EA010000F00040704790F0CB
:10363800000F17BF90F0004F084691F0000F91F06F
:10364800004F14D092EA0C0F01D142020FD193EA35
:103658000C0F03D14B0218BF084608D180EA0100BD
:1036680000F0004040F0FE4040F40000704740F099
:10367800FE4040F4400070474FF0FF0C1CEAD05267
:103688001EBF1CEAD15392EA0C0F93EA0C0F69D0C3
:10369800A2EB030280EA010C49024FEA402037D02E
:1036A8004FF0805343EA111143EA10130CF0004025
:1036B8008B4238BF5B0042F17D024FF4000C8B4215
:1036C80024BF5B1A40EA0C00B3EB510F24BFA3EBF5
:1036D800510340EA5C00B3EB910F24BFA3EB9103C5
:1036E80040EA9C00B3EBD10F24BFA3EBD10340EA1F
:1036F800DC001B0118BF5FEA1C1CE0D1FD2A3FF665
:1037080050AF8B4240EBC25008BF20F00100704719
:103718000CF0004C4CEA50207F32C2BFD2F1FF03BC
:1037280040EAC250704740F400004FF00003013AED
:1037380037E792F0000F00F0004C02BF400010F491
:10374800000F013AF9D040EA0C0093F0000F01F0A5
:10375800004C02BF490011F4000F013BF9D041EAC7
:103768000C0195E70CEAD15392EA0C0F08D14202FA
:103778007FF47DAF93EA0C0F7FF470AF084676E7CD
:1037880093EA0C0F04D14B023FF44CAF08466EE7A6
:1037980030F0004C18BF31F0004CCAD130F0004274
:1037A8007FF45CAF31F000437FF43CAF5FE700BFCC
:1037B80042000ED2B2F1FE4F0BD34FF09E03B3EB93
:1037C800126209D44FEA002343F0004323FA02F0BF
:1037D80070474FF00000704712F1610F01D14202AB
:1037E80002D14FF0FF3070474FF00000704700BF24
:1037F800014B1868704700BF6C00002010B5431ECD
:103808000A44914200D110BD11F8014B03F8014F51
:10381800F7E703460244934200D1704703F8011BBF
:10382800F9E700000EB46FF0004100B59CB01DAB85
:1038380002900690079104910848094953F8042B0F
:103848000591006802A9019300F0B8F80022029BD4
:103858001A701CB05DF804EB03B070476C000020D0
:103868000802FFFF034610B51A785C1C3AB9013B01
:1038780011F8012B03F8012F002AF9D110BD2346B6
:10388800F2E7034613F8012B002AFBD1181A013876
:10389800704730B5141E05469BB0184605DA8B23D1
:1038A8004FF0FF302B601BB030BD4FF40273ADF802
:1038B8000C300CBF234604F1FF33029305934FF6F7
:1038C800FF7300910491ADF80E3002461E9B6946C5
:1038D800284600F073F8431CBCBF8B232B60002CD8
:1038E800E1D00022009B1A70DDE7000007B50093C5
:1038F80013460A46014603480068FFF7CAFF03B0AB
:103908005DF804FB6C0000202DE9F0478E688246C4
:103918009E420C469046994637D88A8912F4906F91
:1039280031D00223256809696F1A656905EB4505D9
:1039380095FBF3F509F101033B449D4238BF1D4651
:10394800530530D5294600F02BFB064650B90C2309
:103958004FF0FF30CAF80030A38943F04003A38139
:10396800BDE8F0873A462169FFF748FFA38923F4A9
:10397800906343F08003A38126613E4426604E464F
:103988006561ED1BA5604E4500D94E46324641465D
:10399800206800F09FFAA36800209B1BA36023689F
:1039A8001E442660DCE72A4600F054FB0646002841
:1039B800E2D12169504600F0A7FAC8E72DE9F04F97
:1039C8009DB003938B8980461D060C4616460FD57D
:1039D8000B696BB9402100F0E3FA2060206128B937
:1039E8000C23C8F800304FF0FF30C7E04023636174
:1039F8000023099320238DF8293030234FF0010B41
:103A08008DF82A3037463D4615F8013B0BB1252B7A
:103A18003ED1B7EB060A0BD0534632462146404604
:103A2800FFF772FF013000F0A480099B534409930B
:103A38003B78002B00F09D8000234FF0FF32CDE94A
:103A48000523049307938DF853301A932F460522C4
:103A580017F8011B4F4800F02FFA049BD0B9D9067C
:103A680044BF20228DF853201A0744BF2B228DF81B
:103A780053202A782A2A15D02F4600200A25079A8B
:103A8800394611F8013B303B092B4DD9B8B10FE04D
:103A98002F46B8E73F4A3D46801A0BFA00F0184314
:103AA8000490D3E7039A111D12680391002A01DBE1
:103AB800079204E0524243F00203079204933B78D2
:103AC8002E2B0CD17B782A2B33D1039B02371A1D5E
:103AD8001B680392002BB8BF4FF0FF3305932E4DA0
:103AE80003223978284600F0E7F938B14023401B13
:103AF80003FA00F0049B0137034304933978062244
:103B080026487E1C8DF8281000F0D6F9002838D0F9
:103B1800234B13BB039B073323F00703083303939B
:103B2800099B4B4409936DE705FB023201200F46C0
:103B3800A6E700230A25194601370593384610F8E9
:103B4800012B303A092A03D9002BC8D00591C6E7C2
:103B580005FB012101230746F0E703AB009322464A
:103B6800104B04A94046AFF30080B0F1FF3F8146F7
:103B7800D6D1A3895B063FF536AF09981DB0BDE8DD
:103B8800F08F03AB00932246064B04A9404600F091
:103B980081F8EAE79C4B0008A24B0008A64B0008F6
:103BA80000000000113900082DE9F04791461F4632
:103BB8008A680B6906469342B8BF1346C9F80030B5
:103BC80091F843200C46DDF8208012B10133C9F882
:103BD80000302368990642BFD9F800300233C9F88B
:103BE8000030256815F0060507D104F1190AE368C5
:103BF800D9F800209B1AAB4229DC94F8433022689C
:103C0800003318BF012392062ED404F1430239462B
:103C18003046C047013021D02368E56803F0060329
:103C2800042B18BF0025D9F800204FF0000908BF61
:103C3800AD1AA368226908BF25EAE5759342C4BF97
:103C48009B1AED181A344D451AD1002008E00123BB
:103C5800524639463046C047013003D14FF0FF3055
:103C6800BDE8F0870135C2E73020E11881F843004C
:103C78005A1C94F845102244023382F84310C4E7D2
:103C88000123224639463046C0470130E6D009F1C3
:103C98000109D8E72DE9F04301F1430C0C46097EF0
:103CA80085B06E291746064698460C9A00F0B380F0
:103CB80022D8632936D00AD8002900F0B9805829BB
:103CC80000F0838004F1420584F8421032E0642950
:103CD80001D06929F6D120681368050603F10401AB
:103CE8002AD51B681160002B03DA2D225B4284F869
:103CF80043206F480A2239E0732900F09D8008D8D4
:103D08006F2920D07029DDD1236843F02003236078
:103D180003E0752917D07829D4D17823654884F829
:103D2800453055E0136804F14205191D1B68116000
:103D380084F8423001238CE01B6810F0400F1160BA
:103D480018BF1BB2CFE713682568181D1060280636
:103D580001D51B6802E06806FBD51B886F2914BFD4
:103D68000A2208225248002184F843106568002D71
:103D7800A560C0F29580216821F004012160002B24
:103D88003DD1002D40F08E806546082A0BD123686E
:103D9800DB0708D5236962689A42DEBF302305F83D
:103DA800013C05F1FF35ACEB05032361CDF800803C
:103DB8003B4603AA21463046FFF7F6FE01304DD1B7
:103DC8004FF0FF3005B0BDE8F083394884F845105E
:103DD800136821681D1D1B6815600A060BD5CA07E4
:103DE80044BF41F0200121601BB9226822F0200263
:103DF80022601022B7E74D0648BF9BB2EFE7654641
:103E0800B3FBF2F102FB1133C35C05F8013D0B462D
:103E18000029F5D1B9E713682568181D6169106094
:103E280028061B6801D5196002E06A06FBD51980CF
:103E3800002365462361B9E71368191D11601D68E1
:103E480062680021284600F037F808B1401B60601E
:103E580063682361002384F84330A7E723692A466F
:103E680039463046C0470130AAD023689B0713D48F
:103E7800E068039B9842B8BF1846A3E701234A4667
:103E880039463046C04701309AD00135E368039A75
:103E98009B1AAB42F2DCEBE7002504F11909F5E7C0
:103EA800002BACD1037804F1420584F842306CE76A
:103EB800AD4B0008BE4B000810B5C9B20244904291
:103EC800034601D1002303E01C7801308C42F6D16F
:103ED800184610BD884210B501EB020307D8421EF0
:103EE80099420AD011F8014B02F8014FF8E78342D2
:103EF800F5D98118D21AD34200D110BD13F8014D5B
:103F080001F8014DF7E7000038B50546002943D010
:103F180051F8043C0C1F002BB8BFE41800F0D0F88F
:103F28001E4A1368104633B9636014602846BDE81A
:103F3800384000F0C6B8A3420BD9216862189342F2
:103F480001BF1A685B685218226063600460EDE77D
:103F580013465A680AB1A242FAD919685818A042F9
:103F68000BD120680144581882421960DED11068CC
:103F78005268014419605A60D8E702D90C232B60B3
:103F8800D4E7206821188A4201BF116852680918CD
:103F9800216062605C60C9E738BD00BF2C12002058
:103FA80070B5CD1C25F0030508350C2D38BF0C2540
:103FB800002D064601DBA94203D90C2333600020FB
:103FC80070BD00F07DF8214A1468214691B9204C53
:103FD80023681BB9304600F063F820602946304654
:103FE80000F05EF8431C24D10C233046336000F007
:103FF80068F8E4E70B685B1B18D40B2B0FD90B6030
:10400800CC18CD50304600F05CF804F10B00231DAD
:1040180020F00700C31AD3D05A42E250D0E74B68C9
:104028008C4216BF636013600C46EBE70C46496888
:10403800CCE7C41C24F00304A04205D0211A304662
:1040480000F02EF80130CFD02560DBE72C120020DD
:1040580030120020F8B5074614460E4621B9BDE8CF
:10406800F8401146FFF79CBF22B9FFF74DFF2546E0
:104078002846F8BD00F026F8A0420FD2214638465F
:10408800FFF78EFF05460028F2D031462246FFF79B
:10409800B5FB31463846FFF737FFE9E73546E7E72E
:1040A80038B50023054C054608462360FCF762F93D
:1040B800431C02D1236803B12B6038BD34120020A1
:1040C8007047704751F8043C181F002BBCBF0B58B1
:1040D800C0187047537461636B206672616D653AEE
:1040E8000A000000205230203D2020253038580A90
:1040F80000000000205231203D2020253038580A89
:1041080000000000205232203D2020253038580A77
:1041180000000000205233203D2020253038580A66
:104128000000000020523132203D20253038580A46
:1041380000000000204C52203D2020253038580A2D
:1041480000000000205043203D2020253038580A28
:104158000000000020505352203D20253038580AD6
:10416800000000004653522F4641523A0A00000010
:104178002043465352203D2020253038580A00005D
:104188002048465352203D2020253038580A000048
:104198002044465352203D2020253038580A00003C
:1041A8002041465352203D2020253038580A00002F
:1041B800204D4D464152203D20253038580A0000F8
:1041C8002042464152203D2020253038580A000020
:1041D8004D6973630A000000204C522F4558435F15
:1041E80052455455524E3D20253038580A0000009B
:1041F8005B486172644661756C745D0A000000007A
:104208005B4275734661756C745D0A005B5573613A
:1042180067654661756C745D0A000000424C5F4436
:10422800454255475F4D53473A20626F6F746C6F34
:10423800616465725F68616E646C655F6469735F11
:10424800726561645F70726F746563745F636D64D7
:10425800200D0A00424C5F44454255475F4D534785
:104268003A20626F6F746C6F616465725F68616E2B
:10427800646C655F6469735F77726974655F707297
:104288006F746563745F636D64200D0A000000003D
:10429800424C5F44454255475F4D53473A20626F51
:1042A8006F746C6F616465725F68616E646C655F82
:1042B800656E5F726561645F70726F746563745F69
:1042C800636D64200D0A0000424C5F444542554727
:1042D8005F4D53473A20626F6F746C6F616465720B
:1042E8005F68616E646C655F656E5F77726974653F
:1042F8005F70726F746563745F636D64200D0A008C
:10430800424C5F44454255475F4D53473A20626FE0
:104318006F746C6F616465725F68616E646C655F11
:10432800666C6173685F65726173655F636D642055
:104338000D0A00002D2D2D2D2D2D2D2D2D2D2D2D42
:104348002D2D2D2D2D2D2D2D2D2D2D2D2D2D2D2D95
:104358002D2D2D2D2D2D2D2D2D2D2D2D2D2D2D2D85
:104368002D2D2D2D0D0A0000424C5F444542554726
:104378005F4D53473A20626F6F746C6F616465726A
:104388005F68616E646C655F666C6173685F6D61C0
:1043980073735F65726173655F636D64200D0A00F6
:1043A800424C5F44454255475F4D53473A20636846
:1043B80065636B73756D2073756363657373202113
:1043C80021200D0A00000000424C5F444542554739
:1043D8005F4D53473A20636865636B73756D20665C
:1043E80061696C202121200D0A000000446576696E
:1043F80063652049443A2020202523780D0A0000CF
:104408005265766973696F6E2049443A202523788E
:104418000D0A0000424C5F44454255475F4D5347E3
:104428003A20626F6F746C6F616465725F68616E69
:10443800646C655F67657468656C705F636D642044
:104448000D0A0000424C5F44454255475F4D5347B3
:104458003A20626F6F746C6F616465725F68616E39
:10446800646C655F6765747264705F636D64200D6A
:104478000A000000424C5F44454255475F4D534790
:104488003A20626F6F746C6F616465725F68616E09
:10449800646C655F6765747665725F636D64200D33
:1044A8000A000000424C5F44454255475F4D534760
:1044B8003A20424C5F564552203A203078257820E1
:1044C8000D0A0000424C5F44454255475F4D534733
:1044D8003A20626F6F746C6F616465725F68616EB9
:1044E800646C655F676F746F5F6164647265737332
:1044F8005F636D64200D0A00424C5F444542554796
:104508005F4D53473A20474F20616464723A203028
:104518007825303278253032782530327825303297
:10452800780D0A00424C5F44454255475F4D53475A
:104538003A206A756D70696E6720746F20676F2006
:104548006164647265737321200A0000424C5F4401
:10455800454255475F4D53473A474F20616464725F
:1045680020696E76616C69642021200A00000000D1
:10457800424C5F44454255475F4D53473A20626F6E
:104588006F746C6F616465725F68616E646C655F9F
:104598006D656D5F726561645F636D64200D0A000F
:1045A8002D2D2D2D2D2D2D2D2D2D2D2D2D2D2D2D33
:1045B8002D2D2D2D2D2D2D2D2D2D2D2D2D2D2D2D23
:1045C8002D2D2D2D2D2D2D2D2D2D2D2D2D2D2D2D13
:1045D8000D0A424C5F44454255475F4D53473A20C8
:1045E800626F6F746C6F616465725F68616E646C32
:1045F800655F6D656D5F77726974655F636D642073
:104608000D0A0000424C5F44454255475F4D5347F1
:104618003A2064657374696E6174696F6E206164B1
:1046280064726573733A20307825303278253032D9
:104638007825303278253032780D0A00424C5F44B4
:10464800454255475F4D53473A20626F6F746C6F10
:10465800616465725F68616E646C655F72656164F0
:104668005F736563746F72735F7374617475735F7E
:10467800636D64200D0A0000424C5F444542554773
:104688005F4D53473A20626F6F746C6F6164657257
:104698005F68616E646C655F73797374656D5F7272
:1046A800657365745F636D64200D0A0053656E64FD
:1046B800696E6720424C5F41434B3A203078257839
:1046C8000D0A00007265706C79206C656E677468FD
:1046D8003D2025642062797465730D0A000000008E
:1046E800424C5F44454255475F4D53473A20427517
:1046F80074746F6E206973206E6F742070726573A6
:10470800736564202E2E20657865637574696E67FD
:10471800207573657220617070200D0A000000001A
:10472800424C5F44454255475F4D53473A204D53ED
:10473800502076616C7565203D20307825780D0A0B
:1047480000000000424C5F44454255475F4D5347C7
:104758003A20427574746F6E2069732070726573A5
:10476800736564202E2E20676F696E6720746F2032
:10477800424C206D6F64650D0A0000000A424C5FD0
:1047880044454255475F4D53473A20496E76616C20
:10479800696420636F6D6D616E6420636F6465206A
:1047A80072656365697665642066726F6D20686FEF
:1047B8007374200D0A000000000801400900030876
:1047C800000801400A000008040000100040001022
:1047D80025000000003801400008014002000308DD
:1047E800000801400300000804000010000002C097
:1047F8002600000000440040474554206874747047
:10480800733A2F2F6170692E7468696E67737065CB
:10481800616B2E636F6D2F7570646174653F617095
:10482800695F6B65793D314836314E343643455AB8
:104838004136354D544A266669656C64313D000041
:104848000000000000000000000000000000000060
:104858000000000000000000000000000000000050
:104868000000000000000000000000000000000040
:104878000000000000000000000000000000000030
:104888000000000000000000000000000000000020
:104898000000000000000000000000000000000010
:1048A8000000000000000000000000000000000000
:1048B80000000000000000000000000000000000F0
:1048C80000000000000000000000000000000000E0
:1048D80000000000000000000000000000000000D0
:1048E80000000000000000000000000000000000C0
:1048F80000000000000000000000000000000000B0
:10490800000000000000000000000000000000009F
:10491800000000000000000000000000000000008F
:10492800000000000000000000000000000000007F
:10493800000000000000000000000000000000006F
:10494800000000000000000000000000000000005F
:10495800000000000000000000000000000000004F
:10496800000000000000000000000000000000003F
:10497800000000000000000000000000000000002F
:10498800000000000000000000000000000000001F
:10499800000000000000000000000000000000000F
:1049A80000000000000000000000000000000000FF
:1049B80000000000000000000000000000000000EF
:1049C80000000000000000000000000000000000DF
:1049D80000000000000000000000000000000000CF
:1049E80000000000000000000000000000000000BF
:1049F800000000000000000041542B4349504D5571
:104A0800583D300D0A00000041542B43495053547F
:104A18004152543D22544350222C226170692E7415
:104A280068696E67737065616B2E636F6D222C38D1
:104A3800300D0A0041542B43495053454E443D39EB
:104A4800300D0A004745542068747470733A2F2F4C
:104A58006170692E7468696E67737065616B2E6327
:104A68006F6D2F617070732F7468696E67687474E6
:104A7800702F73656E645F726571756573743F61DD
:104A880070695F6B65793D59344A4F585544515A9E
:104A9800424C474F4D484A0D0A486F73743A61704B
:104AA800692E7468696E67737065616B2E636F6DCC
:104AB8000D0A0D0A0D0A0D0A0D0A000041542B5269
:104AC80053540D0A0000000041542B4349505345EC
:104AD8004E443D39390D0A004745542068747470B6
:104AE800733A2F2F6170692E7468696E67737065E9
:104AF800616B2E636F6D2F6368616E6E656C732FCB
:104B0800313038323539342F6669656C64732F312A
:104B18002F6C6173742E7478743F6170695F6B6574
:104B2800793D474C334D374A414B3438425238521D
:104B380052410D0A486F73743A6170692E7468693E
:104B48006E67737065616B2E636F6D0D0A0D0A0DCC
:104B58000A0D0A0D0A00000041542B4349505345E1
:104B68004E443D25640D0A000D0A486F73743A617E
:104B780070692E7468696E67737065616B2E636FF8
:104B88006D0D0A0D0A0D0A0D0A0D0A007A65667484
:104B98000A000000232D302B2000686C4C0065664D
:104BA8006745464700303132333435363738394176
:104BB800424344454600303132333435363738398C
:074BC8006162636465660091
:104BD00078563412DC0000200000000000000000C5
:104BE00000000000010203040607080900A24A04AD
:104BF00051525355565B57595F60585C545A5D5E2D
:104C000000127A0000000000000003000000000015
:104C1000000003000000000000000300000000008E
:104C2000000003000000000000000300000000007E
:104C3000000003000100000001FFFFFF70000020E2
:104C40000000000000000000000000000000000064
:104C50000000000000000000000000000000000054
:104C60000000000000000000000000000000000044
:104C70000000000000000000000000000000000034
:104C80000000000000000000000000000000000024
:104C90000000000000000000000000000000000014
:044CA000325476987C
:040000050800010DE1
:00000001FF
