:020000040800F2
:100000000050002021020008270200082B020008EF
:100010009D020008A1020008E9020008000000009B
:100020000000000000000000000000003103000894
:100030003503000800000000390300083D030008F4
:100040004D0300084D0300084D0300084D03000850
:100050004D0300084D0300084D0300084D03000840
:100060004D0300084D0300084D0300084D03000830
:100070004D0300084D0300084D0300084D03000820
:100080004D0300084D0300084D0300084D03000810
:100090004D0300084D0300084D0300084D03000800
:1000A0004D0300084D0300084D0300084D030008F0
:1000B0004D0300084D0300084D0300084D030008E0
:1000C0004D0300084D0300084D0300084D030008D0
:1000D0004D030008B92600087927000839280008D0
:1000E0004D0300084D0300084D0300080000000008
:1000F0000000000000000000000000000000000000
:1001000000000000000000005FF808F100B583B0B7
:1001100000F0ACF9304B314A1360314A1360314B77
:10012000314A03E052F8041B43F8041B2F498B4269
:10013000F8D32A4B1A682E4B9A4200D0FEE7284B80
:100140001A682C4B9A42F9D1234B2B4A13602B4A45
:1001500013602B4B02E0002243F8042B294A934200
:10016000F9D3254B1B6813B9244B1B6803B1FEE779
:1001700000F088F9694601A800F022F9224C234BCF
:10018000E41AA410002504E0204B53F825309847CA
:100190000135AC42F8DC1E4C1E4BE41AA4100025BD
:1001A00004E01C4B53F8253098470135AC42F8DC8D
:1001B0000099019802F04EFF0546174C174BE41AC0
:1001C000A41004E0013C154B53F824309847002C50
:1001D000F8DC284600F0D0F8BABADECA00000020E9
:1001E000D40000200000002050530008D800002058
:1001F0007856341232547698D800002058180020CF
:10020000D80000205C18002078030008780300085C
:1002100078030008780300087803000878030008D2
:1002200008B5FFF773FF00BEFEE71EF0040F0CBF1A
:10023000EFF30880EFF309807146414A10472DE93A
:10024000F04182B004468846124B5E6B9F6B9D6AFC
:100250001B6B13F0020F03D00E4BDB6A002B0CDB81
:100260000D4800F0B5F8CDF800803B4632462946EF
:10027000204600F00BF900BEFEE74BF6AB6100F044
:100280007FF90028ECD0034B4FF00042DA6202B055
:10029000BDE8F08100ED00E0E447000800BEFEE7A5
:1002A0001EF0040F0CBFEFF30880EFF309807146D6
:1002B000244A10472DE9F04182B004468846084B95
:1002C0005E6B9F6B9D6A074800F082F8CDF8008056
:1002D0003B4632462946204600F0D8F800BEFEE7ED
:1002E00000ED00E0F44700081EF0040F0CBFEFF330
:1002F0000880EFF309807146134A10472DE9F04159
:1003000082B004468846084B5E6B9F6B9D6A074827
:1003100000F05EF8CDF800803B4632462946204684
:1003200000F0B4F800BEFEE700ED00E00048000871
:1003300000BEFEE700BEFEE700BEFEE7704700001D
:100340003F020008B5020008FD02000800BEFEE7FB
:100350005053000800000020D8000020505300082F
:100360000000000000000000D80000205C18002001
:08037000000000000000000085
:10037800FEE7000008B503460C4A12685AB10B4A5A
:100388001068033323F003030344094A934206D851
:10039800064A136008BD054A06491160EFE703F0F5
:1003A8001DFD0C2303604FF0FF30F3E7DC00002055
:1003B800004C00205C18002001230360014B0B60F7
:1003C800704700BF040000200FB400B583B004AB31
:1003D80053F8042B01938021074803F07DFD002882
:1003E80004DC03B05DF804EB04B070470146024832
:1003F80000F034F8F5E700BFE40000202DE9F043F1
:1004080085B004460F46435633BB0425284621468B
:10041800ABBE0446384605B0BDE8F08304AA1344D1
:10042800002203F8102C4FF00408E94640464946DC
:10043800ABBE8046761B002EECD03546102E28BF6A
:1004480010250023AB42E9D214F9011B04AA1A446F
:1004580002F8101C0133F5E70E46ECE708B5FFF784
:10046800CDFF08BD08B500F0FDF8024A024B9A60BE
:1004780008BD00BF0000000800ED00E008B500F06E
:1004880019F908BDF8B504460D4617461E46274813
:10049800FFF79AFF21682648FFF796FF616825480D
:1004A800FFF792FFA1682448FFF78EFFE168234811
:1004B800FFF78AFF21692248FFF786FF6169214813
:1004C800FFF782FFA1692048FFF77EFFE1691F4817
:1004D800FFF77AFF1E48FFF777FF29461D48FFF709
:1004E80073FF1D4CE16A1D48FFF76EFF216B1C4826
:1004F800FFF76AFFE16B1B48FFF766FF15F0800FF7
:100508000AD115F4004F0CD11748FFF75DFF069983
:100518001648FFF759FFF8BD39461548FFF754FF4D
:10052800EFE731461348FFF74FFFEDE7C8460008ED
:10053800D8460008E8460008F846000808470008BA
:1005480018470008284700083847000848470008A7
:10055800584700086447000800ED00E074470008A9
:100568008447000894470008C4470008CC4700089F
:10057800A4470008B447000883691A888A4201D052
:10058800002070470268033A012A01D90020704709
:10059800023383610120704782B0002301930093E6
:1005A8002C4A136843F4803313602A4B1B6803F406
:1005B80000330093019B01330193009B1BB9019BFE
:1005C800B3F5A06FF1D1234B1B6813F4003F06D09D
:1005D80001230093009B012B04D002B07047002335
:1005E8000093F7E71C4B1A6842F010021A601A6869
:1005F80022F003021A601A6842F002021A60A3F598
:1006080080535A685A605A685A605A6842F480623D
:100618005A605A6822F47C125A605A6842F4E81206
:100628005A601A6842F080721A600A4B1B6813F00D
:10063800007FFAD0074B5A6822F003025A605A68C2
:1006480042F002025A60034B5B6803F00C03082B6C
:10065800F9D1C2E7001002400020024008B5FFF7B8
:100668009BFF08BD08B5104B1A6842F001021A60DA
:1006780059680E4A0A405A601A6822F0847222F4B5
:1006880080321A601A6822F480221A605A6822F4AA
:10069800FE025A604FF41F029A60FFF7DFFF044B17
:1006A8004FF000629A6008BD001002400000FFF899
:1006B80000ED00E01F4B5B6803F00C03042B15D022
:1006C800082B17D01BB11C4B1C4A1A6002E01A4BAE
:1006D8001A4A1A60174B5B68C3F30313184AD35CB2
:1006E800DAB215490B68D3400B607047124B134AB6
:1006F8001A60EFE70F4A53685268C3F38343023323
:1007080012F4803F05D10F4A02FB03F30A4A136033
:10071800E0E7084A526812F4003F05D0094A02FB94
:1007280003F3054A1360D5E7044A02FB03F3024AC0
:100738001360CFE7001002401C00002000127A006E
:100748000C00002000093D00B0B500AF084800F0DB
:1007580011FF084C25682946074800F00BFF85F370
:100768000888064B1C60064B1B689847B0BD00BF45
:10077800B84D000800800008F84D000808ED00E0BA
:100788000480000810B50446054BA521197058705F
:10079800044800F0EFFE2146034800F0EBFE10BDD0
:1007A80064010020844D00089C4D0008F0B583B01A
:1007B80006460D46174600F0C1FE0020044607E035
:1007C800335D02A840F8043D012100F0BDFE01346C
:1007D800AC42F5D3B84202D0012003B0F0BD0020EE
:1007E800FBE700F16043B3F5A04F08D300F1784070
:1007F800B0F5003F01D3012070470020704700206A
:100808007047002393421DD270B40AE0865D4457B6
:1008180004F00F0444EA0614CC5401339BB293420B
:100828000ED25E0010F81340602C02D9093400F88B
:100838001340751C445D602CE8D909344455E5E73C
:1008480070BC704770470023934231D2F0B416E071
:10085800A4F10A07FFB2052F1DD844F06004093C33
:100868004C5518E0A4F10A06F6B2052E03D844F058
:100878006004093C4C5501339BB2934216D2C6180A
:10088800C45C5D00240901F81340092CE0D844F049
:10089800300401F813403478013504F00F044C5546
:1008A800092CDFD844F030044C55E4E7F0BC70471D
:1008B8007047000010B5054C012221467F20FFF744
:1008C800C2FF0221204602F0AFFA10BD64010020E9
:1008D80070B5054604780134E4B2043C06590B4867
:1008E80000F048FE324621462846FFF75FFF28B150
:1008F800074800F03FFEFFF7DDFF70BD054800F038
:1009080039FE0120FFF73EFFF7E700BF1C4B000848
:10091800744B00084C4B000870B582B005460023A4
:100928000093ADF8043004780134E4B2043C06596D
:10093800124800F01FFE324621462846FFF736FFD0
:1009480030B10F4800F016FEFFF7B4FF02B070BDDB
:100958000C4800F00FFE0120FFF714FF10210A4891
:1009680000F008FE09481023837003226946FFF748
:100978006AFF0621684602F057FAE7E7204A0008AE
:10098800744B00084C4B0008504A000864010020D2
:1009980070B58AB0054626220021684603F02FFA72
:1009A8002C780134E4B2043C2E591E4800F0E2FDD4
:1009B800324621462846FFF7F9FE60BB04461A482E
:1009C80000F0D8FD1120FFF7DDFE06E0A31C174A52
:1009D800115D174AD1540134E4B2102CF6D9132210
:1009E80069461348FFF72FFF2621684602F01CFAD4
:1009F800104B00221A7008E00C4AD15C0E4800F037
:100A0800B9FD0C4A1378013313700A4B1B78102B6D
:100A1800F2D90AB070BD094800F0ACFDFFF74AFFF3
:100A2800F7E700BFC04900084C4B00082000002031
:100A380064010020FC0A0020944D0008744B000853
:100A4800F0B585B006461E4B1D68C5F30B051B683F
:100A5800002301930293039304780134E4B2043C25
:100A68000759184800F086FD3A4621463046FFF7F8
:100A78009DFE30B1144800F07DFDFFF71BFF05B067
:100A8800F0BD124800F076FD0420FFF77BFE104809
:100A980085702B0AC370002404714471062201A9D1
:100AA800FFF7D1FE0C2101A802F0BEF9294609483A
:100AB80000F060FD2146084800F05CFDDFE700BF5C
:100AC800002004E0C0490008744B00084C4B0008A3
:100AD8006401002098490008AC49000870B586B048
:100AE800054600230493ADF8143004780134E4B2C9
:100AF800043C0659294800F03DFD32462146284667
:100B0800FFF754FE002842D10446254800F032FD84
:100B18000120FFF737FE07E0A31CEA5C06AB23447D
:100B280003F80C2C0134E4B2032CF5D9039C9DF88E
:100B38000F109DF80E209DF80D309DF80C000090C8
:100B4800184800F017FD2046FFF74BFE80B91648FD
:100B580000238370032204A9FFF775FE062104A869
:100B680002F062F92468114800F004FDA04713E080
:100B78000F4800F0FFFC0C4801238370032204A9EE
:100B8800FFF761FE062104A802F04EF904E00948C7
:100B980000F0F0FCFFF78EFE06B070BD704A00084A
:100BA8004C4B0008A44A000864010020D04A000801
:100BB800F84A0008744B000870B584B00546002355
:100BC8000293ADF80C3004780134E4B2043C0659C1
:100BD8001C4800F0CFFC1C4800F0CCFC32462146F3
:100BE8002846FFF7E3FD30BB0446184800F0C2FC76
:100BF80007E0A31CEA5C04AB234403F80C2C013483
:100C0800E4B2032CF5D9019CAD7900F05BFD2946CF
:100C1800204600F0E7FD04460120FFF7B3FD0C482D
:100C28008470032202A9FFF70EFE062102A802F033
:100C3800FBF804B070BD074800F09CFCFFF73AFED3
:100C4800F7E700BF8C4C00082C4900084C4B000803
:100C580064010020744B000870B582B0054600237B
:100C6800019304780134E4B2043C0659134800F0B7
:100C780081FC134800F07EFC324621462846FFF7E7
:100C880095FD30B10F4800F075FCFFF713FE02B078
:100C980070BD0D4800F06EFC0020FFF773FD0222C6
:100CA80001A90A48FFF7CFFD04210DEB010002F06E
:100CB800BBF800F007FD00F0D5FDE8E78C4C000814
:100CC80060490008744B00084C4B00086401002080
:100CD8002DE9F041ADF6184D05460026CDF8106C0B
:100CE800ADF8146C04780134E4B2043C4FF480622B
:100CF80031460DF60C0003F082F84FF400623146DD
:100D080003A803F07CF82E59544800F033FC32460F
:100D180021462846FFF74AFD002840F09680044601
:100D28004F4800F027FCD5F8067008E0A31CEA5CE1
:100D38000DF61843234403F80C2C0134E4B2032CB9
:100D4800F4D9DDF80C5C9DF80F1C9DF80E2C9DF86D
:100D58000D3C9DF80C0C0090424800F00BFC284616
:100D6800FFF73FFD00285FD100F0ACFC3C464FF098
:100D78000108002636E003AAB9B2404601F0A8FFF0
:100D8800394A1388013313804FF480620DF60C0141
:100D980003A8FFF736FD284600F0EEFC2246294658
:100DA8000DF60C0000F0A8FC25442644BC1B304678
:100DB80002F04CFE8046384602F048FE01464046A6
:100DC80002F050FF294902F099FE02F0FFFA0246AC
:100DD8000B46274800F0CEFB0121264801F05DF8BC
:100DE8004FF480684CB10021224801F056F8B4F560
:100DF800806FC0D34FF48064BDE71B4A138801336A
:100E0800138000F04FFC0120FFF7BCFC1A480023B8
:100E1800837003220DF54161FFF715FD06210DF5DD
:100E2800416002F001F815E0144800F0A3FB1248F5
:100E38000123837003220DF54161FFF704FD0621AC
:100E48000DF5416001F0F0FF04E00D4800F092FB61
:100E5800FFF730FD0DF6184DBDE8F081984B0008FE
:100E68004C4B0008FC4B0008E00B00200000C84277
:100E7800344C00084014002064010020F84A00089F
:100E8800744B000870B582B00546002301930478BE
:100E98000134E4B2043C0659134800F06BFB1348D4
:100EA80000F068FB324621462846FFF77FFC30B148
:100EB8000F4800F05FFBFFF7FDFC02B070BD0D4866
:100EC80000F058FB0020FFF75DFC022201A90A4848
:100ED800FFF7B9FC04210DEB010001F0A5FF00F0BC
:100EE800E9FC00F015FEE8E78C4C0008844800088F
:100EF800744B00084C4B00086401002070B582B0A8
:100F080005460023019304780134E4B2043C0659F1
:100F1800134800F02FFB134800F02CFB3246214603
:100F28002846FFF743FC30B10F4800F023FBFFF7DA
:100F3800C1FC02B070BD0D4800F01CFB0020FFF79B
:100F480021FC022201A90A48FFF77DFC04210DEBD0
:100F5800010001F069FF00F0ADFC00F00BFEE8E7CE
:100F68008C4C000810480008744B00084C4B0008D3
:100F78006401002070B582B005460023019304780F
:100F88000134E4B2043C06591A4800F0F3FA1A484E
:100F980000F0F0FA324621462846FFF707FC18BB56
:100FA8000446164800F0E6FA07E0A31CEA5C02AB28
:100FB800234403F8082C0134E4B2032CF5D9009C2F
:100FC80000F078FC204600F007FE0020FFF7DAFB6F
:100FD800022201A90A48FFF736FC04210DEB0100A3
:100FE80001F022FF02B070BD064800F0C3FAFFF717
:100FF80061FCF7E78C4C0008BC4800084C4B000823
:1010080064010020744B000870B582B005460023C7
:10101800019304780134E4B2043C06591A4800F0FC
:10102800A9FA1A4800F0A6FA324621462846FFF7E0
:10103800BDFB18BB0446164800F09CFA07E0A31C49
:10104800EA5C02AB234403F8082C0134E4B2032C15
:10105800F5D9009C00F02EFC204600F03FFE002051
:10106800FFF790FB022201A90A48FFF7ECFB0421D5
:101078000DEB010001F0D8FE02B070BD064800F08B
:1010880079FAFFF717FCF7E78C4C00084848000886
:101098004C4B000864010020744B000870B582B006
:1010A800054600230093ADF8043004780134E4B217
:1010B800043C0659114800F05DFA3246214628469C
:1010C800FFF774FB30B10E4800F054FAFFF7F2FB5B
:1010D80002B070BD0B4800F04DFA0120FFF752FB3B
:1010E80000F004FC084B9870032269461846FFF785
:1010F800AAFB0621684601F097FEE9E7F0490008D7
:10110800744B00084C4B00086401002070B588B08F
:1011180005460023029303930493059306930793CC
:1011280004780134E4B2043C06591B4800F022FA62
:101138001A4800F01FFA324621462846FFF736FBC8
:1011480030B1174800F016FAFFF7B4FB08B070BDCD
:10115800144800F00FFA00F0C9FB8DF8070000F002
:1011680007FC00900A20FFF70DFB022202A90E4897
:10117800FFF769FB012203A90DF10700FFF763FBE5
:1011880004220DF10E016846FFF75DFB182102A845
:1011980001F04AFEDAE700BF8C4C0008504C00080A
:1011A800744B00084C4B00086401002070B582B0F5
:1011B80005460023019304780134E4B2043C06593F
:1011C800124800F0D7F9124800F0D4F93246214607
:1011D8002846FFF7EBFA30B10E4800F0CBF9FFF7DD
:1011E80069FB02B070BD0C4800F0C4F90020FFF79D
:1011F800C9FA022201A90948FFF725FB04210DEBD2
:10120800010001F011FE00F0B9FBEAE78C4C000880
:10121800504D0008744B00084C4B00086401002036
:10122800F0B5ADF5017D05464FF400720021684622
:1012380002F0E5FD474B1E782C780134E4B2043CFB
:101248002F59454800F096F9444800F093F93A467A
:1012580021462846FFF7AAFA002874D104464048D8
:1012680000F088F93501EDB22846FFF78BFA59E00E
:10127800601CC0B2A21C3B4B0101995421013A4A9F
:101288000A444FEA122CE71C03F807C04FEA124C35
:10129800271D03F807C0120E671DDA55CFB2A21D2D
:1012A80007F1140C03F802C0304A0A444FEA122E20
:1012B80004F1070C03F80CE04FEA124E04F1080C95
:1012C80003F80CE0120E04F1090C03F80C2004F1E9
:1012D8000A0207F1180C03F802C0254A0A444FEA2B
:1012E800122E04F10B0C03F80CE04FEA124E04F135
:1012F8000C0C03F80CE0120E04F10D0C03F80C2092
:1013080004F10E021C379F541A4A0A44170A04F1C2
:101318000F015F54170C04F110015F54120E1134C1
:101328001A550446B442A3D3023505F0FE052A46F1
:1013380069460C48FFF787FA6900684601F074FDB2
:101348000DF5017DF0BD0C4800F014F9FFF7B2FA75
:10135800F6E700BF004C00088C4C0008F448000871
:101368004C4B000864010020104C0008144C000885
:10137800184C00081C4C0008744B000800B5ADF26E
:10138800644D634800F0F6F8624C634B2360002517
:10139800E5710D23A3800323A371204600F03AFDD5
:1013A8000121204600F079FD5C4800F0E3F85C4C30
:1013B80004F110030FCB8DE80F0094E80F0001F043
:1013C80093FB4FF47A7000F02BF9564801F0D4FBE8
:1013D8004FF47A7000F024F95349544801F0E4FBC3
:1013E80041F2883000F01CF9514800F0C3F840F28F
:1013F8004C42294604A802F002FD06E04D48FFF7DA
:101408008BFA43F6982000F00BF900218DF85F1451
:10141800484C4FF47A72204602F0F1FC04A801F01F
:101428009DFD01220DF25F4104A8FFF7EAF99DF83E
:101438005F24214601F8012B0DF11200FFF7E1F9B5
:101448006378513B0F2B5FD801A252F823F000BFFD
:101458000514000899140008A1140008F1140008E4
:10146800A9140008B1140008C1140008E114000808
:10147800C9140008F9140008B9140008E914000890
:101488000115000809150008D1140008D91400082E
:101498002848FFF77DFAB4E72648FFF7D1FAB0E706
:1014A8002448FFF71BFBACE72248FFF785FBA8E7BA
:1014B8002048FFF7D1FBA4E71E48FFF709FCA0E787
:1014C8001C48FFF705FA9CE71A48FFF7DBFC98E78A
:1014D8001848FFF713FD94E71648FFF74BFD90E710
:1014E8001448FFF791FD8CE71248FFF7D7FD88E70E
:1014F8001048FFF70BFE84E70E48FFF757FE80E71A
:101508000C48FFF78DFE7CE70B4800F033F878E7CE
:101518001C4E00084014002000100140544E0008E2
:10152800504F0008904E0008A44E0008B44E000822
:10153800BC4E000864020020E84E0008014B01225E
:101548009A6070470030024000238B420CD210B4DE
:1015580050F82340064A146001338B42F8D31846EA
:10156800034B186810BC70471846014B1868704741
:10157800003002400FB470B58AB00EAB53F8042B9C
:1015880009930F4DC821284602F0A6FC86B22846CA
:1015980002F06DFC0B4C01230693C0B20590049534
:1015A80004F110030FCB8DE80F0094E80F0000F052
:1015B80099FD30460AB0BDE8704004B0704700BFDE
:1015C800000B0020304F000810B584B000238DF8C0
:1015D8000F304FF07E5302930E4B019300F0C8FD7D
:1015E8008DF80F009DF80F30DBB2022B04D0019A62
:1015F800094B1A6004B010BD00F09AFE02900198E1
:10160800029C02F023FA214602F078FA02F0C6FBA7
:101618000190ECE700127A0034000020000000007E
:1016280030B583B0044600230193FFF7CDFF204671
:1016380001F0AAFE0022184B01F020FF12A3D3E903
:10164800002301F063FD0022144B01F05FFD044606
:101658000D46134B186801F097FE02460B462046CC
:10166800294601F00BFF0AA3D3E9002302F030F862
:1016780002F016F9019B834203D2019B01330193C7
:10168800F8E703B030BD00BF0000000000A06740CD
:1016980000000000E0CA684100408F4000000C4094
:1016A80034000020064B1A6842F080021A601B685A
:1016B80013F0800F01D0012070470220704700BF4F
:1016C80010200240094B0A4A1A6002F188321A6057
:1016D800084B1B6813F0800FFAD1064B1B6813F0F8
:1016E800800F01D10120704702207047042002407A
:1016F800230167451020024030B41D4B1C6814F0CC
:101708000104FAD11B4D2B6843F001032B602546D9
:1017180000E00135B5EB520F09D230F8153021F849
:101728001530134B1B6813F0010FFAD1F1E7104B7A
:101738001B6813F0200FFAD00D4D2B6843F02003DF
:101748002B6004352B6823F001032B600223B4EBD4
:10175800920F09D251F8245050F824309D4202D1FA
:1017680001340123F3E70223184630BC704700BF59
:101778000C2002401020024082B002238DF807306E
:10178800154B1A6842F002021A60144A10601A686F
:1017980042F040021A60124B1B6813F0010FFAD195
:1017A8000F4B1B6813F0200FFAD00D4A136843F053
:1017B800200313600432136823F0020313600368E4
:1017C800B3F1FF3F03D09DF8070002B07047012333
:1017D8008DF80730F7E700BF1020024014200240C0
:1017E8000C20024010B41C4A136843F00203136033
:1017F800002200E0013291420ED900EB8223174CFF
:101808002360043C236843F040032360144B1B68A7
:1018180013F0010FFAD1EDE7114B1B6813F0200FFD
:10182800FAD00F4A136843F0200313600432136898
:1018380023F00203136000230222B3EB012F07D227
:101848001A58B2F1FF3F02D101330122F5E7022213
:10185800104610BC704700BF102002401420024000
:101868000C200240114B1A6842F004021A601A68F0
:1018780042F040021A600E4B1B6813F00103FAD1C4
:101888000A490A6822F004020A600220B3F5804F70
:1018980008D203F100621268B2F1FF3F03D10133AD
:1018A8000120F3E770470220704700BF1020024074
:1018B8000C20024008B5FFF705FF094B094A1A60DA
:1018C80002F188321A60084B1B6813F4007FFAD0C3
:1018D800054B1B6813F4007F00D1012008BD00BF31
:1018E800082002402301674510200240024B186877
:1018F80000F00200704700BF1C20024008B51A4BD8
:101908001B6813F0010FFAD1FFF7D4FF174B1A68C1
:1019180042F020021A601A6842F040021A60124B24
:101928001B6813F0010FFAD10F4B1B6813F0200F3F
:10193800FAD00D4A136843F0200313600432136889
:1019480023F02003136000230F2B0BD803F1005260
:10195800A2F500621278FF2A03D10233DBB201201C
:10196800F2E7022008BD00BF0C2002401020024010
:10197800014B1868704700BF2020024003490A68DD
:1019880002F4E062024B13430B6070470CED00E079
:101998000400FA0501290AD001BB0023B3F5806FC2
:1019A8001ED2195C194AD15401339BB2F6E710B420
:1019B80000230F2B05D81C5C154AD45401339BB265
:1019C800F7E7002302220F2B19D8114AD45C1A5CBE
:1019D800944213D101339BB20A46F4E7022212E083
:1019E80000230222B3F5806F0DD2084AD15C1A5C3D
:1019F800914207D101339BB20122F3E7022210463C
:101A080010BC704702221046704700BF58140020CF
:101A180048140020F0B4012B27D043BB00238B428D
:101A280029D20468DD00EC400460D5181B4E7455BB
:101A380001339BB2F3E70568E600F5400560161927
:101A4800174FBD550134A4B28C42F4D300240225AB
:101A58008C420DD210F824601519114F7D5DAE42ED
:101A680018D10134A4B21D46F2E70024ECE70225A0
:101A78002846F0BC7047002302258B42F8D210F8A4
:101A88002350D418054E345DA54205D101339BB2CD
:101A98000125F2E70225EBE70225E9E758140020C3
:101AA8004814002038B504460D46012902D099B1E2
:101AB800022038BD102201461348FFF71DFE0023FF
:101AC80002200F2BF5D8195D0F4AD25C914217D12D
:101AD80001339BB22846F4E74FF4806201460B4875
:101AE800FFF70AFE00230220B3F5806FE1D2195DEB
:101AF800064AD25C914205D101339BB20120F3E73B
:101B08000220D6E70220D4E7481400205814002009
:101B180010B582B0FF230193134B1B6813F0010F1C
:101B2800FAD1124C01212046FFF734FFFFF7E6FEF9
:101B38000F4A136843F010031360012300220221A7
:101B480001A8FFF767FF01212046FFF7ABFF064B0F
:101B58001B6813F0010FFAD1054A136823F010032C
:101B6800136002B010BD00BF0C20024000F8FF1F38
:101B78001020024010B582B0A5230193134B1B68B7
:101B880013F0010FFAD1124C01212046FFF702FF92
:101B9800FFF7B4FE0F4A136843F0100313600123E4
:101BA8000022022101A8FFF735FF01212046FFF797
:101BB80079FF064B1B6813F0010FFAD1054A136829
:101BC80023F01003136002B010BD00BF0C200240C8
:101BD80000F8FF1F1020024010B582B004463A4AB0
:101BE8001368DBB21268120A02F47F4213433749C2
:101BF8000A68120402F47F0213430A68120202F010
:101C08007F42134323EA00030193314B1B6813F00F
:101C1800010FFAD101212F48FFF7BCFEFFF76EFE36
:101C28002D4A136843F010031360631E7F2B16D9E7
:101C3800A4F18103B3F5FF4F27D3A4F50043013B7B
:101C4800B3F5FF0F2BD3A4F50004013CB4F1FF4F0B
:101C58002FD3214A136823F01003136013E00123E4
:101C68000822194601A8FFF7D5FE01211948FFF7F8
:101C780019FF174B1B6813F0010FFAD1164A1368A6
:101C880023F01003136002B010BD019B1B0A0193DF
:101C980001230A22194601A8FFF7BCFEE5E7BDF8B3
:101CA8000630019301230C22194601A8FFF7B2FE62
:101CB800DBE79DF80730019301230E22194601A89E
:101CC800FFF7A8FED1E700BF08F8FF1F0CF8FF1FB9
:101CD8000C20024000F8FF1F1020024010B582B00F
:101CE8000446474A1368DBB21268120A02F47F42BC
:101CF800134344490A68120402F47F0213430A6832
:101D0800120202F07F421343034301933E4B1B68C8
:101D180013F0010FFAD101213C48FFF73BFEFFF712
:101D2800EDFD3B4A136843F010031360631E7F2BDD
:101D380019D9A4F18103B3F5FF4F2AD3A4F50043C1
:101D4800013BB3F5FF0F2ED3A4F50003013BB3F11C
:101D5800FF4F32D3B4F1FF3F39D02D4A136823F037
:101D68001003136013E001230822194601A8FFF7A6
:101D780051FE01212548FFF795FE234B1B6813F000
:101D8800010FFAD1224A136823F01003136002B03E
:101D980010BD019B1B0A019301230A22194601A8C1
:101DA800FFF738FEE5E7BDF80630019301230C2262
:101DB800194601A8FFF72EFEDBE79DF807300193CF
:101DC80001230E22194601A8FFF724FED1E70123BB
:101DD8000822194601A8FFF71DFE01230A22194609
:101DE80001A8FFF717FE01230C22194601A8FFF7E7
:101DF80011FE01230E22194601A8FFF70BFEB8E7D2
:101E080008F8FF1F0CF8FF1F0C20024000F8FF1F06
:101E18001020024030B482B00246002318461468ED
:101E28000193B2F904108BB2072B15D823680193DC
:101E380089000F2303FA01F5019B23EA05030193A7
:101E4800D379927913438B40019A13430193019BF1
:101E5800236002B030BC7047083B9BB2072B19D8EF
:101E68001BB29380616801919B000F2101FA03F571
:101E7800019921EA05010191D1799579294301FA5E
:101E880003F301990B430193019B63609388083323
:101E98009380DEE74FF00100DBE710B403464FF014
:101EA80000001A68012909D089B9D168B3F904403A
:101EB8000123A34021EA0301D16006E0D168B3F908
:101EC80004400123A3401943D16010BC70474FF070
:101ED8000100FAE710B483B000238DF804300468D9
:101EE800B0F9042093B20F2B09D8A368D34003F0AC
:101EF80001030B709DF8040003B010BC7047012368
:101F08008DF80430F6E7000070B586B004460D463B
:101F180000228DF8172001238DF816304FF07E51DE
:101F2800049136490391ADF80A308DF80930ADF8BF
:101F3800062000F01DF98DF817009DF81730DBB268
:101F4800022B45D02E4B9D4250D0012000F06CF959
:101F5800C0B28DF81600039B9DF81620D2B2B3FBD1
:101F6800F2F30393039B2501B3FBF5F39BB2ADF8A2
:101F78000A30039801F06AFD0646204601F066FD26
:101F88004FF0834101F0BAFD0146304601F06AFE88
:101F980004460398B0FBF5F001F058FD01462046D1
:101FA80001F0A2FC4FF0834101F0A8FD01F0F6FE1C
:101FB800C0B28DF80900BDF80A209DF8093043EA3F
:101FC80002139BB2ADF80630BDF8060006B070BD2E
:101FD80000F0AEF904900398049E01F037FD3146F5
:101FE80001F08CFD01F0DAFE0390ABE7022000F06F
:101FF8001BF9C0B28DF81600ADE700BF00127A00D9
:102008000038014084B038B504AC84E80F000D9D59
:102018000E9C9DF8280000F07DF8099800F0C2F8A1
:10202800089800F0BFF806A8FFF7F4FE012106A8FB
:10203800FFF733FF04A8FFF7EDFE0B990C98FFF7A5
:1020480063FF01466FF440539D4203D0B5F5005F2E
:1020580000D01D466FF480639C4206D0B4F5806FB3
:1020680003D0B4F5C06F00D01C4623462A460B980F
:1020780000F000FABDE8384004B0704718B108B560
:1020880000F0AAFA08BD0120704784B008B50DF128
:10209800080C8CE80F000A999DF82C2051B122B940
:1020A8000120BDE8084004B07047099800F044FAE0
:1020B8000020F6E70120F4E784B008B50DF1080C1C
:1020C8008CE80F000A999DF82C2049B122B901200B
:1020D800BDE8084004B07047099800F055FAF7E7E2
:1020E8000120F5E784B008B50DF1080C8CE80F0065
:1020F8000A999DF82C2059B122B90120BDE8084061
:1021080004B070470C9B099800F0D8F90020F5E757
:102118000120F3E71F2808D9A0F12003DBB21F2B09
:102128000CD93F2B13D901207047012303FA00F083
:102138000C4A13680343136000207047012202FA17
:1021480003F309490A681A430A60002070474038B7
:10215800C0B2012303FA00F0044A13680343136072
:102168000020704700E100E004E100E008E100E041
:102178000B4B1B6813F00C0F0BD0094B1B6813F0AB
:10218800040F08D1064B1B6813F0080F05D1012076
:10219800704700207047012070470220704700BF39
:1021A8000410024010F0805F06D020F080500D4AE5
:1021B800136818431060704700F04043B3F1404F74
:1021C80009D010F0005F05D020F00050064A1368CF
:1021D80018431060704720F04040044A13681843C1
:1021E8001060704718100240141002401C10024082
:1021F80010F1810F10D06FF4806398420CD06FF407
:102208000053984208D06FF44043984204D0054ADE
:102218001368184310607047024A1368184010602A
:10222800704700BF0410024082B0002301933F4B67
:102238001B6803F0F0030193019B802B19D9019BC4
:10224800802B1ED0019B902B1DD0019BA02B1CD056
:10225800019BB02B1BD0019BC02B1AD0019BD02B0C
:1022680019D0019BE02B18D0019BF02B18D000232C
:1022780000E00123012816D0022835D0184602B004
:1022880070470223F6E70423F4E70823F2E7102354
:10229800F0E74023EEE78023ECE74FF48073E9E7AB
:1022A8004FF40073E6E7214A126802F4E0620192F3
:1022B800019AB2F5806F0ED0019AB2F5A06F0DD0D9
:1022C800019AB2F5C06F0CD0019AB2F5E06FD5D182
:1022D8001B019BB2D2E75B009BB2CFE79B009BB28E
:1022E800CCE7DB009BB2C9E7104A126802F46052DF
:1022F8000192019AB2F5005F0ED0019AB2F5205F03
:102308000DD0019AB2F5405F0CD0019AB2F5605F2A
:10231800B4D11B019BB2B1E75B009BB2AEE79B0057
:102328009BB2ABE7DB009BB2A8E700BF04100240FA
:1023380010B582B000230193424B1B6803F480332D
:102348000193019BB3F5803F43D002203D4B1B68AE
:1023580003F470130193019BB3F5701F47D0019BE1
:10236800B3F5802F4ED0019BB3F5002F4CD0019BC5
:10237800B3F5402F4BD0019BB3F5801F49D0019B8B
:10238800B3F5A01F47D0019BB3F5C01F45D0019BF3
:10239800B3F5E01F44D0019BB3F5001F42D0019B69
:1023A800B3F5101F40D0019BB3F5201F3ED0019B11
:1023B800B3F5301F3CD0019BB3F5401F3AD0019BC9
:1023C800B3F5501F38D0019BB3F5701F36D00024E9
:1023D80010E01C4B1B6803F400330193019BB3F519
:1023E800003F02D0019B0120B0E70220AEE70223A4
:1023F8000193002401F02EFB0146204601F032FC37
:1024080002B010BD104CF5E74FF08144F2E70F4CD5
:10241800F0E70F4CEEE70F4CECE74FF08244E9E7AA
:102428000D4CE7E70D4CE5E70D4CE3E70D4CE1E714
:102438000D4CDFE70D4CDDE70D4CDBE74FF0834437
:10244800D8E700BF04100240000040400000A04050
:102458000000C0400000E0400000104100002041A2
:102468000000304100004041000050410000604140
:102478000000704110B4C46844F40054C460816022
:102488006FF440518A4210D001690A4302616FF427
:10249800806293420DD0C2681343C360C36843F09F
:1024A8000C03C360002010BC704701690A40026138
:1024B800EDE7C2681340C360F0E7000070B5054659
:1024C8001E46134B984209D0A3F57443984218D07E
:1024D80003F58063984202D10E4C00E00E4C216057
:1024E8002271002363716379227993420BD22268A7
:1024F800D35C6B603046FFF793F8637901336371FF
:10250800F1E7064CEBE7002323602371637170BD8C
:1025180000380140600000205000002058000020D2
:10252800012A05D0C36823EA0103C360002070476D
:10253800C3680B43C360F9E710B50F4CA04209D03C
:10254800A4F57444A0420BD004F58064A04202D1E3
:102558000A4B00E00A4B9C79032C03D0012010BDE4
:10256800084BF8E719601A7102229A71012280213A
:10257800FFF7D6FF0020F2E7003801406000002096
:10258800500000205800002010B50F4B984209D089
:10259800A3F5744398420BD003F58063984202D1A7
:1025A8000A4C00E00A4CA379032B03D0012010BD8C
:1025B800084CF8E72160227101222021FFF7B0FFC3
:1025C8000223A3710020F2E70038014048000020F0
:1025D8003800002040000020094B994208D0094BE0
:1025E800994209D0084B994204D1084B186001E080
:1025F800074B186000207047064B1860FAE700BFC9
:10260800003801400044004000480040D00B002042
:10261800C80B0020CC0B002008B50D4A904209D009
:10262800A2F57442904210D002F58062904202D125
:10263800084B00E0084B00221A605A711A710321F6
:1026480099712021FFF76CFF08BD044BF3E700BF29
:1026580000380140480000203800002040000020D9
:1026680008B50F4A904209D0A2F57442904214D09E
:1026780002F58062904202D10A4B00E00A4B002228
:102688001A605A711A7103219971036823F0400383
:1026980003608021FFF744FF08BD044BEFE700BF4C
:1026A8000038014060000020500000205800002041
:1026B80000B583B0274B1B680193274B1B6803F0B9
:1026C80080030093019B1BB1244B9B79022B08D0FC
:1026D800009B1BB1224B9B79022B24D003B05DF8E1
:1026E80004FB204B1B6813F4806F19D0194B1B781F
:1026F80003F07F0333B1194A106851794354537971
:1027080001335371154B5A791B799A42E0D112481B
:10271800FFF782FF144B1B68002BD9D09847D7E7E7
:102728000C4B1B78E6E70E4B5A791B799A4208D076
:102738000B4B1968895C074A11605A7901325A7142
:10274800CCE70548FFF78CFF084B1B68002BC5D06A
:102758009847C3E70438014000380140380000209A
:10276800500000200C380140C80B0020D40B00207A
:1027780000B583B0274B1B680193274B1B6803F0F8
:1027880080030093019B1BB1244B9B79022B08D03B
:10279800009B1BB1224B9B79022B24D003B05DF820
:1027A80004FB204B1B6813F4806F19D0194B1B785E
:1027B80003F07F0333B1194A1068517943545379B0
:1027C80001335371154B5A791B799A42E0D112485B
:1027D800FFF722FF144B1B68002BD9D09847D7E787
:1027E8000C4B1B78E6E70E4B5A791B799A4208D0B6
:1027F8000B4B1968895C074A11605A7901325A7182
:10280800CCE70548FFF72CFF084B1B68002BC5D009
:102818009847C3E7044400400044004040000020BB
:10282800580000200C440040CC0B0020D80B00209E
:1028380000B583B0274B1B680193274B1B6803F037
:1028480080030093019B1BB1244B9B79022B08D07A
:10285800009B1BB1224B9B79022B24D003B05DF85F
:1028680004FB204B1B6813F4806F19D0194B1B789D
:1028780003F07F0333B1194A1068517943545379EF
:1028880001335371154B5A791B799A42E0D112489A
:10289800FFF7C2FE144B1B68002BD9D09847D7E727
:1028A8000C4B1B78E6E70E4B5A791B799A4208D0F5
:1028B8000B4B1968895C074A11605A7901325A71C1
:1028C800CCE70548FFF7CCFE084B1B68002BC5D0AA
:1028D8009847C3E7044800400048004048000020EB
:1028E800600000200C480040D00B0020DC0B0020CA
:1028F80010B586B05A4BDB698BB95A4B1B78DBB2E3
:10290800012B1BD0584B1B78DBB24F2B00F09E805D
:10291800564B1B78DBB2544A137006B010BD504CAE
:1029280001230593514B049304F110030FCB8DE859
:102938000F0094E80F00FFF7A8FBDEE74C4B1B786D
:10294800002B61D04B4B1B68B3F5006F52D2474B3D
:102958001A78D2B21B78DBB22B2B18BF3C2A02D1D3
:10296800434B00221A70414B1B78DBB2202B41D01D
:102978003E4B1B78DBB20A2B3CD03C4B1B78DBB2BE
:102988003C2B37D0394B1B78DBB22B2B32D0374B53
:102998001B78DBB20D2B2DD0344B1B78DBB2492BC7
:1029A80028D0324B1B78DBB2502B23D02F4B1B780F
:1029B800DBB23A2B1ED02D4B1B78DBB2722B19D011
:1029C8002A4B1B78DBB23E2B14D0284B1B78DBB28A
:1029D8006E2B0FD0284B1B68284A1268934202D3EB
:1029E800274A012111700133234A1360244B1B78B5
:1029F800012B17D01C4B1B78DBB2432B1DD01B4B74
:102A08001B78DBB2184A1370184B1A78D2B21B78AD
:102A1800DBB23E2B18BF3A2A7FF47FAF144B01225A
:102A28001A707AE7134B1968104A1278D2B215480F
:102A380042541A6801321A60DCE70C4B1B78DBB28F
:102A48004C2BDCD1104B00221A70DDE7074B1B78AA
:102A5800DBB24B2B7FF45CAF0B4B00221A705CE7A8
:102A6800E41300202C1400202E1400202F14002022
:102A780030140020241400202814002068000020AE
:102A88002D140020E40B00206C00002030B587B026
:102A9800054601F0ECF9114CC0B20590049504F11B
:102AA80010030FCB8DE80F0094E80F00FFF7EDFA45
:102AB8000DE00A4C01230593094B049304F110031C
:102AC8000FCB8DE80F0094E80F00FFF7F5FA054BE0
:102AD8001B78002BEDD107B030BD00BF04140020D7
:102AE8002F1400206C00002084B0F0B58DB012AC1B
:102AF80084E80F001E4A09AB07CA03C31A706FF4B3
:102B0800806306936FF4405305934FF4E1330493C5
:102B180016AB0FCB8DE80F0094E80F00FFF772FAA1
:102B2800074648B142F21070FEF77AFD38460DB0FC
:102B3800BDE8F04004B070470E4E344612AD0FCDDC
:102B48000FC495E80F0084E80F0009AD284601F08E
:102B58008EF901230693C0B20590049594E80F00FE
:102B68008DE80F0096E80F00FFF7BCFADAE700BF20
:102B78004452000804140020084B01221A70084B24
:102B8800D96909B90120704710B504460548FFF70F
:102B980075FA2046FFF77AFF002010BD6C00002070
:102BA80004140020F92800082DE9F0418EB00646EB
:102BB8008846404B0AAC0FCB07C424F8023B1B0CD9
:102BC80023703D4B09933D4B08933D4B01221A70EE
:102BD8003C4BD96919B901200EB0BDE8F0813A48DB
:102BE800FFF74CFA0AAD284601F041F9354C0127A8
:102BF8000697C0B20590049504F1100595E80F00FA
:102C08008DE80F0094E80F00FFF76CFA304601F0EA
:102C18002EF90697C0B20590049695E80F008DE846
:102C28000F0094E80F00FFF75DFA09AE304601F097
:102C38001EF90697C0B20590049695E80F008DE836
:102C48000F0094E80F00FFF74DFA404601F00FF926
:102C58000697C0B20590CDF8108095E80F008DE872
:102C68000F0094E80F00FFF73DFA08AE304601F078
:102C7800FEF80697C0B20590049695E80F008DE817
:102C88000F0094E80F00FFF72DFA0DE00D4C01231B
:102C980005930E4B049304F110030FCB8DE80F003E
:102CA80094E80F00FFF708FA054B1B78002BEDD1CD
:102CB800002091E770510008222C2200220D0A0002
:102CC8006C00002004140020F92800082F140020AC
:102CD800F0B5B3B00F461646444B2EAC0FCB07C425
:102CE800238023AC424D0FCD0FC40FCD0FC495E800
:102CF800070084E807003F4B1FAC0FCB84E80F00A8
:102D080077223D4901A801F06FF84FF400620021D5
:102D18003A4801F074F804220021304601F06FF8B7
:102D28000023374A1360374A1370374A1360374A0B
:102D380013707900CB0A364A138040F2FE721142B2
:102D480002D00133324A1380324B1B88DB02324AED
:102D58001360324BD96911B9012033B0F0BD304846
:102D6800FFF78CF92EA8FFF707FF4FF47A70FEF7EC
:102D780057FC23A8FFF700FF4FF47A70FEF750FCCA
:102D88001FA8FFF7F9FE4FF47A70FEF749FC254CAF
:102D98000123237001A8FFF7EFFE00232370184BCF
:102DA8001B68013B154AD35CDBB24C2B12D0144B89
:102DB8001B68023B114AD35CDBB2432B10D00023C3
:102DC8000E4AD15CF15401339BB2D25C002AF7D190
:102DD8000020C2E70A4B1B68013B0021D154E6E7FB
:102DE800074B1B68023B0021D154E8E780510008DB
:102DF80090510008BC510008CC510008E40B002099
:102E08002414002030140020281400202D14002041
:102E1800E20B0020E00B00206800002004140020D2
:102E2800F92800082C140020F0B5ADF51F7D0746E1
:102E38000E46404B9AAC0FCB07C423808FAC3E4D57
:102E48000FCD0FC40FCD0FC495E8070084E8070025
:102E580000248A948B948C948D948E9447223749BD
:102E68000AA800F0C1FF40F2B91221460DF16F0027
:102E780000F0C5FF01ADDFF8E0C0BCE80F000FC5EA
:102E8800BCE80F000FC5DCF800302B60ADF802403D
:102E9800214606E001F14603785C0AAAD0540131C4
:102EA80089B2B142F6D301A90AA800F0D1FF0AA855
:102EB80000F0DDFF80B2ADF80200BDF80230023B41
:102EC8009BB2ADF80230BDF802201D498AA800F077
:102ED8009FFF1C4BD96919B901200DF51F7DF0BD65
:102EE8001948FFF7CBF89AA8FFF746FE4FF47A7017
:102EF800FEF796FB8FA8FFF73FFE4FF47A70FEF7B8
:102F08008FFB8AA8FFF738FE4FF47A70FEF788FB2C
:102F18000E4C012323700AA8FFF72EFE0020207014
:102F28000B490B68013B0B4AD0540B68023BD05449
:102F3800D3E700BF8051000890510008704F000887
:102F4800E052000804140020F92800082C1400207E
:102F580024140020E40B0020F052000870B5B4B02F
:102F680006462F4B30AC0FCB07C4238025AC2D4D24
:102F78000FCD0FC40FCD0FC495E8070084E80700F4
:102F8800294B21AC0FCB84E80F007E22274901A8EA
:102F980000F02AFF4FF400620021254800F02FFFBF
:102FA8000023244A1360244A1370244B01221A7008
:102FB800234BD96911B9012034B070BD2148FFF7FE
:102FC8005DF830A8FFF7D8FD4FF47A70FEF728FBBC
:102FD80025A8FFF7D1FD4FF47A70FEF721FB21A851
:102FE800FFF7CAFD4FF47A70FEF71AFB164C01235F
:102FF800237001A8FFF7C0FD002323700D48026865
:10300800013A0B498B540268023A8B54084AD15C46
:10301800F15401339BB2D25C002AF7D10020CBE7F0
:103028008051000890510008505200086052000872
:10303800E40B002024140020301400202D1400205C
:1030480004140020F92800082C14002000B58DB0C5
:10305800FFF76EF94FF48060FFF7CAF82248FFF7D0
:10306800A1F82248FFF79EF82148FFF79BF821486E
:10307800FFF798F8204C6FF4806306936FF4405381
:1030880005934FF4E133049304F110030FCB8DE85B
:103098000F0094E80F00FEF7B5FF184B09930823BB
:1030A8008DF82B300C23ADF8283000238DF82A300A
:1030B80009A8FEF7AFFE012109A8FEF7EEFEC82019
:1030C800FEF7AEFA0DF12F0109A8FEF703FF9DF8F0
:1030D8002F302BB1FDF738FB0948FDF775F9FBE7F1
:1030E800FEF74CF9F8E700BF0800001010000010C8
:1030F8004000002010000020304F0008000C014064
:103108001453000881F0004102E000BF83F000433F
:1031180030B54FEA41044FEA430594EA050F08BF6A
:1031280090EA020F1FBF54EA000C55EA020C7FEA2E
:10313800645C7FEA655C00F0E2804FEA5454D4EBAB
:103148005555B8BF6D420CDD2C4480EA020281EA75
:10315800030382EA000083EA010180EA020281EAAD
:103168000303362D88BF30BD11F0004F4FEA0131FF
:103178004FF4801C4CEA113102D0404261EB41010E
:1031880013F0004F4FEA03334CEA133302D0524294
:1031980063EB430394EA050F00F0A780A4F1010450
:1031A800D5F1200E0DDB02FA0EFC22FA05F280188A
:1031B80041F1000103FA0EF2801843FA05F3594170
:1031C8000EE0A5F120050EF1200E012A03FA0EFCEF
:1031D80028BF4CF0020C43FA05F3C01851EBE37119
:1031E80001F0004507D54FF0000EDCF1000C7EEB36
:1031F80000006EEB0101B1F5801F1BD3B1F5001F74
:103208000CD349085FEA30004FEA3C0C04F1010492
:103218004FEA445212F5800F80F09A80BCF1004FBB
:1032280008BF5FEA500C50F1000041EB045141EA3D
:10323800050130BD5FEA4C0C404141EB010111F43E
:10324800801FA4F10104E9D191F0000F04BF0146E9
:103258000020B1FA81F308BF2033A3F10B03B3F1C7
:1032680020020CDA0C3208DD02F1140CC2F10C0257
:1032780001FA0CF021FA02F10CE002F11402D8BFB5
:10328800C2F1200C01FA02F120FA0CFCDCBF41EA81
:103298000C019040E41AA2BF01EB0451294330BD50
:1032A8006FEA04041F3C1CDA0C340EDC04F114042D
:1032B800C4F1200220FA04F001FA02F340EA030004
:1032C80021FA04F345EA030130BDC4F10C04C4F14A
:1032D800200220FA02F001FA04F340EA030029462A
:1032E80030BD21FA04F0294630BD94F0000F83F474
:1032F800801306BF81F480110134013D4EE77FEA57
:10330800645C18BF7FEA655C29D094EA050F08BFA2
:1033180090EA020F05D054EA000C04BF1946104683
:1033280030BD91EA030F1EBF0021002030BD5FEAC7
:10333800545C05D14000494128BF41F0004130BDEF
:1033480014F580043CBF01F5801130BD01F0004543
:1033580045F0FE4141F470014FF0000030BD7FEAB6
:10336800645C1ABF194610467FEA655C1CBF0B46B1
:10337800024650EA013406BF52EA033591EA030FC8
:1033880041F4002130BD00BF90F0000F04BF0021C0
:10339800704730B54FF4806404F132044FF00005F3
:1033A8004FF0000150E700BF90F0000F04BF00216C
:1033B800704730B54FF4806404F1320410F00045D2
:1033C80048BF40424FF000013EE700BF42004FEACD
:1033D800E2014FEA31014FEA02701FBF12F07F434A
:1033E80093F07F4F81F06051704732F07F4208BF01
:1033F800704793F07F4F04BF41F40021704730B508
:103408004FF4607401F0004521F000411CE700BF53
:1034180050EA010208BF704730B54FF000050AE0D6
:1034280050EA010208BF704730B511F0004502D5D7
:10343800404261EB41014FF4806404F132045FEAD9
:10344800915C3FF4D8AE4FF003025FEADC0C18BF82
:1034580003325FEADC0C18BF033202EBDC02C2F174
:10346800200300FA03FC20FA02F001FA03FE40EA06
:103478000E0021FA02F11444BDE600BF70B54FF00A
:10348800FF0C4CF4E06C1CEA11541DBF1CEA1355E8
:1034980094EA0C0F95EA0C0F00F0DEF82C4481EA50
:1034A800030621EA4C5123EA4C5350EA013518BF70
:1034B80052EA033541F4801143F4801338D0A0FB5D
:1034C80002CE4FF00005E1FB02E506F00042E0FB0A
:1034D80003E54FF00006E1FB03569CF0000F18BF10
:1034E8004EF0010EA4F1FF04B6F5007F64F54074B8
:1034F80004D25FEA4E0E6D4146EB060642EAC6214B
:1035080041EA55514FEAC52040EA5E504FEACE2EB7
:10351800B4F1FD0C88BFBCF5E06F1ED8BEF1004FBA
:1035280008BF5FEA500E50F1000041EB045170BD36
:1035380006F0004646EA010140EA020081EA03017A
:10354800B4EB5C04C2BFD4EB0C0541EA045170BD76
:1035580041F480114FF0000E013C00F3AB8014F1F0
:10356800360FDEBF002001F0004170BDC4F1000439
:10357800203C35DA0C341BDC04F11404C4F12005BA
:1035880000FA05F320FA04F001FA05F240EA020015
:1035980001F0004221F0004110EBD37021FA04F64B
:1035A80042EB06015EEA430E08BF20EAD37070BD05
:1035B800C4F10C04C4F1200500FA04F320FA05F064
:1035C80001FA04F240EA020001F0004110EBD37066
:1035D80041F100015EEA430E08BF20EAD37070BDD6
:1035E800C4F1200500FA05F24EEA020E20FA04F3AF
:1035F80001FA05F243EA020321FA04F001F000415E
:1036080021FA04F220EA020000EBD3705EEA430ECE
:1036180008BF20EAD37070BD94F0000F0FD101F0FD
:103628000046400041EB010111F4801F08BF013C36
:10363800F7D041EA060195F0000F18BF704703F074
:103648000046520043EB030313F4801F08BF013DFB
:10365800F7D043EA0603704794EA0C0F0CEA1355B7
:1036680018BF95EA0C0F0CD050EA410618BF52EA71
:103678004306D1D181EA030101F000414FF0000077
:1036880070BD50EA410606BF1046194652EA430685
:1036980019D094EA0C0F02D150EA013613D195EAF9
:1036A8000C0F05D152EA03361CBF104619460AD141
:1036B80081EA030101F0004141F0FE4141F470014B
:1036C8004FF0000070BD41F0FE4141F4780170BD3B
:1036D80070B54FF0FF0C4CF4E06C1CEA11541DBFA0
:1036E8001CEA135594EA0C0F95EA0C0F00F0A7F8A2
:1036F800A4EB050481EA030E52EA03354FEA0131CF
:1037080000F088804FEA03334FF0805545EA1313E1
:1037180043EA12634FEA022245EA111545EA1065A9
:103728004FEA00260EF000419D4208BF964244F140
:10373800FD0404F5407402D25B084FEA3202B61A5F
:1037480065EB03055B084FEA32024FF480104FF433
:10375800002CB6EB020E75EB030E22BFB61A7546A7
:1037680040EA0C005B084FEA3202B6EB020E75EB3A
:10377800030E22BFB61A754640EA5C005B084FEAA2
:103788003202B6EB020E75EB030E22BFB61A75466F
:1037980040EA9C005B084FEA3202B6EB020E75EB7A
:1037A800030E22BFB61A754640EADC0055EA060E3B
:1037B80018D04FEA051545EA16754FEA06164FEA7E
:1037C800C30343EA52734FEAC2025FEA1C1CC0D12A
:1037D80011F4801F0BD141EA00014FF000004FF0B7
:1037E800004CB6E711F4801F04BF01430020B4F178
:1037F800FD0C88BFBCF5E06F3FF6AFAEB5EB030C30
:1038080004BFB6EB020C5FEA500C50F1000041EB2C
:10381800045170BD0EF0004E4EEA113114EB5C04F9
:10382800C2BFD4EB0C0541EA045170BD41F48011CC
:103838004FF0000E013C90E645EA060E8DE60CEAD4
:10384800135594EA0C0F08BF95EA0C0F3FF43BAFF1
:1038580094EA0C0F0AD150EA01347FF434AF95EAA8
:103868000C0F7FF425AF104619462CE795EA0C0F8C
:1038780006D152EA03353FF4FDAE1046194622E759
:1038880050EA410618BF52EA43067FF4C5AE50EA33
:1038980041047FF40DAF52EA43057FF4EBAE12E723
:1038A8004A0011D212F5001211D20DD56FF47873B7
:1038B800B3EB62520ED44FEAC12343F0004343EA0C
:1038C800505323FA02F070474FF00000704750EA57
:1038D800013002D14FF0FF3070474FF000007047C1
:1038E80080F0004002E000BF81F0004142001FBFAD
:1038F8005FEA410392EA030F7FEA226C7FEA236CB6
:103908006AD04FEA1262D2EB1363C1BFD2184140AA
:1039180048404140B8BF5B42192B88BF704710F040
:10392800004F40F4000020F07F4018BF404211F0E3
:10393800004F41F4000121F07F4118BF494292EA4B
:10394800030F3FD0A2F1010241FA03FC10EB0C0077
:10395800C3F1200301FA03F100F0004302D5494204
:1039680060EB4000B0F5000F13D3B0F1807F06D3B1
:1039780040084FEA310102F10102FE2A51D2B1F1A9
:10398800004F40EBC25008BF20F0010040EA03009E
:103998007047490040EB000010F4000FA2F101024B
:1039A800EDD1B0FA80FCACF1080CB2EB0C0200FAD5
:1039B8000CF0AABF00EBC25052421843BCBFD04023
:1039C8001843704792F0000F81F4000106BF80F49D
:1039D80000000132013BB5E74FEA41037FEA226C60
:1039E80018BF7FEA236C21D092EA030F04D092F02B
:1039F800000F08BF0846704790EA010F1CBF00205F
:103A0800704712F07F4F04D1400028BF40F00040BB
:103A1800704712F100723CBF00F50000704700F0DB
:103A2800004343F0FE4040F4000070477FEA226202
:103A380016BF08467FEA23630146420206BF5FEAD3
:103A4800412390EA010F40F4800070474FF00003D3
:103A580004E000BF10F0004348BF40425FEA000C9A
:103A680008BF704743F0964301464FF000001CE042
:103A780050EA010208BF70474FF000030AE000BF98
:103A880050EA010208BF704711F0004302D54042D6
:103A980061EB41015FEA010C02BF84460146002048
:103AA80043F0B64308BFA3F18053A3F50003BCFA63
:103AB8008CF2083AA3EBC25310DB01FA02FC634410
:103AC80000FA02FCC2F12002BCF1004F20FA02F217
:103AD80043EB020008BF20F00100704702F120020A
:103AE80001FA02FCC2F1200250EA4C0021FA02F26B
:103AF80043EB020008BF20EADC7070474FF0FF0C70
:103B08001CEAD0521EBF1CEAD15392EA0C0F93EA6A
:103B18000C0F6FD01A4480EA010C400218BF5FEA0C
:103B280041211ED04FF0006343EA501043EA51117F
:103B3800A0FB01310CF00040B1F5000F3EBF490079
:103B480041EAD3715B0040EA010062F17F02FD2A7D
:103B58001DD8B3F1004F40EBC25008BF20F0010060
:103B6800704790F0000F0CF0004C08BF49024CEA77
:103B7800502040EA51207F3AC2BFD2F1FF0340EA09
:103B8800C250704740F400004FF00003013A5DDC7A
:103B980012F1190FDCBF00F000407047C2F10002BB
:103BA800410021FA02F1C2F1200200FA02FC5FEAA8
:103BB800310040F1000053EA4C0308BF20EADC70F2
:103BC800704792F0000F00F0004C02BF400010F464
:103BD800000F013AF9D040EA0C0093F0000F01F011
:103BE800004C02BF490011F4000F013BF9D041EA33
:103BF8000C018FE70CEAD15392EA0C0F18BF93EA35
:103C08000C0F0AD030F0004C18BF31F0004CD8D15E
:103C180080EA010000F00040704790F0000F17BFE5
:103C280090F0004F084691F0000F91F0004F14D02B
:103C380092EA0C0F01D142020FD193EA0C0F03D183
:103C48004B0218BF084608D180EA010000F0004086
:103C580040F0FE4040F40000704740F0FE4040F461
:103C6800400070474FF0FF0C1CEAD0521EBF1CEA00
:103C7800D15392EA0C0F93EA0C0F69D0A2EB03021E
:103C880080EA010C49024FEA402037D04FF08053B8
:103C980043EA111143EA10130CF000408B4238BF7D
:103CA8005B0042F17D024FF4000C8B4224BF5B1A8B
:103CB80040EA0C00B3EB510F24BFA3EB510340EAD9
:103CC8005C00B3EB910F24BFA3EB910340EA9C0087
:103CD800B3EBD10F24BFA3EBD10340EADC001B01F7
:103CE80018BF5FEA1C1CE0D1FD2A3FF650AF8B429B
:103CF80040EBC25008BF20F0010070470CF0004CA8
:103D08004CEA50207F32C2BFD2F1FF0340EAC250D2
:103D1800704740F400004FF00003013A37E792F093
:103D2800000F00F0004C02BF400010F4000F013AF1
:103D3800F9D040EA0C0093F0000F01F0004C02BFEC
:103D4800490011F4000F013BF9D041EA0C0195E755
:103D58000CEAD15392EA0C0F08D142027FF47DAFEE
:103D680093EA0C0F7FF470AF084676E793EA0C0FDE
:103D780004D14B023FF44CAF08466EE730F0004CDC
:103D880018BF31F0004CCAD130F000427FF45CAF6C
:103D980031F000437FF43CAF5FE700BF42000ED232
:103DA800B2F1FE4F0BD34FF09E03B3EB126209D46E
:103DB8004FEA002343F0004323FA02F070474FF024
:103DC8000000704712F1610F01D1420202D14FF099
:103DD800FF3070474FF00000704700BF014B186874
:103DE800704700BF7000002010B5431E0A4491427E
:103DF80000D110BD11F8014B03F8014FF7E7034656
:103E08000244934200D1704703F8011BF9E7000010
:103E18000EB46FF0004100B59CB01DAB0290069047
:103E2800079104910848094953F8042B0591006843
:103E380002A9019300F0B8F80022029B1A701CB086
:103E48005DF804EB03B07047700000200802FFFF24
:103E5800034610B51A785C1C3AB9013B11F8012BDE
:103E680003F8012F002AF9D110BD2346F2E70346D3
:103E780013F8012B002AFBD1181A0138704730B506
:103E8800141E05469BB0184605DA8B234FF0FF3009
:103E98002B601BB030BD4FF40273ADF80C300CBF73
:103EA800234604F1FF33029305934FF6FF73009105
:103EB8000491ADF80E3002461E9B6946284600F074
:103EC80073F8431CBCBF8B232B60002CE1D000226D
:103ED800009B1A70DDE7000007B5009313460A46F9
:103EE800014603480068FFF7CAFF03B05DF804FB0A
:103EF800700000202DE9F0478E6882469E420C46ED
:103F08009046994637D88A8912F4906F31D00223A7
:103F1800256809696F1A656905EB450595FBF3F591
:103F280009F101033B449D4238BF1D46530530D576
:103F3800294600F02BFB064650B90C234FF0FF3002
:103F4800CAF80030A38943F04003A381BDE8F08795
:103F58003A462169FFF748FFA38923F4906343F0A9
:103F68008003A38126613E4426604E466561ED1BB1
:103F7800A5604E4500D94E4632464146206800F0BD
:103F88009FFAA36800209B1BA36023681E44266039
:103F9800DCE72A4600F054FB06460028E2D12169F6
:103FA800504600F0A7FAC8E72DE9F04F9DB00393FB
:103FB8008B8980461D060C4616460FD50B696BB9D2
:103FC800402100F0E3FA2060206128B90C23C8F8EA
:103FD80000304FF0FF30C7E04023636100230993AE
:103FE80020238DF8293030234FF0010B8DF82A302B
:103FF80037463D4615F8013B0BB1252B3ED1B7EBB3
:10400800060A0BD05346324621464046FFF772FF58
:10401800013000F0A480099B534409933B78002B9E
:1040280000F09D8000234FF0FF32CDE90523049373
:1040380007938DF853301A932F46052217F8011B62
:104048004F4800F02FFA049BD0B9D90644BF20226C
:104058008DF853201A0744BF2B228DF853202A7855
:104068002A2A15D02F4600200A25079A394611F822
:10407800013B303B092B4DD9B8B10FE02F46B8E7CB
:104088003F4A3D46801A0BFA00F018430490D3E7E4
:10409800039A111D12680391002A01DB079204E0BC
:1040A800524243F00203079204933B782E2B0CD123
:1040B8007B782A2B33D1039B02371A1D1B68039286
:1040C800002BB8BF4FF0FF3305932E4D03223978EC
:1040D800284600F0E7F938B14023401B03FA00F006
:1040E800049B0137034304933978062226487E1C33
:1040F8008DF8281000F0D6F9002838D0234B13BBD0
:10410800039B073323F0070308330393099B4B44AE
:1041180009936DE705FB023201200F46A6E700234D
:104128000A25194601370593384610F8012B303A0D
:10413800092A03D9002BC8D00591C6E705FB012140
:1041480001230746F0E703AB00932246104B04A96E
:104158004046AFF30080B0F1FF3F8146D6D1A38936
:104168005B063FF536AF09981DB0BDE8F08F03AB8D
:1041780000932246064B04A9404600F081F8EAE77E
:104188001C530008225300082653000800000000B2
:10419800FD3E00082DE9F04791461F468A680B69E5
:1041A80006469342B8BF1346C9F8003091F8432039
:1041B8000C46DDF8208012B10133C9F800302368BD
:1041C800990642BFD9F800300233C9F80030256893
:1041D80015F0060507D104F1190AE368D9F800209B
:1041E8009B1AAB4229DC94F843302268003318BF8D
:1041F800012392062ED404F1430239463046C047C3
:10420800013021D02368E56803F00603042B18BFAA
:104218000025D9F800204FF0000908BFAD1AA3689F
:10422800226908BF25EAE5759342C4BF9B1AED18B9
:104238001A344D451AD1002008E001235246394668
:104248003046C047013003D14FF0FF30BDE8F0875A
:104258000135C2E73020E11881F843005A1C94F870
:1042680045102244023382F84310C4E70123224652
:1042780039463046C0470130E6D009F10109D8E790
:104288002DE9F04301F1430C0C46097E85B06E29F7
:104298001746064698460C9A00F0B38022D8632940
:1042A80036D00AD8002900F0B980582900F0838058
:1042B80004F1420584F8421032E0642901D06929EA
:1042C800F6D120681368050603F104012AD51B6896
:1042D8001160002B03DA2D225B4284F843206F48DB
:1042E8000A2239E0732900F09D8008D86F2920D070
:1042F8007029DDD1236843F02003236003E075298A
:1043080017D07829D4D17823654884F8453055E00A
:10431800136804F14205191D1B68116084F84230C6
:1043280001238CE01B6810F0400F116018BF1BB20E
:10433800CFE713682568181D1060280601D51B688B
:1043480002E06806FBD51B886F2914BF0A220822E1
:104358005248002184F843106568002DA560C0F21A
:104368009580216821F004012160002B3DD1002DAA
:1043780040F08E806546082A0BD12368DB0708D5F4
:10438800236962689A42DEBF302305F8013C05F1D3
:10439800FF35ACEB05032361CDF800803B4603AA4B
:1043A80021463046FFF7F6FE01304DD14FF0FF3081
:1043B80005B0BDE8F083394884F8451013682168D2
:1043C8001D1D1B6815600A060BD5CA0744BF41F0BE
:1043D800200121601BB9226822F0200222601022ED
:1043E800B7E74D0648BF9BB2EFE76546B3FBF2F16E
:1043F80002FB1133C35C05F8013D0B460029F5D1DA
:10440800B9E713682568181D6169106028061B68DC
:1044180001D5196002E06A06FBD5198000236546BC
:104428002361B9E71368191D11601D6862680021CE
:10443800284600F037F808B1401B606063682361C4
:10444800002384F84330A7E723692A4639463046D3
:10445800C0470130AAD023689B0713D4E068039BA8
:104468009842B8BF1846A3E701234A463946304662
:10447800C04701309AD00135E368039A9B1AAB42D2
:10448800F2DCEBE7002504F11909F5E7002BACD1C4
:10449800037804F1420584F842306CE72D53000894
:1044A8003E53000810B5C9B202449042034601D1F8
:1044B800002303E01C7801308C42F6D1184610BD69
:1044C800884210B501EB020307D8421E99420AD070
:1044D80011F8014B02F8014FF8E78342F5D981182A
:1044E800D21AD34200D110BD13F8014D01F8014D85
:1044F800F7E7000038B50546002943D051F8043CD9
:104508000C1F002BB8BFE41800F0D0F81E4A13683F
:10451800104633B9636014602846BDE8384000F09F
:10452800C6B8A3420BD921686218934201BF1A6822
:104538005B685218226063600460EDE713465A68AE
:104548000AB1A242FAD919685818A0420BD12068BA
:104558000144581882421960DED11068526801443B
:1045680019605A60D8E702D90C232B60D4E7206879
:1045780021188A4201BF11685268091821606260D7
:104588005C60C9E738BD00BF3414002070B5CD1C8D
:1045980025F0030508350C2D38BF0C25002D0646DF
:1045A80001DBA94203D90C233360002070BD00F061
:1045B8007DF8214A1468214691B9204C23681BB91B
:1045C800304600F063F820602946304600F05EF877
:1045D800431C24D10C233046336000F068F8E4E72C
:1045E8000B685B1B18D40B2B0FD90B60CC18CD5064
:1045F800304600F05CF804F10B00231D20F00700A2
:10460800C31AD3D05A42E250D0E74B688C4216BF47
:10461800636013600C46EBE70C464968CCE7C41CA2
:1046280024F00304A04205D0211A304600F02EF8E9
:104638000130CFD02560DBE7341400203814002087
:10464800F8B5074614460E4621B9BDE8F8401146AC
:10465800FFF79CBF22B9FFF74DFF25462846F8BD56
:1046680000F026F8A0420FD221463846FFF78EFF09
:1046780005460028F2D031462246FFF7B5FB314601
:104688003846FFF737FFE9E73546E7E738B500234F
:10469800054C054608462360FBF76CFE431C02D117
:1046A800236803B12B6038BD3C1400207047704765
:1046B80051F8043C181F002BBCBF0B58C01870479A
:1046C800537461636B206672616D653A0A0000007D
:1046D800205230203D2020253038580A00000000A4
:1046E800205231203D2020253038580A0000000093
:1046F800205232203D2020253038580A0000000082
:10470800205233203D2020253038580A0000000070
:1047180020523132203D20253038580A0000000050
:10472800204C52203D2020253038580A0000000037
:10473800205043203D2020253038580A0000000032
:1047480020505352203D20253038580A00000000E0
:104758004653522F4641523A0A000000204346531E
:1047680052203D2020253038580A00002048465362
:1047780052203D2020253038580A00002044465356
:1047880052203D2020253038580A00002041465349
:1047980052203D2020253038580A0000204D4D4633
:1047A8004152203D20253038580A00002042464119
:1047B80052203D2020253038580A00004D69736387
:1047C8000A000000204C522F4558435F524554556B
:1047D800524E3D20253038580A0000005B4861726F
:1047E800644661756C745D0A000000005B42757375
:1047F8004661756C745D0A005B5573616765466157
:10480800756C745D0A000000424C5F444542554790
:104818005F4D53473A20626F6F746C6F61646572C5
:104828005F68616E646C655F6469735F726561641B
:104838005F70726F746563745F636D64200D0A0046
:10484800424C5F44454255475F4D53473A20626F9B
:104858006F746C6F616465725F68616E646C655FCC
:104868006469735F77726974655F70726F7465638A
:10487800745F636D64200D0A00000000424C5F44C1
:10488800454255475F4D53473A20626F6F746C6FCE
:10489800616465725F68616E646C655F656E5F72A6
:1048A8006561645F70726F746563745F636D6420C3
:1048B8000D0A0000424C5F44454255475F4D53473F
:1048C8003A20626F6F746C6F616465725F68616EC5
:1048D800646C655F656E5F77726974655F70726F2F
:1048E800746563745F636D64200D0A00424C5F4415
:1048F800454255475F4D53473A20626F6F746C6F5E
:10490800616465725F68616E646C655F6578697320
:1049180074696E675F617070735F636D64200D0A00
:1049280000000000424C5F44454255475F4D5347E5
:104938003A20626F6F746C6F616465725F68616E54
:10494800646C655F666C6173685F65726173655FEF
:10495800636D64200D0A0000424C5F444542554790
:104968005F4D53473A20626F6F746C6F6164657274
:104978005F68616E646C655F666C6173685F6D61CA
:1049880073735F65726173655F636D64200D0A0000
:104998004465766963652049443A202020252378B8
:1049A8000D0A00005265766973696F6E2049443AB2
:1049B800202523780D0A0000424C5F4445425547A4
:1049C8005F4D53473A20626F6F746C6F6164657214
:1049D8005F68616E646C655F67657468656C705F5D
:1049E800636D64200D0A0000424C5F444542554700
:1049F8005F4D53473A20626F6F746C6F61646572E4
:104A08005F68616E646C655F6765747264705F632C
:104A18006D64200D0A000000424C5F444542554732
:104A28005F4D53473A20626F6F746C6F61646572B3
:104A38005F68616E646C655F6765747665725F63F5
:104A48006D64200D0A000000424C5F444542554702
:104A58005F4D53473A20424C5F564552203A20302A
:104A6800782578200D0A0000424C5F44454255479E
:104A78005F4D53473A20626F6F746C6F6164657263
:104A88005F68616E646C655F676F746F5F616464B3
:104A9800726573735F636D64200D0A00424C5F4456
:104AA800454255475F4D53473A20474F206164645C
:104AB800723A2030782530327825303278253032F5
:104AC80078253032780D0A00424C5F4445425547FC
:104AD8005F4D53473A206A756D70696E6720746F31
:104AE80020676F206164647265737321200A000077
:104AF800424C5F44454255475F4D53473A474F2024
:104B08006164647220696E76616C69642021200A90
:104B180000000000424C5F44454255475F4D5347F3
:104B28003A20626F6F746C6F616465725F68616E62
:104B3800646C655F6D656D5F726561645F636D640C
:104B4800200D0A00424C5F44454255475F4D53478C
:104B58003A20636865636B73756D2073756363656D
:104B68007373202121200D0A00000000424C5F448D
:104B7800454255475F4D53473A20636865636B73F9
:104B8800756D206661696C202121200D0A000000E6
:104B98002D2D2D2D2D2D2D2D2D2D2D2D2D2D2D2D3D
:104BA8002D2D2D2D2D2D2D2D2D2D2D2D2D2D2D2D2D
:104BB8002D2D2D2D2D2D2D2D2D2D2D2D2D2D2D2D1D
:104BC8000D0A424C5F44454255475F4D53473A20D2
:104BD800626F6F746C6F616465725F68616E646C3C
:104BE800655F6D656D5F77726974655F636D64207D
:104BF8000D0A0000424C5F44454255475F4D5347FC
:104C08003A2064657374696E6174696F6E206164BB
:104C180064726573733A20307825303278253032E3
:104C28007825303278253032780D0A000D466C61CF
:104C38007368696E67203A20252E6620252520098D
:104C4800646F6E6520200000424C5F444542554722
:104C58005F4D53473A20626F6F746C6F6164657281
:104C68005F68616E646C655F726561645F736563DC
:104C7800746F72735F7374617475735F636D6420AE
:104C88000D0A00002D2D2D2D2D2D2D2D2D2D2D2DE9
:104C98002D2D2D2D2D2D2D2D2D2D2D2D2D2D2D2D3C
:104CA8002D2D2D2D2D2D2D2D2D2D2D2D2D2D2D2D2C
:104CB8002D2D2D2D0D0A0000424C5F4445425547CD
:104CC8005F4D53473A20626F6F746C6F6164657211
:104CD8005F68616E646C655F736176655F61707053
:104CE8005F696E666F5F636D64200D0A00000000E7
:104CF8000A4E756D626572206F6620617070733A36
:104D0800202564000D0A417070206E616D653A209F
:104D1800257300000D0A4170702073697A653A2086
:104D28002564206279746573000000000D0A4170E3
:104D380070204261736520616464726573733A2000
:104D48002523780D0A000000424C5F444542554730
:104D58005F4D53473A20626F6F746C6F6164657280
:104D68005F68616E646C655F73797374656D5F729B
:104D7800657365745F636D64200D0A0053656E6426
:104D8800696E6720424C5F41434B3A203078257862
:104D98000D0A00007265706C79206C656E67746826
:104DA8003D2025642062797465730D0A00000000B7
:104DB800424C5F44454255475F4D53473A20427540
:104DC80074746F6E206973206E6F742070726573CF
:104DD800736564202E2E20657865637574696E6727
:104DE800207573657220617070200D0A0000000044
:104DF800424C5F44454255475F4D53473A204D5317
:104E0800502076616C7565203D20307825780D0A34
:104E180000000000424C5F44454255475F4D5347F0
:104E28003A20427574746F6E2069732070726573CE
:104E3800736564202E2E20676F696E6720746F205B
:104E4800424C206D6F64650D0A000000424C5F44BF
:104E5800454255475F4D53473A20496E6974696129
:104E68006C697A696E672057694669206D6F647549
:104E78006C65202845535038323636205330312956
:104E8800202E2E2E0D0A000041542B43574D4F441F
:104E9800455F4355523D310D0A000000636F6D6D4B
:104EA800616E646F733132330000000048616D64D5
:104EB80079000000424C5F44454255475F4D5347D7
:104EC8003A205769466920696E697469616C697A24
:104ED8006174696F6E20446F6E65210D0A000000D1
:104EE8000A424C5F44454255475F4D53473A20526A
:104EF8006561647920746F207265636569766520E1
:104F0800636F6D6D616E642066726F6D20484F53DC
:104F180054206170706C69636174696F6E202E2E05
:104F28002E200D0A000000000008014009000308B7
:104F3800000801400A0000080400001000400010AA
:104F48002500000000380140000801400200030865
:104F5800000801400300000804000010000002C01F
:104F680026000000004400404745542068747470CF
:104F7800733A2F2F6170692E7468696E6773706554
:104F8800616B2E636F6D2F7570646174653F61701E
:104F9800695F6B65793D50434634564D43524657D9
:104FA800333430495A38266669656C64313D0000EF
:104FB80000000000000000000000000000000000E9
:104FC80000000000000000000000000000000000D9
:104FD80000000000000000000000000000000000C9
:104FE80000000000000000000000000000000000B9
:104FF80000000000000000000000000000000000A9
:105008000000000000000000000000000000000098
:105018000000000000000000000000000000000088
:105028000000000000000000000000000000000078
:105038000000000000000000000000000000000068
:105048000000000000000000000000000000000058
:105058000000000000000000000000000000000048
:105068000000000000000000000000000000000038
:105078000000000000000000000000000000000028
:105088000000000000000000000000000000000018
:105098000000000000000000000000000000000008
:1050A80000000000000000000000000000000000F8
:1050B80000000000000000000000000000000000E8
:1050C80000000000000000000000000000000000D8
:1050D80000000000000000000000000000000000C8
:1050E80000000000000000000000000000000000B8
:1050F80000000000000000000000000000000000A8
:105108000000000000000000000000000000000097
:105118000000000000000000000000000000000087
:105128000000000000000000000000000000000077
:105138000000000000000000000000000000000067
:105148000000000000000000000000000000000057
:105158000000000000000000000000000000000047
:10516800000000000000000041542B43574A415002
:105178005F4355523D22000041542B4349504D5541
:10518800583D300D0A00000041542B4349505354F8
:105198004152543D22544350222C226170692E748E
:1051A80068696E67737065616B2E636F6D222C384A
:1051B800300D0A0041542B43495053454E443D3964
:1051C800300D0A004745542068747470733A2F2FC5
:1051D8006170692E7468696E67737065616B2E63A0
:1051E8006F6D2F617070732F7468696E676874745F
:1051F800702F73656E645F726571756573743F6156
:1052080070695F6B65793D59344A4F585544515A16
:10521800424C474F4D484A0D0A486F73743A6170C3
:10522800692E7468696E67737065616B2E636F6D44
:105238000D0A0D0A0D0A0D0A0D0A000041542B52E1
:1052480053540D0A0000000041542B434950534564
:105258004E443D39390D0A0047455420687474702E
:10526800733A2F2F6170692E7468696E6773706561
:10527800616B2E636F6D2F6368616E6E656C732F43
:10528800313038323539342F6669656C64732F31A3
:105298002F6C6173742E7478743F6170695F6B65ED
:1052A800793D474C334D374A414B34384252385296
:1052B80052410D0A486F73743A6170692E746869B7
:1052C8006E67737065616B2E636F6D0D0A0D0A0D45
:1052D8000A0D0A0D0A00000041542B43495053455A
:1052E8004E443D25640D0A000D0A486F73743A61F7
:1052F80070692E7468696E67737065616B2E636F71
:105308006D0D0A0D0A0D0A0D0A0D0A007A656674FC
:105318000A000000232D302B2000686C4C006566C5
:1053280067454647003031323334353637383941EE
:105338004243444546003031323334353637383904
:075348006162636465660009
:1053500078563412E0000020000000000000000039
:1053600000000000010203040607080900A24A0425
:1053700051525355565B57595F60585C545A5D5EA5
:1053800061FFFFFF00127A00000000000000030030
:105390000000000000000300000000000000030007
:1053A00000000000000003000000000000000300F7
:1053B00000000000000003000100000001FFFFFFEB
:1053C0007400002000000000000000000000000049
:1053D00000000000000000000000000000000000CD
:1053E00000000000000000000000000000000000BD
:1053F00000000000000000000000000000000000AD
:10540000000000000000000000000000000000009C
:10541000000000000000000000000000000000008C
:085420000000000032547698F0
:040000050800010DE1
:00000001FF
