:020000040800F2
:100000000050002021020008270200082B020008EF
:100010009D020008A1020008E9020008000000009B
:100020000000000000000000000000003103000894
:100030003503000800000000390300083D030008F4
:100040004D0300084D0300084D0300084D03000850
:100050004D0300084D0300084D0300084D03000840
:100060004D0300084D0300084D0300084D03000830
:100070004D0300084D0300084D0300084D03000820
:100080004D0300084D0300084D0300084D03000810
:100090004D0300084D0300084D0300084D03000800
:1000A0004D0300084D0300084D0300084D030008F0
:1000B0004D0300084D0300084D0300084D030008E0
:1000C0004D0300084D0300084D0300084D030008D0
:1000D0004D0300085923000819240008D9240008FA
:1000E0004D0300084D0300084D0300080000000008
:1000F0000000000000000000000000000000000000
:1001000000000000000000005FF808F100B583B0B7
:1001100000F0ACF9304B314A1360314A1360314B77
:10012000314A03E052F8041B43F8041B2F498B4269
:10013000F8D32A4B1A682E4B9A4200D0FEE7284B80
:100140001A682C4B9A42F9D1234B2B4A13602B4A45
:1001500013602B4B02E0002243F8042B294A934200
:10016000F9D3254B1B6813B9244B1B6803B1FEE779
:1001700000F088F9694601A800F022F9224C234BCF
:10018000E41AA410002504E0204B53F825309847CA
:100190000135AC42F8DC1E4C1E4BE41AA4100025BD
:1001A00004E01C4B53F8253098470135AC42F8DC8D
:1001B0000099019802F0F0F90546174C174BE41A24
:1001C000A41004E0013C154B53F824309847002C50
:1001D000F8DC284600F0D0F8BABADECA00000020E9
:1001E000C80000200000002030430008CC000020A0
:1001F0007856341232547698CC0000200413002034
:10020000CC000020081300207803000878030008C1
:1002100078030008780300087803000878030008D2
:1002200008B5FFF773FF00BEFEE71EF0040F0CBF1A
:10023000EFF30880EFF309807146414A10472DE93A
:10024000F04182B004468846124B5E6B9F6B9D6AFC
:100250001B6B13F0020F03D00E4BDB6A002B0CDB81
:100260000D4800F0B5F8CDF800803B4632462946EF
:10027000204600F00BF900BEFEE74BF6AB6100F044
:100280007FF90028ECD0034B4FF00042DA6202B055
:10029000BDE8F08100ED00E0143D000800BEFEE77F
:1002A0001EF0040F0CBFEFF30880EFF309807146D6
:1002B000244A10472DE9F04182B004468846084B95
:1002C0005E6B9F6B9D6A074800F082F8CDF8008056
:1002D0003B4632462946204600F0D8F800BEFEE7ED
:1002E00000ED00E0243D00081EF0040F0CBFEFF30A
:1002F0000880EFF309807146134A10472DE9F04159
:1003000082B004468846084B5E6B9F6B9D6A074827
:1003100000F05EF8CDF800803B4632462946204684
:1003200000F0B4F800BEFEE700ED00E0303D00084C
:1003300000BEFEE700BEFEE700BEFEE7704700001D
:100340003F020008B5020008FD02000800BEFEE7FB
:100350003043000800000020CC000020304300089B
:100360000000000000000000CC0000200813002066
:08037000000000000000000085
:10037800FEE7000008B503460C4A12685AB10B4A5A
:100388001068033323F003030344094A934206D851
:10039800064A136008BD054A06491160EFE702F0F6
:1003A800CFFF0C2303604FF0FF30F3E7D0000020AD
:1003B800004C00200813002001230360014B0B6050
:1003C800704700BF040000200FB400B583B004AB31
:1003D80053F8042B01938021074802F0F3FF00280B
:1003E80004DC03B05DF804EB04B070470146024832
:1003F80000F034F8F5E700BFD80000202DE9F043FD
:1004080085B004460F46435633BB0425284621468B
:10041800ABBE0446384605B0BDE8F08304AA1344D1
:10042800002203F8102C4FF00408E94640464946DC
:10043800ABBE8046761B002EECD03546102E28BF6A
:1004480010250023AB42E9D214F9011B04AA1A446F
:1004580002F8101C0133F5E70E46ECE708B5FFF784
:10046800CDFF08BD08B500F0FDF8024A024B9A60BE
:1004780008BD00BF0000000800ED00E008B500F06E
:1004880019F908BDF8B504460D4617461E46274813
:10049800FFF79AFF21682648FFF796FF616825480D
:1004A800FFF792FFA1682448FFF78EFFE168234811
:1004B800FFF78AFF21692248FFF786FF6169214813
:1004C800FFF782FFA1692048FFF77EFFE1691F4817
:1004D800FFF77AFF1E48FFF777FF29461D48FFF709
:1004E80073FF1D4CE16A1D48FFF76EFF216B1C4826
:1004F800FFF76AFFE16B1B48FFF766FF15F0800FF7
:100508000AD115F4004F0CD11748FFF75DFF069983
:100518001648FFF759FFF8BD39461548FFF754FF4D
:10052800EFE731461348FFF74FFFEDE7F83B0008C8
:10053800083C0008183C0008283C0008383C000823
:10054800483C0008583C0008683C0008783C000813
:10055800883C0008943C000800ED00E0A43C00083A
:10056800B43C0008C43C0008F43C0008FC3C00080B
:10057800D43C0008E43C000883691A888A4201D008
:10058800002070470268033A012A01D90020704709
:10059800023383610120704782B0002301930093E6
:1005A8002C4A136843F4803313602A4B1B6803F406
:1005B80000330093019B01330193009B1BB9019BFE
:1005C800B3F5A06FF1D1234B1B6813F4003F06D09D
:1005D80001230093009B012B04D002B07047002335
:1005E8000093F7E71C4B1A6842F010021A601A6869
:1005F80022F003021A601A6842F002021A60A3F598
:1006080080535A685A605A685A605A6842F480623D
:100618005A605A6822F47C125A605A6842F4E81206
:100628005A601A6842F080721A600A4B1B6813F00D
:10063800007FFAD0074B5A6822F003025A605A68C2
:1006480042F002025A60034B5B6803F00C03082B6C
:10065800F9D1C2E7001002400020024008B5FFF7B8
:100668009BFF08BD08B5104B1A6842F001021A60DA
:1006780059680E4A0A405A601A6822F0847222F4B5
:1006880080321A601A6822F480221A605A6822F4AA
:10069800FE025A604FF41F029A60FFF7DFFF044B17
:1006A8004FF000629A6008BD001002400000FFF899
:1006B80000ED00E01F4B5B6803F00C03042B15D022
:1006C800082B17D01BB11C4B1C4A1A6002E01A4BAE
:1006D8001A4A1A60174B5B68C3F30313184AD35CB2
:1006E800DAB215490B68D3400B607047124B134AB6
:1006F8001A60EFE70F4A53685268C3F38343023323
:1007080012F4803F05D10F4A02FB03F30A4A136033
:10071800E0E7084A526812F4003F05D0094A02FB94
:1007280003F3054A1360D5E7044A02FB03F3024AC0
:100738001360CFE7001002401C00002000127A006E
:100748000C00002000093D00B0B500AF084800F0DB
:1007580021FE084C25682946074800F01BFE85F352
:100768000888064B1C60064B1B689847B0BD00BF45
:10077800D4410008008000081442000808ED00E099
:100788000480000810B58AB0A5238DF824308DF8B0
:1007980025000E4C0A2306930223059309AB049304
:1007A80004F110030FCB8DE80F0094E80F0001F05F
:1007B8000FFB9DF82410064800F0ECFD9DF825106D
:1007C800044800F0E7FD0AB010BD00BFDC42000895
:1007D800A0410008B841000810B588B0084C0A23A9
:1007E8000693012305937F23049304F110030FCB91
:1007F8008DE80F0094E80F0001F0EAFA08B010BD88
:10080800DC420008F0B583B006460D46174600F0F6
:10081800A5FD00200446AC4207D2335D01930121B7
:1008280001A800F0A1FD0134F5E7B84202D001208B
:1008380003B0F0BD0020FBE770B58AB00546047828
:100848000134E4B2043C0659164800F0A3FD3246D0
:1008580021462846FFF7D6FFF0B9134800F09AFD65
:100868000120FFF78FFF10218DF827100F4800F0A7
:1008780091FD0F4C0A230693012305930DF12703DD
:10088800049304F110030FCB8DE80F0094E80F00D8
:1008980001F09EFA0AB070BD064800F07BFDFFF734
:1008A8009BFFF7E74C3F00087C3F0008A43F000887
:1008B800DC420008C43F000870B588B005460478DB
:1008C8000134E4B2043C06591B4800F063FD32468B
:1008D80021462846FFF796FF30BB184800F05AFD1E
:1008E8001020FFF74FFF164C0A2306931023059399
:1008F800144B049304F110030FCB8DE80F0094E818
:100908000F0001F065FA104B00221A700E4B1B788D
:100918000F2B0ED80B4AD15C0C4800F03BFD0A4A5D
:10092800137801331370F1E7094800F033FDFFF73E
:1009380053FF08B070BD00BFEC3E00087C3F0008C4
:10094800DC42000820000020F00D0020B041000823
:10095800C43F0008F0B58BB00546274A1368C3F3B7
:100968000B03ADF8263013680023ADF82430047863
:100978000134E4B2043C0659204800F00BFD32462D
:1009880021462846FFF73EFF78BB1D4800F002FDD0
:100998000420FFF7F7FE1B4C0A2706970226059648
:1009A8000DF12603049304F1100595E80F008DE876
:1009B8000F0094E80F0001F00BFA0697059609ABB3
:1009C800049395E80F008DE80F0094E80F0001F0FC
:1009D800FFF9BDF826100C4800F0DCFCBDF8241027
:1009E8000A4800F0D7FC0BB0F0BD094800F0D2FC73
:1009F800FFF7F2FEF7E700BF002004E0EC3E000836
:100A08007C3F0008DC420008C43E0008D83E0008CD
:100A1800C43F000870B588B0054604780134E4B2D4
:100A2800043C0659134800F0B5FC324621462846D6
:100A3800FFF7E8FEB8B9104800F0ACFC0120FFF75A
:100A4800A1FE0E4C0A230693102305930C4B049326
:100A580004F110030FCB8DE80F0094E80F0001F0AC
:100A6800B7F908B070BD074800F094FCFFF7B4FE72
:100A7800F7E700BFEC3E00087C3F0008DC420008B6
:100A880020000020C43F000870B58AB005460478ED
:100A98000134E4B2043C0659154800F07BFC3246A8
:100AA80021462846FFF7AEFEE0B9124800F072FC76
:100AB8000120FFF767FE00F0B3FD8DF827000E4C0C
:100AC8000A230693012305930DF12703049304F1E8
:100AD80010030FCB8DE80F0094E80F0001F078F9B0
:100AE8000AB070BD054800F055FCFFF775FEF7E742
:100AF8001C3F00087C3F0008DC420008C43F000897
:100B080000F16043B3F5A04F06D300F17840B0F58B
:100B1800003F03D200207047002070470120704733
:100B28000023934211D230B410F8135000EB430461
:100B380094F9014004F00F0444EA0514CC5401333D
:100B48009BB29342F0D330BC7047704770B58AB0FF
:100B5800054600238DF8273001238DF826300478C8
:100B68001C44E4B2043C06592C4800F013FC3246FD
:100B780021462846FFF746FE002847D1284800F0BE
:100B880009FC0120FFF7FEFD042208A9A81CFFF7B5
:100B9800C7FF089D9DF8203000939DF821309DF8EF
:100BA80022209DF823101F4800F0F4FB2846FFF789
:100BB800A7FFB0B91C4C0A230693012305930DF136
:100BC8002703049304F110030FCB8DE80F0094E87A
:100BD8000F0001F0FDF82C68144800F0DBFBA0477B
:100BE80019E0134800F0D6FB0F4C0A2306930123A3
:100BF80005930DF12603049304F110030FCB8DE840
:100C08000F0094E80F0001F0E3F804E0094800F051
:100C1800C1FBFFF7E1FD0AB070BD00BFE83F000867
:100C28007C3F00081C400008DC42000848400008DF
:100C380070400008C43F000870B58CB005460478C1
:100C48000134E4B2083C042209A92044FFF768FFF4
:100C5800099E1D4800F09EFB1C4800F09BFB324695
:100C680021462846FFF7CEFD38BB194800F092FB15
:100C780004220AA9A81CFFF753FF0A9CAD7A00F0CA
:100C8800F1FB2946204600F047FC8DF82F00012093
:100C9800FFF778FD0F4C0A230693012305930DF106
:100CA8002F03049304F110030FCB8DE80F0094E891
:100CB8000F0001F08DF80CB070BD074800F06AFB1A
:100CC800FFF78AFDF7E700BF243E0008583E0008FA
:100CD8007C3F0008DC420008C43F000870B582B0C1
:100CE800054604780134E4B2083C04220DEB020105
:100CF8002044FFF715FF019E0E4800F04BFB0E48FD
:100D080000F048FB324621462846FFF77BFD58B9DC
:100D18000A4800F03FFB0020FFF734FD00F0A2FB7B
:100D280000F03AFC02B070BD054800F033FBFFF755
:100D380053FDF7E7243E00088C3E00087C3F00087E
:100D4800C43F000870B58CB0054600213D4800F04E
:100D58003EFF00238DF82F3001238DF82E302C789C
:100D68001C44E4B2083CA87A0B30042209A92844A0
:100D7800FFF7D6FE099E344800F00CFB32462146A8
:100D88002846FFF73FFD002850D1304800F002FB0D
:100D980004220AA9A81CFFF7C3FE0A9C9DF8283064
:100DA80000939DF829309DF82A209DF82B1028489B
:100DB80000F0F0FA2046FFF7A3FE10BB254E4022B4
:100DC800314605F10B00FFF7ABFE00F04BFB40226C
:100DD8002146304600F060FB0120FFF7D3FC1E4C93
:100DE8000A230693012305930DF12F03049304F1BD
:100DF80010030FCB8DE80F0094E80F0000F0E8FF18
:100E080019E0164800F0C6FA134C0A23069301238A
:100E180005930DF12E03049304F110030FCB8DE815
:100E28000F0094E80F0000F0D3FF04E00C4800F036
:100E3800B1FAFFF7D1FC0121024800F0C8FE0CB05E
:100E480070BD00BFE00E0020944000087C3F000801
:100E5800F840000858010020DC42000870400008F3
:100E6800C43F000870B582B0054604780134E4B286
:100E7800083C04220DEB02012044FFF751FE019EBD
:100E88000E4800F087FA0E4800F084FA32462146F0
:100E98002846FFF7B7FC58B90A4800F07BFA00204B
:100EA800FFF770FC00F0A0FB00F0CCFC02B070BDB6
:100EB800054800F06FFAFFF78FFCF7E7243E0008BB
:100EC800B43D00087C3F0008C43F000870B582B0FC
:100ED800054604780134E4B2083C04220DEB020113
:100EE8002044FFF71DFE019E0E4800F053FA0E48FD
:100EF80000F050FA324621462846FFF783FC58B9DD
:100F08000A4800F047FA0020FFF73CFC00F06CFBB1
:100F180000F0CAFC02B070BD054800F03BFAFFF7CC
:100F28005BFCF7E7243E0008403D00087C3F0008D2
:100F3800C43F000870B582B0054604780134E4B2B5
:100F4800083C04220DEB02012044FFF7E9FD019E55
:100F5800124800F01FFA124800F01CFA32462146E7
:100F68002846FFF74FFC90B90E4800F013FA042208
:100F78006946A81CFFF7D4FD009C00F035FB20460D
:100F880000F0C4FC0020FFF7FDFB02B070BD06486E
:100F980000F000FAFFF720FCF7E700BF243E000846
:100FA800EC3D00087C3F0008C43F000870B582B0E3
:100FB800054604780134E4B2083C04220DEB020132
:100FC8002044FFF7ADFD019E124800F0E3F91248F6
:100FD80000F0E0F9324621462846FFF713FC90B9A5
:100FE8000E4800F0D7F904226946A81CFFF798FDBF
:100FF800009C00F0F9FA204600F00AFD0020FFF7F7
:10100800C1FB02B070BD064800F0C4F9FFF7E4FB6D
:10101800F7E700BF243E0008783D00087C3F000841
:10102800C43F000870B582B0054604780134E4B2C4
:10103800083C04220DEB02012044FFF771FD019EDC
:101048000D4800F0A7F90D4800F0A4F932462146F2
:101058002846FFF7D7FB48B9094800F09BF900205C
:10106800FFF790FB00F024FB02B070BD054800F0CC
:1010780091F9FFF7B1FBF7E7243E00086C4100083F
:101088007C3F0008C43F000870B582B0054604786C
:101098000134E4B2083C04220DEB02012044FFF7BE
:1010A8003FFD019E0E4800F075F90E4800F072F9F8
:1010B800324621462846FFF7A5FB58B90A4800F0F2
:1010C80069F90020FFF75EFB00F08EFA00F0BAFB2A
:1010D80002B070BD054800F05DF9FFF77DFBF7E74A
:1010E800243E0008B43D00087C3F0008C43F0008C7
:1010F800002393422FD2F0B415E0A4F10A07FFB2FF
:10110800052F02D844F040044C553478013504F0DA
:101118000F044C55092C13D844F030044C550133B6
:101128009BB2934215D2C618C45C5D00240901F82D
:101138001340092CE1D844F0300401F81340E4E7E7
:10114800A4F10A06F6B2052EE9D844F040044C553D
:10115800E5E7F0BC7047704770B58EB00546047877
:101168000134E4B2083C04220BA92044FFF7D8FC60
:101178000B9E1E4800F00EF91D4800F00BF9324690
:1011880021462846FFF73EFB48BB1A4800F002F903
:1011980000F046FA8DF8370000F084FA0C9008AD9C
:1011A800012229460DF13700FFF7A2FF04220DF1B5
:1011B80022010CA8FFF79CFF0A20FFF7E3FA0E4C68
:1011C8000A2306930593049504F110030FCB8DE8C9
:1011D8000F0094E80F0000F0FBFD0EB070BD07484B
:1011E80000F0D8F8FFF7F8FAF7E700BF243E000848
:1011F800304100087C3F0008DC420008C43F00087A
:1012080030B589B04D484E4B03600024C4710D239E
:1012180083800323837100F097FC8DF81F404948B1
:1012280000F0B8F82BE09DF81F10474800F0B2F81E
:101238009DF81F30454C0593454B049304F110036A
:101248000FCB8DE80F0094E80F0000F0ABFD9DF880
:101258001F30DBB23F4AD35C002BF8D05378513BA8
:101268000F2B67D8DFE803F0082A2E5632363E4E99
:10127800425A3A525E62464A3648FFF7DDFA002182
:101288008DF81F10334D4FF47A72284602F05EF83D
:101298002E4C01230593049504F110030FCB8DE820
:1012A8000F0094E80F0000F07DFD9DF81F30002B23
:1012B800B9D1284B1B788DF81F30F6E72548FFF782
:1012C800FBFADCE72348FFF745FBD8E72148FFF79F
:1012D8003DFCD4E71F48FFF7AFFCD0E71D48FFF7F8
:1012E800FDFCCCE71B48FFF72DFDC8E71948FFF7C1
:1012F80091FBC4E71748FFF7B5FDC0E71548FFF7AE
:10130800E5FDBCE71348FFF715FEB8E71148FFF7FE
:101318004DFEB4E70F48FFF7B7FBB0E70D48FFF7FE
:101328001BFFACE70B48FFF77DFEA8E70948FFF76E
:10133800ABFEA4E7084800F02DF8A0E7E00E002077
:10134800001001403842000870420008DC420008E2
:10135800590500205805002080420008014B012251
:101368009A6070470030024000238B420CD210B4C0
:1013780050F82340064A146001338B42F8D31846CC
:10138800034B186810BC70471846014B1868704723
:10139800003002400FB470B58AB00EAB53F8042B7E
:1013A80009930F4DC821284602F00CF886B228464A
:1013B80001F0D4FF0B4C01230693C0B205900495AD
:1013C80004F110030FCB8DE80F0094E80F0000F034
:1013D800FFFC30460AB0BDE8704004B0704700BF5B
:1013E800F40D0020BC42000830B583B000230193FF
:1013F80001F07CFA0022184B01F0F2FA12A3D3E9AB
:10140800002301F035F90022144B01F031F90446AC
:101418000D46134B186801F069FA02460B46204640
:10142800294601F0DDFA0AA3D3E9002301F002FC02
:1014380001F0E8FC019B834203D2019B0133019335
:10144800F8E703B030BD00BF0000000000A067400F
:1014580000000000E0CA684100408F4000000C40D6
:1014680030000020094B0A4A1A6002F188321A60DB
:10147800084B1B6813F0800FFAD1064B1B6813F05A
:10148800800F01D1012070470220704704200240DC
:10149800230167451020024030B41D4B1C6814F02E
:1014A8000104FAD11B4D2B6843F001032B6025463C
:1014B80000E00135B5EB520F09D230F8153021F8AC
:1014C8001530134B1B6813F0010FFAD1F1E7104BDD
:1014D8001B6813F0200FFAD00D4D2B6843F0200342
:1014E8002B6004352B6823F001032B600223B4EB37
:1014F800920F09D251F8245050F824309D4202D15D
:1015080001340123F3E70223184630BC704700BFBB
:101518000C2002401020024010B41C4A136843F00B
:1015280002031360002200E0013291420ED900EB61
:101538008223174C2360043C236843F04003236054
:10154800144B1B6813F0010FFAD1EDE7114B1B6820
:1015580013F0200FFAD00F4A136843F020031360EA
:101568000432136823F00203136000230222B3EB52
:10157800012F07D21A58B2F1FF3F02D101330122DD
:10158800F5E70222104610BC704700BF1020024049
:10159800142002400C200240114B1A6842F0040249
:1015A8001A601A6842F040021A600E4B1B6813F06A
:1015B8000103FAD10A490A6822F004020A600220EB
:1015C800B3F5804F08D203F100621268B2F1FF3F11
:1015D80003D101330120F3E770470220704700BFB1
:1015E800102002400C20024008B5FFF73BFF094BD2
:1015F800094A1A6002F188321A60084B1B6813F412
:10160800007FFAD0054B1B6813F4007F00D101203E
:1016180008BD00BF08200240230167451020024092
:10162800024B186800F00200704700BF1C200240FF
:1016380008B51A4B1B6813F0010FFAD1FFF7D4FF56
:10164800174B1A6842F020021A601A6842F04002EA
:101658001A60124B1B6813F0010FFAD10F4B1B686D
:1016680013F0200FFAD00D4A136843F020031360DB
:101678000432136823F02003136000230F2B0BD8C8
:1016880003F10052A2F500621278FF2A03D1023357
:10169800DBB20120F2E7022008BD00BF0C200240A7
:1016A80010200240014B1868704700BF20200240FC
:1016B80003490A6802F4E062024B13430B60704767
:1016C8000CED00E00400FA0501290AD001BB002353
:1016D800B3F5806F1ED2195C194AD15401339BB2FD
:1016E800F6E710B400230F2B05D81C5C154AD45418
:1016F80001339BB2F7E7002302220F2B19D8114AB6
:10170800D45C1A5C944213D101339BB20A46F4E7C5
:10171800022212E000230222B3F5806F0DD2084A9C
:10172800D15C1A5C914207D101339BB20122F3E7E5
:101738000222104610BC704702221046704700BFB4
:10174800F80E0020E80E0020F0B4012B27D043BB90
:1017580000238B4229D20468DD00EC400460D518D0
:101768001B4E745501339BB2F3E70568E600F5405C
:1017780005601619174FBD550134A4B28C42F4D335
:10178800002402258C420DD210F824601519114F3F
:101798007D5DAE4218D10134A4B21D46F2E70024A3
:1017A800ECE702252846F0BC7047002302258B424F
:1017B800F8D210F82350D418054E345DA54205D14F
:1017C80001339BB20125F2E70225EBE70225E9E7A1
:1017D800F80E0020E80E002038B504460D46012911
:1017E80002D099B1022038BD102201461348FFF7F4
:1017F80053FE002302200F2BF5D8195D0F4AD25C47
:10180800914217D101339BB22846F4E74FF4806226
:1018180001460B48FFF740FE00230220B3F5806F16
:10182800E1D2195D064AD25C914205D101339BB2DF
:101838000120F3E70220D6E70220D4E7E80E0020D3
:10184800F80E002010B582B0FF230193134B1B68DC
:1018580013F0010FFAD1124C01212046FFF734FF93
:10186800FFF7E6FE0F4A136843F0100313600123E5
:101878000022022101A8FFF767FF01212046FFF798
:10188800ABFF064B1B6813F0010FFAD1054A13682A
:1018980023F01003136002B010BD00BF0C200240FB
:1018A80000F8FF1F1020024010B582B0A523019355
:1018B800134B1B6813F0010FFAD1124C012120467B
:1018C800FFF702FFFFF7B4FE0F4A136843F0100357
:1018D800136001230022022101A8FFF735FF01212F
:1018E8002046FFF779FF064B1B6813F0010FFAD16A
:1018F800054A136823F01003136002B010BD00BF3F
:101908000C20024000F8FF1F1020024010B582B0E2
:1019180004463A4A1368DBB21268120A02F47F429C
:10192800134337490A68120402F47F0213430A6812
:10193800120202F07F42134323EA00030193314B62
:101948001B6813F0010FFAD101212F48FFF7BCFEE5
:10195800FFF76EFE2D4A136843F010031360631EF1
:101968007F2B16D9A4F18103B3F5FF4F27D3A4F534
:101978000043013BB3F5FF0F2BD3A4F50004013C52
:10198800B4F1FF4F2FD3214A136823F010031360DB
:1019980013E001230822194601A8FFF7D5FE01210B
:1019A8001948FFF719FF174B1B6813F0010FFAD1FD
:1019B800164A136823F01003136002B010BD019B90
:1019C8001B0A019301230A22194601A8FFF7BCFE4E
:1019D800E5E7BDF80630019301230C22194601A85A
:1019E800FFF7B2FEDBE79DF80730019301230E22D3
:1019F800194601A8FFF7A8FED1E700BF08F8FF1FA6
:101A08000CF8FF1F0C20024000F8FF1F10200240B6
:101A180010B582B00446474A1368DBB21268120A4E
:101A280002F47F42134344490A68120402F47F0215
:101A380013430A68120202F07F42134303430193DF
:101A48003E4B1B6813F0010FFAD101213C48FFF708
:101A58003BFEFFF7EDFD3B4A136843F010031360AC
:101A6800631E7F2B19D9A4F18103B3F5FF4F2AD345
:101A7800A4F50043013BB3F5FF0F2ED3A4F50003F3
:101A8800013BB3F1FF4F32D3B4F1FF3F39D02D4AB8
:101A9800136823F01003136013E00123082219468A
:101AA80001A8FFF751FE01212548FFF795FE234BBA
:101AB8001B6813F0010FFAD1224A136823F01003B0
:101AC800136002B010BD019B1B0A019301230A2277
:101AD800194601A8FFF738FEE5E7BDF8063001937F
:101AE80001230C22194601A8FFF72EFEDBE79DF81B
:101AF8000730019301230E22194601A8FFF724FE9F
:101B0800D1E701230822194601A8FFF71DFE01238A
:101B18000A22194601A8FFF717FE01230C221946CD
:101B280001A8FFF711FE01230E22194601A8FFF7AD
:101B38000BFEB8E708F8FF1F0CF8FF1F0C20024047
:101B480000F8FF1F1020024030B482B00246002384
:101B5800184614680193B2F904108BB2072B15D8F4
:101B68002368019389000F2303FA01F5019B23EAF7
:101B780005030193D379927913438B40019A134358
:101B88000193019B236002B030BC7047083B9BB2B5
:101B9800072B19D81BB29380616801919B000F2114
:101BA80001FA03F5019921EA05010191D1799579A5
:101BB800294301FA03F301990B430193019B6360E5
:101BC800938808339380DEE74FF00100DBE710B419
:101BD80003464FF000001A68012909D089B9D16875
:101BE800B3F904400123A34021EA0301D16006E0D0
:101BF800D168B3F904400123A3401943D16010BC54
:101C080070474FF00100FAE710B40468B0F90420F7
:101C180093B20F2B08D84FF00000A368D34003F00D
:101C280001030B7010BC70474FF00100FAE7000089
:101C380070B586B004460D4600228DF817200123A2
:101C48008DF816304FF07E51049136490391ADF866
:101C58000A308DF80930ADF8062000F025F98DF826
:101C680017009DF81730DBB2022B45D02E4B9D4252
:101C780050D0012000F074F9C0B28DF81600039B13
:101C88009DF81620D2B2B3FBF2F30393039B250110
:101C9800B3FBF5F39BB2ADF80A30039801F088F96D
:101CA8000646204601F084F94FF0834101F0D8F947
:101CB8000146304601F088FA04460398B0FBF5F077
:101CC80001F076F90146204601F0C0F84FF0834153
:101CD80001F0C6F901F014FBC0B28DF80900BDF897
:101CE8000A209DF8093043EA02139BB2ADF806308A
:101CF800BDF8060006B070BD00F0B6F90490039870
:101D0800049E01F055F9314601F0AAF901F0F8FAFC
:101D18000390ABE7022000F023F9C0B28DF816005B
:101D2800ADE700BF00127A000038014084B038B532
:101D380004AC84E80F000D9D0E9C9DF8280000F06F
:101D48005FF8099800F0CAF8089800F0C7F806A8E4
:101D5800FFF7FAFE012106A8FFF739FF04A8FFF7ED
:101D6800F3FE0B990C98FFF763FF01466FF440539D
:101D78009D4203D0B5F5005F00D01D466FF4806327
:101D88009C4206D0B4F5806F03D0B4F5C06F00D084
:101D98001C4623462A460B9800F008FABDE838404E
:101DA80004B0704784B008B50DF1080C8CE80F003A
:101DB8000A999DF82C2049B122B90120BDE80840B4
:101DC80004B07047099800F04FFAF7E70120F5E7EB
:101DD80084B008B50DF1080C8CE80F000A999DF83D
:101DE8002C2059B122B90120BDE8084004B0704741
:101DF8000C9B099800F0FEF90020F5E70120F3E7B5
:101E08001F2808D9A0F12003DBB21F2B0CD93F2BC8
:101E180013D901207047012303FA00F00C4A136814
:101E28000343136000207047012202FA03F30949B3
:101E38000A681A430A60002070474038C0B201237C
:101E480003FA00F0044A1368034313600020704744
:101E580000E100E004E100E008E100E00C4B1B6851
:101E6800012811D0B0F5803F0ED0B0F1807F0BD0A3
:101E780010F1020F06D010F1011F03D06FF080722D
:101E8800904202D1034000E00343014A13607047C7
:101E980000100240034A136823F00303184310603C
:101EA800704700BF041002400B4B1B6813F00C0F67
:101EB8000BD0094B1B6813F0040F08D1064B1B68A5
:101EC80013F0080F05D1012070470020704701204A
:101ED80070470220704700BF0410024010F0805F76
:101EE80006D020F080500D4A1368184310607047E0
:101EF80000F04043B3F1404F09D010F0005F05D027
:101F080020F00050064A136818431060704720F00C
:101F18004040044A13681843106070471810024084
:101F2800141002401C10024010F1810F10D06FF401
:101F3800806398420CD06FF40053984208D06FF435
:101F48004043984204D0054A13681843106070470C
:101F5800024A136818401060704700BF041002401E
:101F680082B0002301933F4B1B6803F0F0030193F9
:101F7800019B802B19D9019B802B1ED0019B902B94
:101F88001DD0019BA02B1CD0019BB02B1BD0019B0B
:101F9800C02B1AD0019BD02B19D0019BE02B18D055
:101FA800019BF02B18D0002300E00123012816D054
:101FB800022835D0184602B070470223F6E70423FA
:101FC800F4E70823F2E71023F0E74023EEE7802345
:101FD800ECE74FF48073E9E74FF40073E6E7214A32
:101FE800126802F4E0620192019AB2F5806F0ED095
:101FF800019AB2F5A06F0DD0019AB2F5C06F0CD05E
:10200800019AB2F5E06FD5D11B019BB2D2E75B0014
:102018009BB2CFE79B009BB2CCE7DB009BB2C9E742
:10202800104A126802F460520192019AB2F5005FF8
:102038000ED0019AB2F5205F0DD0019AB2F5405F3B
:102048000CD0019AB2F5605FB4D11B019BB2B1E725
:102058005B009BB2AEE79B009BB2ABE7DB009BB299
:10206800A8E700BF0410024010B582B00023019316
:10207800424B1B6803F480330193019BB3F5803F07
:1020880043D002203D4B1B6803F470130193019B5E
:10209800B3F5701F47D0019BB3F5802F4ED0019B3D
:1020A800B3F5002F4CD0019BB3F5402F4BD0019BCB
:1020B800B3F5801F49D0019BB3F5A01F47D0019B02
:1020C800B3F5C01F45D0019BB3F5E01F44D0019B79
:1020D800B3F5001F42D0019BB3F5101F40D0019B00
:1020E800B3F5201F3ED0019BB3F5301F3CD0019BB8
:1020F800B3F5401F3AD0019BB3F5501F38D0019B70
:10210800B3F5701F36D0002410E01C4B1B6803F495
:1021180000330193019BB3F5003F02D0019B0120DE
:10212800B0E70220AEE702230193002400F044FF49
:102138000146204601F048F802B010BD104CF5E702
:102148004FF08144F2E70F4CF0E70F4CEEE70F4CED
:10215800ECE74FF08244E9E70D4CE7E70D4CE5E783
:102168000D4CE3E70D4CE1E70D4CDFE70D4CDDE7E7
:102178000D4CDBE74FF08344D8E700BF0410024062
:10218800000040400000A0400000C0400000E040C7
:102198000000104100002041000030410000404193
:1021A80000005041000060410000704110B4C46854
:1021B80044F40054C46081606FF440518A4210D0E6
:1021C80001690A4302616FF4806293420DD0C268CC
:1021D8001343C360C36843F00C03C360002010BC02
:1021E800704701690A400261EDE7C2681340C360A5
:1021F800F0E7000070B505461E46114B984209D01D
:10220800A3F57443984218D003F58063984202D12D
:102218000C4C00E00C4C216022710023637163793F
:10222800227993420BD22268D35C6B603046FFF769
:10223800DBF8637901336371F1E7044CEBE770BDB8
:10224800003801405C0000204C00002054000020B1
:10225800012A05D0C36823EA0103C3600020704740
:10226800C3680B43C360F9E710B50F4B984209D018
:10227800A3F5744398420BD003F58063984202D1CA
:102288000A4C00E00A4CA379032B03D0012010BDAF
:10229800084CF8E72160227101222021FFF7D8FFBE
:1022A8000223A3710020F2E7003801404400002017
:1022B800340000203C00002008B50D4A904209D0A7
:1022C800A2F57442904210D002F58062904202D189
:1022D800084B00E0084B00221A605A711A7103215A
:1022E80099712021FFF7B4FF08BD044BF3E700BF45
:1022F8000038014044000020340000203C00002049
:1023080008B50F4A904209D0A2F57442904214D001
:1023180002F58062904202D10A4B00E00A4B00228B
:102328001A605A711A7103219971036823F04003E6
:1023380003608021FFF78CFF08BD044BEFE700BF67
:10234800003801405C0000204C00002054000020B0
:1023580000B583B0274B1B680193274B1B6803F01C
:1023680080030093019B1BB1244B9B79022B08D05F
:10237800009B1BB1224B9B79022B24D003B05DF844
:1023880004FB204B1B6813F4806F19D0194B1B7882
:1023980003F07F0333B1194A1068517943545379D4
:1023A80001335371154B5A791B799A42E0D112487F
:1023B800FFF782FF144B1B68002BD9D09847D7E74B
:1023C8000C4B1B78E6E70E4B5A791B799A4208D0DA
:1023D8000B4B1968895C074A11605A7901325A71A6
:1023E800CCE70548FFF78CFF084B1B68002BC5D0CE
:1023F8009847C3E704380140003801403400002002
:102408004C0000200C380140BC0E0020C80E0020F3
:1024180000B583B0274B1B680193274B1B6803F05B
:1024280080030093019B1BB1244B9B79022B08D09E
:10243800009B1BB1224B9B79022B24D003B05DF883
:1024480004FB204B1B6813F4806F19D0194B1B78C1
:1024580003F07F0333B1194A106851794354537913
:1024680001335371154B5A791B799A42E0D11248BE
:10247800FFF722FF144B1B68002BD9D09847D7E7EA
:102488000C4B1B78E6E70E4B5A791B799A4208D019
:102498000B4B1968895C074A11605A7901325A71E5
:1024A800CCE70548FFF72CFF084B1B68002BC5D06D
:1024B8009847C3E704440040004400403C00002023
:1024C800540000200C440040C00E0020CC0E002018
:1024D80000B583B0274B1B680193274B1B6803F09B
:1024E80080030093019B1BB1244B9B79022B08D0DE
:1024F800009B1BB1224B9B79022B24D003B05DF8C3
:1025080004FB204B1B6813F4806F19D0194B1B7800
:1025180003F07F0333B1194A106851794354537952
:1025280001335371154B5A791B799A42E0D11248FD
:10253800FFF7C2FE144B1B68002BD9D09847D7E78A
:102548000C4B1B78E6E70E4B5A791B799A4208D058
:102558000B4B1968895C074A11605A7901325A7124
:10256800CCE70548FFF7CCFE084B1B68002BC5D00D
:102578009847C3E704480040004800404400002052
:102588005C0000200C480040C40E0020D00E002043
:10259800F0B58DB0FFF768FD4FF48030FFF75EFCB3
:1025A8000120FFF777FC6FF48060FFF7BDFC274838
:1025B800FFF794FC2648FFF791FC2648FFF78EFCAE
:1025C8002548FFF78BFC254C6FF4806706976FF45E
:1025D800405605964FF4E135049504F110030FCBEE
:1025E8008DE80F0094E80F00FFF7A0FB1C4C06973E
:1025F8000596049504F110030FCB8DE80F0094E8BD
:102608000F00FFF793FB174B099308238DF82B3026
:102618000C23ADF8283000238DF82A3009A8FFF7DD
:1026280093FA012109A8FFF7D2FA0DF12F0109A8A1
:10263800FFF7EAFA9DF82F3023B1FEF785F800205E
:102648000DB0F0BDFEF7DCFDF9E700BF0800001093
:10265800100000104000002010000020BC420008BC
:10266800DC420008000C014081F0004102E000BF9C
:1026780083F0004330B54FEA41044FEA430594EA3A
:10268800050F08BF90EA020F1FBF54EA000C55EA75
:10269800020C7FEA645C7FEA655C00F0E2804FEA46
:1026A8005454D4EB5555B8BF6D420CDD2C4480EA28
:1026B800020281EA030382EA000083EA010180EA58
:1026C800020281EA0303362D88BF30BD11F0004FA6
:1026D8004FEA01314FF4801C4CEA113102D04042DC
:1026E80061EB410113F0004F4FEA03334CEA133317
:1026F80002D0524263EB430394EA050F00F0A7802F
:10270800A4F10104D5F1200E0DDB02FA0EFC22FA29
:1027180005F2801841F1000103FA0EF2801843FA1D
:1027280005F359410EE0A5F120050EF1200E012A0E
:1027380003FA0EFC28BF4CF0020C43FA05F3C0184C
:1027480051EBE37101F0004507D54FF0000EDCF1C5
:10275800000C7EEB00006EEB0101B1F5801F1BD36E
:10276800B1F5001F0CD349085FEA30004FEA3C0C72
:1027780004F101044FEA445212F5800F80F09A8068
:10278800BCF1004F08BF5FEA500C50F1000041EB6C
:10279800045141EA050130BD5FEA4C0C404141EB70
:1027A800010111F4801FA4F10104E9D191F0000F97
:1027B80004BF01460020B1FA81F308BF2033A3F11A
:1027C8000B03B3F120020CDA0C3208DD02F1140C11
:1027D800C2F10C0201FA0CF021FA02F10CE002F14C
:1027E8001402D8BFC2F1200C01FA02F120FA0CFC45
:1027F800DCBF41EA0C019040E41AA2BF01EB04518E
:10280800294330BD6FEA04041F3C1CDA0C340EDC8B
:1028180004F11404C4F1200220FA04F001FA02F3CE
:1028280040EA030021FA04F345EA030130BDC4F18C
:102838000C04C4F1200220FA02F001FA04F340EA81
:102848000300294630BD21FA04F0294630BD94F032
:10285800000F83F4801306BF81F480110134013D19
:102868004EE77FEA645C18BF7FEA655C29D094EA8A
:10287800050F08BF90EA020F05D054EA000C04BF08
:102888001946104630BD91EA030F1EBF00210020F3
:1028980030BD5FEA545C05D14000494128BF41F092
:1028A800004130BD14F580043CBF01F5801130BDF6
:1028B80001F0004545F0FE4141F470014FF0000081
:1028C80030BD7FEA645C1ABF194610467FEA655C32
:1028D8001CBF0B46024650EA013406BF52EA0335D4
:1028E80091EA030F41F4002130BD00BF90F0000FC2
:1028F80004BF0021704730B54FF4806404F13204FE
:102908004FF000054FF0000150E700BF90F0000FB6
:1029180004BF0021704730B54FF4806404F13204DD
:1029280010F0004548BF40424FF000013EE700BFAD
:1029380042004FEAE2014FEA31014FEA02701FBF3D
:1029480012F07F4393F07F4F81F06051704732F06F
:102958007F4208BF704793F07F4F04BF41F40021C6
:10296800704730B54FF4607401F0004521F0004124
:102978001CE700BF50EA010208BF704730B54FF0AE
:1029880000050AE050EA010208BF704730B511F0AF
:10299800004502D5404261EB41014FF4806404F1E7
:1029A80032045FEA915C3FF4D8AE4FF003025FEA6D
:1029B800DC0C18BF03325FEADC0C18BF033202EBF1
:1029C800DC02C2F1200300FA03FC20FA02F001FA4B
:1029D80003FE40EA0E0021FA02F11444BDE600BFEE
:1029E80070B54FF0FF0C4CF4E06C1CEA11541DBF9D
:1029F8001CEA135594EA0C0F95EA0C0F00F0DEF868
:102A08002C4481EA030621EA4C5123EA4C5350EA4C
:102A1800013518BF52EA033541F4801143F480139D
:102A280038D0A0FB02CE4FF00005E1FB02E506F02E
:102A38000042E0FB03E54FF00006E1FB03569CF083
:102A4800000F18BF4EF0010EA4F1FF04B6F5007F89
:102A580064F5407404D25FEA4E0E6D4146EB0606FB
:102A680042EAC62141EA55514FEAC52040EA5E5084
:102A78004FEACE2EB4F1FD0C88BFBCF5E06F1ED82E
:102A8800BEF1004F08BF5FEA500E50F1000041EB65
:102A9800045170BD06F0004646EA010140EA020012
:102AA80081EA0301B4EB5C04C2BFD4EB0C0541EA34
:102AB800045170BD41F480114FF0000E013C00F349
:102AC800AB8014F1360FDEBF002001F0004170BD6D
:102AD800C4F10004203C35DA0C341BDC04F1140486
:102AE800C4F1200500FA05F320FA04F001FA05F212
:102AF80040EA020001F0004221F0004110EBD370DF
:102B080021FA04F642EB06015EEA430E08BF20EA0A
:102B1800D37070BDC4F10C04C4F1200500FA04F3AD
:102B280020FA05F001FA04F240EA020001F000413F
:102B380010EBD37041F100015EEA430E08BF20EAB2
:102B4800D37070BDC4F1200500FA05F24EEA020EFA
:102B580020FA04F301FA05F243EA020321FA04F029
:102B680001F0004121FA04F220EA020000EBD370E0
:102B78005EEA430E08BF20EAD37070BD94F0000FE0
:102B88000FD101F00046400041EB010111F4801F14
:102B980008BF013CF7D041EA060195F0000F18BFC5
:102BA800704703F00046520043EB030313F4801F01
:102BB80008BF013DF7D043EA0603704794EA0C0FBB
:102BC8000CEA135518BF95EA0C0F0CD050EA4106D1
:102BD80018BF52EA4306D1D181EA030101F000414E
:102BE8004FF0000070BD50EA410606BF1046194676
:102BF80052EA430619D094EA0C0F02D150EA013682
:102C080013D195EA0C0F05D152EA03361CBF1046C2
:102C180019460AD181EA030101F0004141F0FE4161
:102C280041F470014FF0000070BD41F0FE4141F4E5
:102C3800780170BD70B54FF0FF0C4CF4E06C1CEAE5
:102C480011541DBF1CEA135594EA0C0F95EA0C0F9A
:102C580000F0A7F8A4EB050481EA030E52EA033555
:102C68004FEA013100F088804FEA03334FF0805576
:102C780045EA131343EA12634FEA022245EA1115A3
:102C880045EA10654FEA00260EF000419D4208BF54
:102C9800964244F1FD0404F5407402D25B084FEA01
:102CA8003202B61A65EB03055B084FEA32024FF4AD
:102CB80080104FF4002CB6EB020E75EB030E22BF0A
:102CC800B61A754640EA0C005B084FEA3202B6EBCA
:102CD800020E75EB030E22BFB61A754640EA5C0079
:102CE8005B084FEA3202B6EB020E75EB030E22BF09
:102CF800B61A754640EA9C005B084FEA3202B6EB0A
:102D0800020E75EB030E22BFB61A754640EADC00C8
:102D180055EA060E18D04FEA051545EA16754FEA2A
:102D280006164FEAC30343EA52734FEAC2025FEA48
:102D38001C1CC0D111F4801F0BD141EA00014FF0D7
:102D480000004FF0004CB6E711F4801F04BF0143A8
:102D58000020B4F1FD0C88BFBCF5E06F3FF6AFAEC4
:102D6800B5EB030C04BFB6EB020C5FEA500C50F154
:102D7800000041EB045170BD0EF0004E4EEA1131D7
:102D880014EB5C04C2BFD4EB0C0541EA045170BDDE
:102D980041F480114FF0000E013C90E645EA060E22
:102DA8008DE60CEA135594EA0C0F08BF95EA0C0F50
:102DB8003FF43BAF94EA0C0F0AD150EA01347FF498
:102DC80034AF95EA0C0F7FF425AF104619462CE76F
:102DD80095EA0C0F06D152EA03353FF4FDAE1046D2
:102DE800194622E750EA410618BF52EA43067FF423
:102DF800C5AE50EA41047FF40DAF52EA43057FF4B3
:102E0800EBAE12E74A0011D212F5001211D20DD51D
:102E18006FF47873B3EB62520ED44FEAC12343F0D8
:102E2800004343EA505323FA02F070474FF0000082
:102E3800704750EA013002D14FF0FF3070474FF031
:102E48000000704780F0004002E000BF81F00041C0
:102E580042001FBF5FEA410392EA030F7FEA226C38
:102E68007FEA236C6AD04FEA1262D2EB1363C1BFC8
:102E7800D218414048404140B8BF5B42192B88BF37
:102E8800704710F0004F40F4000020F07F4018BF5A
:102E9800404211F0004F41F4000121F07F4118BF7A
:102EA800494292EA030F3FD0A2F1010241FA03FC22
:102EB80010EB0C00C3F1200301FA03F100F000430A
:102EC80002D5494260EB4000B0F5000F13D3B0F1D2
:102ED800807F06D340084FEA310102F10102FE2A41
:102EE80051D2B1F1004F40EBC25008BF20F00100B1
:102EF80040EA03007047490040EB000010F4000F5F
:102F0800A2F10102EDD1B0FA80FCACF1080CB2EBF1
:102F18000C0200FA0CF0AABF00EBC2505242184350
:102F2800BCBFD0401843704792F0000F81F40001F5
:102F380006BF80F400000132013BB5E74FEA4103C8
:102F48007FEA226C18BF7FEA236C21D092EA030F34
:102F580004D092F0000F08BF0846704790EA010FAE
:102F68001CBF0020704712F07F4F04D1400028BFDB
:102F780040F00040704712F100723CBF00F50000BD
:102F8800704700F0004343F0FE4040F400007047F3
:102F98007FEA226216BF08467FEA2363014642029F
:102FA80006BF5FEA412390EA010F40F480007047B2
:102FB8004FF0000304E000BF10F0004348BF404258
:102FC8005FEA000C08BF704743F0964301464FF094
:102FD80000001CE050EA010208BF70474FF00003F0
:102FE8000AE000BF50EA010208BF704711F0004331
:102FF80002D5404261EB41015FEA010C02BF844601
:103008000146002043F0B64308BFA3F18053A3F55F
:103018000003BCFA8CF2083AA3EBC25310DB01FAA6
:1030280002FC634400FA02FCC2F12002BCF1004F2A
:1030380020FA02F243EB020008BF20F001007047BB
:1030480002F1200201FA02FCC2F1200250EA4C000F
:1030580021FA02F243EB020008BF20EADC70704755
:103068004FF0FF0C1CEAD0521EBF1CEAD15392EA63
:103078000C0F93EA0C0F6FD01A4480EA010C40023F
:1030880018BF5FEA41211ED04FF0006343EA501099
:1030980043EA5111A0FB01310CF00040B1F5000FDB
:1030A8003EBF490041EAD3715B0040EA010062F18A
:1030B8007F02FD2A1DD8B3F1004F40EBC25008BF74
:1030C80020F00100704790F0000F0CF0004C08BF92
:1030D80049024CEA502040EA51207F3AC2BFD2F15F
:1030E800FF0340EAC250704740F400004FF000036D
:1030F800013A5DDC12F1190FDCBF00F000407047A7
:10310800C2F10002410021FA02F1C2F1200200FAE4
:1031180002FC5FEA310040F1000053EA4C0308BFAB
:1031280020EADC70704792F0000F00F0004C02BFFC
:10313800400010F4000F013AF9D040EA0C0093F077
:10314800000F01F0004C02BF490011F4000F013BD1
:10315800F9D041EA0C018FE70CEAD15392EA0C0F3F
:1031680018BF93EA0C0F0AD030F0004C18BF31F0AA
:10317800004CD8D180EA010000F00040704790F080
:10318800000F17BF90F0004F084691F0000F91F024
:10319800004F14D092EA0C0F01D142020FD193EAEA
:1031A8000C0F03D14B0218BF084608D180EA010072
:1031B80000F0004040F0FE4040F40000704740F04E
:1031C800FE4040F4400070474FF0FF0C1CEAD0521C
:1031D8001EBF1CEAD15392EA0C0F93EA0C0F69D078
:1031E800A2EB030280EA010C49024FEA402037D0E3
:1031F8004FF0805343EA111143EA10130CF00040DA
:103208008B4238BF5B0042F17D024FF4000C8B42C9
:1032180024BF5B1A40EA0C00B3EB510F24BFA3EBA9
:10322800510340EA5C00B3EB910F24BFA3EB910379
:1032380040EA9C00B3EBD10F24BFA3EBD10340EAD3
:10324800DC001B0118BF5FEA1C1CE0D1FD2A3FF619
:1032580050AF8B4240EBC25008BF20F001007047CE
:103268000CF0004C4CEA50207F32C2BFD2F1FF0371
:1032780040EAC250704740F400004FF00003013AA2
:1032880037E792F0000F00F0004C02BF400010F446
:10329800000F013AF9D040EA0C0093F0000F01F05A
:1032A800004C02BF490011F4000F013BF9D041EA7C
:1032B8000C0195E70CEAD15392EA0C0F08D14202AF
:1032C8007FF47DAF93EA0C0F7FF470AF084676E782
:1032D80093EA0C0F04D14B023FF44CAF08466EE75B
:1032E80030F0004C18BF31F0004CCAD130F0004229
:1032F8007FF45CAF31F000437FF43CAF5FE700BF81
:1033080042000ED2B2F1FE4F0BD34FF09E03B3EB47
:10331800126209D44FEA002343F0004323FA02F073
:1033280070474FF00000704712F1610F01D142025F
:1033380002D14FF0FF3070474FF00000704700BFD8
:10334800014B1868704700BF640000200346024420
:10335800934200D1704703F8011BF9E7034613F8BD
:10336800012B002AFBD1181A0138704730B5141EFA
:1033780005469BB0184605DA8B234FF0FF302B60CB
:103388001BB030BD4FF40273ADF80C300CBF2346B0
:1033980004F1FF33029305934FF6FF7300910491F4
:1033A800ADF80E3002461E9B6946284600F074F8B8
:1033B800431CBCBF8B232B60002CE1D00022009B58
:1033C8001A70DDE707B5009313460A46014603481D
:1033D8000068FFF7CBFF03B05DF804FB6400002032
:1033E8002DE9F0478E6882469E420C4691469846E3
:1033F80038D8B1F80CC01CF4906F31D062692568D8
:10340800096902EB42026F1A02EBD27201335510BE
:103418003B449D4238BF1D461CF4806F30D029467E
:1034280000F040FB064650B90C234FF0FF30CAF8B5
:103438000030A38943F04003A381BDE8F0873A46F2
:10344800216900F0BBFAA38923F4906343F0800359
:10345800A38126613E44266046466561ED1BA56052
:10346800464500D9464632464946206800F0B4FA37
:10347800A36800209B1BA36023681E442660DCE72A
:103488002A4600F069FB06460028E2D12169504629
:1034980000F0BCFAC8E700002DE9F04F1E468B8902
:1034A8009DB01B0607460D4614460ED50B6963B939
:1034B800402100F0F7FA2860286120B90C233B600E
:1034C8004FF0FF30C9E040236B61002309932023AC
:1034D8008DF8293030234FF0010ADFF898918DF8E4
:1034E8002A30039623461E4613F8012B0AB1252AD3
:1034F800F9D1B6EB040B0BD05B4622462946384679
:10350800FFF76EFF013000F0A380099B5B4409932D
:103518003378002B00F09C8000234FF0FF32CDE978
:1035280005230136049307938DF853301A933446D4
:10353800052214F8011B4F4800F032FA049BC0B969
:10354800D90644BF20228DF853201A0744BF2B22E6
:103558008DF8532032782A2A13D0344600200A26C0
:10356800079A214611F8013B303B092B4BD970B91A
:1035780014E0A0EB09000AFA00F01843049026466C
:10358800D5E7039A111D12680391002A01DB0792FF
:1035980004E0524243F002030792049323782E2B4F
:1035A8000CD163782A2B33D1039B02341A1D1B6874
:1035B8000392002BB8BF4FF0FF3305932E4E032222
:1035C8002178304600F0ECF938B14023801B03FA2B
:1035D80000F0049B01340343049314F8011B0622F2
:1035E80026488DF8281000F0DBF9002838D0244B45
:1035F80013BB039B073323F0070308330393099B8B
:10360800434409936EE706FB023201200C46A8E703
:1036180000230A26194601340593204610F8012B89
:10362800303A092A03D9002BC8D00591C6E706FB12
:10363800012101230446F0E703AB00932A46114B0E
:1036480004A93846AFF30080B0F1FF3F8046D6D1D9
:10365800AB895B063FF534AF09981DB0BDE8F08F24
:1036680003AB00932A46074B04A9384600F082F8BA
:10367800EAE700BFFC4200080243000806430008CE
:1036880000000000E93300082DE9F04791461F4685
:103698008A680B6906469342B8BF1346C9F80030DA
:1036A80091F843200C46DDF8208012B10133C9F8A7
:1036B80000302368990642BFD9F800300233C9F8B0
:1036C8000030256815F0060507D104F1190AE368EA
:1036D800D9F800209B1AAB4229DC94F843302268C1
:1036E800003318BF012392062ED404F14302394651
:1036F8003046C047013021D02368E56803F006034F
:10370800042B18BF0025D9F800204FF0000908BF86
:10371800AD1AA368226908BF25EAE5759342C4BFBC
:103728009B1AED181A344D451AD1002008E00123E0
:10373800524639463046C047013003D14FF0FF307A
:10374800BDE8F0870135C2E73020E11881F8430071
:103758005A1C94F845102244023382F84310C4E7F7
:103768000123224639463046C0470130E6D009F1E8
:103778000109D8E72DE9F04306460C4601F143005C
:10378800097E85B06E29984617460C9B00F0BB80D1
:1037980024D8632939D00AD8002900F0C4805829D0
:1037A80000F0928004F1420584F8421035E0642963
:1037B80001D06929F6D125681A6815F0800F02F141
:1037C80004012CD012681960002A03DA2D23524212
:1037D80084F84330DFF8C0C10A233FE0732900F0C2
:1037E800A68008D86F2921D07029DBD1226842F041
:1037F8002002226003E0752918D07829D2D17822D6
:10380800DFF898C184F8452062E01A6804F142059F
:10381800111D1960136884F84230012394E012687E
:1038280015F0400F196018BF12B2CDE7D4F800C0E8
:103838001A681CF0800F02F104051D6001D012689F
:1038480003E01CF0400FFAD012886F290CBF082340
:103858000A23DFF844C1002184F843106568002D6D
:10386800A8BF2168A560A4BF21F0040121600AB99E
:10387800002D46D00546B2FBF3F103FB112E1CF8D0
:103888000EE0934205F801ED39D9082B0BD12368D6
:10389800DA0708D5236962689A42DEBF302305F843
:1038A800013C05F1FF35401B2061CDF800803B4607
:1038B80003AA21463046FFF7E7FE013049D14FF011
:1038C800FF3005B0BDE8F083DFF8CCC084F84510C0
:1038D8001D68216855F8042B1D600D060BD5CD0712
:1038E80044BF41F0200121601AB9236823F0200366
:1038F80023601023AFE74B0648BF92B2EFE70A46B2
:10390800B9E70546C1E71A68D4F800C0151D616912
:103918001CF0800F1D60136801D0196003E01CF0D3
:10392800400FFAD01980002305462361BDE71A68C5
:10393800111D1960156800216268284600F030F8EA
:1039480008B1401B606063682361002384F843303A
:10395800ABE723692A4639463046C0470130AED026
:1039680023689B0713D4E068039B9842B8BF1846A6
:10397800A7E701234A4639463046C04701309ED062
:103988000135E368039A9B1AAB42F2DCEBE70025AA
:1039980004F11909F5E700BF0D4300081E430008AC
:1039A80010B5C9B202449042034601D1002303E096
:1039B8001C7801308C42F6D1184610BD0A44914259
:1039C80000F1FF3300D1704710B511F8014B914257
:1039D80003F8014FF9D110BD884210B501EB02037D
:1039E80002D983421C4607D8421E994208D011F8D2
:1039F800014B02F8014FF8E783189A1A9A4200D14E
:103A080010BD14F8011D03F8011DF7E738B5054688
:103A1800002943D051F8043C0C1F002BB8BFE41810
:103A280000F0D0F81E4A1368104633B9636014607A
:103A38002846BDE8384000F0CBB8A3420BD921682E
:103A48006218934201BF1A685B685218226063606B
:103A58000460EDE713465A680AB1A242FAD9196818
:103A68005818A0420BD120680144581882421960A6
:103A7800DED110685268014419605A60D8E702D94B
:103A88000C232B60D4E7206821188A4201BF1168F3
:103A980052680918216062605C60C9E738BD00BFE0
:103AA800D40E0020F8B5CD1C25F0030508350C2DE3
:103AB80038BF0C25002D064601DBA94203D90C238B
:103AC80033600020F8BD00F07DF821490A681446EB
:103AD8009CB9204F3B6823B92146304600F062F874
:103AE80038602946304600F05DF8431C23D10C238A
:103AF8003046336000F06CF8E3E723685B1B17D4AB
:103B08000B2B03D923601C44256004E06368A242A0
:103B18000CBF0B605360304600F05AF804F10B00FC
:103B2800231D20F00700C21ACCD01B1AA350C9E7E6
:103B380022466468CCE7C41C24F00304A042E3D006
:103B4800211A304600F02EF80130DDD1CFE700BF52
:103B5800D40E0020D80E0020F8B5074614460E46AD
:103B680021B91146BDE8F840FFF79CBF22B9FFF71D
:103B78004DFF25462846F8BD00F030F8A0420FD288
:103B880021463846FFF78EFF05460028F2D0314619
:103B98002246FFF713FF31463846FFF737FFE9E7BC
:103BA8003546E7E738B50023054C05460846236047
:103BB800FCF7E0FB431C02D1236803B12B6038BD3E
:103BC800DC0E0020014800F011B800BFFC120020F4
:103BD800014800F00CB800BFFC12002051F8043C6A
:103BE800181F002BBCBF0B58C01870477047704790
:103BF800537461636B206672616D653A0A00000058
:103C0800205230203D2020253038580A000000007E
:103C1800205231203D2020253038580A000000006D
:103C2800205232203D2020253038580A000000005C
:103C3800205233203D2020253038580A000000004B
:103C480020523132203D20253038580A000000002B
:103C5800204C52203D2020253038580A0000000012
:103C6800205043203D2020253038580A000000000D
:103C780020505352203D20253038580A00000000BB
:103C88004653522F4641523A0A00000020434653F9
:103C980052203D2020253038580A0000204846533D
:103CA80052203D2020253038580A00002044465331
:103CB80052203D2020253038580A00002041465324
:103CC80052203D2020253038580A0000204D4D460E
:103CD8004152203D20253038580A000020424641F4
:103CE80052203D2020253038580A00004D69736362
:103CF8000A000000204C522F4558435F5245545546
:103D0800524E3D20253038580A0000005B48617249
:103D1800644661756C745D0A000000005B4275734F
:103D28004661756C745D0A005B5573616765466131
:103D3800756C745D0A000000424C5F44454255476B
:103D48005F4D53473A20626F6F746C6F61646572A0
:103D58005F68616E646C655F6469735F72656164F6
:103D68005F70726F746563745F636D64200D0A0021
:103D7800424C5F44454255475F4D53473A20626F76
:103D88006F746C6F616465725F68616E646C655FA7
:103D98006469735F77726974655F70726F74656365
:103DA800745F636D64200D0A00000000424C5F449C
:103DB800454255475F4D53473A20626F6F746C6FA9
:103DC800616465725F68616E646C655F656E5F7281
:103DD8006561645F70726F746563745F636D64209E
:103DE8000D0A0000424C5F44454255475F4D53471A
:103DF8003A20626F6F746C6F616465725F68616EA0
:103E0800646C655F656E5F77726974655F70726F09
:103E1800746563745F636D64200D0A002D2D2D2D6C
:103E28002D2D2D2D2D2D2D2D2D2D2D2D2D2D2D2DBA
:103E38002D2D2D2D2D2D2D2D2D2D2D2D2D2D2D2DAA
:103E48002D2D2D2D2D2D2D2D2D2D2D2D0D0A000037
:103E5800424C5F44454255475F4D53473A20626F95
:103E68006F746C6F616465725F68616E646C655FC6
:103E7800666C6173685F65726173655F636D64200A
:103E88000D0A0000424C5F44454255475F4D534779
:103E98003A20626F6F746C6F616465725F68616EFF
:103EA800646C655F666C6173685F6D6173735F6591
:103EB800726173655F636D64200D0A0044657669FD
:103EC80063652049443A2020202523780D0A000004
:103ED8005265766973696F6E2049443A20252378C4
:103EE8000D0A0000424C5F44454255475F4D534719
:103EF8003A20626F6F746C6F616465725F68616E9F
:103F0800646C655F67657468656C705F636D642079
:103F18000D0A0000424C5F44454255475F4D5347E8
:103F28003A20626F6F746C6F616465725F68616E6E
:103F3800646C655F6765747264705F636D64200D9F
:103F48000A000000424C5F44454255475F4D5347C5
:103F58003A20626F6F746C6F616465725F68616E3E
:103F6800646C655F6765747665725F636D64200D68
:103F78000A000000424C5F44454255475F4D534795
:103F88003A20636865636B73756D20737563636549
:103F98007373202121200D0A00000000424C5F4469
:103FA800454255475F4D53473A20424C5F5645526C
:103FB800203A2030782578200D0A0000424C5F44D2
:103FC800454255475F4D53473A20636865636B73B5
:103FD800756D206661696C202121200D0A000000A2
:103FE800424C5F44454255475F4D53473A20626F04
:103FF8006F746C6F616465725F68616E646C655F35
:10400800676F746F5F616464726573735F636D6417
:10401800200D0A00424C5F44454255475F4D5347C7
:104028003A20474F20616464723A20307825303254
:10403800782530327825303278253032780D0A00EC
:10404800424C5F44454255475F4D53473A206A7595
:104058006D70696E6720746F20676F206164647289
:1040680065737321200A0000424C5F44454255475E
:104078005F4D53473A474F206164647220696E76FA
:10408800616C69642021200A000000002D2D2D2D6F
:104098002D2D2D2D2D2D2D2D2D2D2D2D2D2D2D2D48
:1040A8002D2D2D2D2D2D2D2D2D2D2D2D2D2D2D2D38
:1040B8002D2D2D2D2D2D2D2D2D2D2D2D0D0A424C37
:1040C8005F44454255475F4D53473A20626F6F74CE
:1040D8006C6F616465725F68616E646C655F6D6565
:1040E8006D5F77726974655F636D64200D0A000007
:1040F800424C5F44454255475F4D53473A206465FB
:104108007374696E6174696F6E206164647265733B
:10411800733A20307825303278253032782530329D
:1041280078253032780D0A00424C5F4445425547A5
:104138005F4D53473A20626F6F746C6F61646572AC
:104148005F68616E646C655F726561645F73656307
:10415800746F72735F7374617475735F636D6420D9
:104168000D0A0000424C5F44454255475F4D534796
:104178003A20626F6F746C6F616465725F68616E1C
:10418800646C655F73797374656D5F72657365746C
:104198005F636D64200D0A0053656E64696E672065
:1041A800424C5F41434B3A20307825780D0A000095
:1041B8007265706C79206C656E6774683D20256443
:1041C8002062797465730D0A00000000424C5F4458
:1041D800454255475F4D53473A20427574746F6E98
:1041E800206973206E6F7420707265737365642024
:1041F8002E2E20657865637574696E672075736502
:104208007220617070200D0A00000000424C5F446B
:10421800454255475F4D53473A204D5350207661EC
:104228006C7565203D20307825780D0A0000000067
:10423800424C5F44454255475F4D53473A204275CB
:1042480074746F6E2069732070726573736564206F
:104258002E2E20676F696E6720746F20424C206D88
:104268006F64650D0A0000007263765F6C656E20EE
:104278003D2025640D0A0000424C5F4445425547E5
:104288005F4D53473A20496E76616C696420636FCD
:104298006D6D616E6420636F646520726563656926
:1042A8007665642066726F6D20686F7374200D0ADE
:1042B8000000000000080140090003080008014050
:1042C8000A0000080400001000400010250000004B
:1042D80000380140000801400200030800080140BE
:1042E8000300000804000010000002C026000000BF
:1042F80000440040232D302B2000686C4C0065667C
:10430800674546470030313233343536373839411E
:104318004243444546003031323334353637383934
:074328006162636465660039
:1043300078563412D4000020000000000000000075
:1043400000000000010203040607080900A24A0455
:1043500051525355565B57595F60585C545A5D5ED5
:1043600000127A00000000000000030000000000BE
:104370000000030000000000000003000000000037
:104380000000030000000000000003000000000027
:104390000000030068000020000000000000000092
:1043A000000000000000000000000000000000000D
:1043B00000000000000000000000000000000000FD
:1043C00000000000000000000000000000000000ED
:1043D00000000000000000000000000000000000DD
:1043E00000000000000000000000000000000000CD
:0C43F0000000000000000000325476982D
:040000050800010DE1
:00000001FF
